:100000000C940D030C9445030C9445030C94450388
:100010000C9445030C9445030C9445030C94450340
:100020000C9445030C9445030C94C7190C94831944
:100030000C94C41A0C9445030C9445030C9445038A
:100040000C9445030C9445030C9445030C94450310
:100050000C9445030C94A01A0C9445030C9445038E
:100060000C9445030C9445030C9445030C944503F0
:100070000C9445030C9445030C9445030C944503E0
:100080000C9445030C9445030C9445030C944503D0
:100090000C9445030C9445030C9445030C944503C0
:1000A0000C9445030C9445030C9445030501090287
:1000B000A10185020901A1000509190129081500FE
:1000C0002501950875018102050109300931158165
:1000D000257F95027508810609381581257F9501D0
:1000E00075088106050C0A38021581257F95017572
:1000F000088106C0C005010980A101850319012AF4
:10010000B700150126B700950175108100C0050CD8
:100110000901A101850419012AA002150126A002E6
:10012000950175108100C005010906A1018506052C
:100130000719E029E71500250195087501810205D9
:1001400007190029EF1500250195F07501810205B9
:10015000081901290595057501910295017503910D
:1001600001C00660FF0961A1010962150026FF00B8
:100170009520750881020963150026FF00952075FA
:10018000089102C005010906A101050719E029E748
:1001900015002501950875018102950175088101F9
:1001A0000507190029FF150026FF0095067508812F
:1001B000000508190129059505750191029501753C
:1001C000039101C0000000000000000000000000DA
:1001D000000000000000000000000000000000001F
:1001E00000000000000000007E0F00D4FFFFFFC7EA
:1001F0000000007800000000000000002A2B28000A
:1002000000000000000000000000000000000029C5
:10021000000000002C1E3420212224342627252E05
:10022000362D3738271E1F2021222324252633333D
:10023000362E37381F0405060708090A0B0C0D0E69
:100240000F101112131415161718191A1B1C1D2F35
:100250003130232D350405060708090A0B0C0D0E55
:100260000F101112131415161718191A1B1C1D2F15
:100270003130354C290000003A003B003C003D0085
:100280003E003F0040004100420043004400450062
:100290000000000035001E001F0020002100220089
:1002A000230024002500260027002D002E002A0010
:1002B0002A004A002B0014001A000800150017003D
:1002C0001C0018000C00120013002F003000310039
:1002D00000004B00390004001600070009000A0066
:1002E0000B000D000E000F003300340064002800E6
:1002F00000004E00E10032001D001B000600190046
:10030000050011001000360037003800E5005200EB
:1003100000004D00E0000000E300E2002C000000BF
:100320002C0000002C000000E700E4005000510009
:1003300000004F0001000000010001000100010069
:1003400001000100010001000100010001000100A5
:100350000000000001000100010001000100010097
:100360000100010001000100010001000100010085
:100370000100010001000100010001000100010075
:100380000100010001000100010001000100010065
:100390000000010001000100010001000100010056
:1003A0000100010001000100010001000100010045
:1003B0000000010001000100010001000100010036
:1003C0000100010001000100010001000100010025
:1003D0000000010001000000010001000100000018
:1003E0000100000001000000010001000100010007
:1003F00000000100010000000100010001000100F7
:1004000001000100010001000100010001000100E4
:1004100000000000010001000100010001000100D6
:1004200001000100010001000100010001000100C4
:1004300001000100010001000100010001000100B4
:1004400001000100010001000100010001000100A4
:100450000000010001000100010001000100010095
:100460000100010001000100010001000100010084
:100470000000010001000100010001000100010075
:100480000100010001000100010001000100010064
:100490000000010001000000010001000100000057
:1004A0000100000001000000010001000100010046
:1004B0000000010001000000010001000100010036
:1004C0000100010001000100010001000100010024
:1004D0000000000001000100010001000100010016
:1004E0000100010001000100010001000100010004
:1004F00001000100010001000100010001000100F4
:1005000001000100010001000100010001000100E3
:1005100000000100010001000100010001000100D4
:1005200001000100010001000100010001000100C3
:1005300000000100010001000100010001000100B4
:1005400001000100010001000100010001000100A3
:100550000000010001000000010001000100000096
:100560000100000001000000010001000100010085
:1005700000000100AA00A900AA00A900AA00A90081
:10058000AA00A90009025B00030100A0FA09040007
:1005900000010301010009211101000122400007AF
:1005A000058103080001090401000203000000099D
:1005B000211101000122220007058203200001070A
:1005C00005030320000109040200010300000009E3
:1005D000211101000122B600070584032000011249
:1005E00001000200000008278C49340001010200CC
:1005F000011003500061007200610067006F006E1F
:10060000000000100341007200740065006D006975
:100610000073000000040309040011241FBECFEF83
:10062000DAE0DEBFCDBF04B603FE18C080919B02A6
:1006300090919C02A0919D02B0919E028730904BB8
:10064000A740B04B59F410929B0210929C0210925A
:100650009D0210929E02E0E0F8E3099511E0A0E00F
:10066000B1E0E4EFF1E402C005900D92A837B107C4
:10067000D9F722E0A8E7B1E001C01D92AB39B2077B
:10068000E1F70E94EB1A0C94A4200C940000E8ED12
:10069000F0E080818E7F80831092E2001092DA0079
:1006A0001092E100A0EEB0E08C9181608C9380818B
:1006B0008F77808319BCA7EDB0E08C918E7F8C93EF
:1006C00080818F7E80831092690208952091E400DA
:1006D0003091E50095E6A9012091EC00822F817010
:1006E00020FF06C08091E80080FF06C080E00895EA
:1006F0002091E80022FD1AC080918E02882389F0A3
:10070000853089F08091EB0085FD0FC02091E400D9
:100710003091E50042175307F9F29150E1F684E079
:10072000089582E0089583E0089581E0089580911E
:10073000900287FF13C08091E80082FF06C080917D
:10074000E8008B778093E80004C080918E028111CD
:10075000F2CF089580918E028823D9F38091E8002A
:1007600080FFF8CF8091E8008E77ECCF982F9093A0
:10077000E900242F762F50E0891731F07091EC00BA
:100780002091ED005091F00021FD07C09F5F973050
:1007900071F78093E90081E008953091EB003E7F8E
:1007A0003093EB003091ED003D7F3093ED003091C0
:1007B000EB0031603093EB007093EC002093ED0080
:1007C0005093F0002091EE0027FDE0CF80E00895E7
:1007D000B0E0A0E0EEEEF3E00C941420C8EDD0E021
:1007E00088818F7E8883E7EDF0E08081816080835F
:1007F00084E082BF81E08093690288818E7F888354
:1008000002EE10E0F80110821092DA0081EEC82E9C
:10081000D12CF601108288818F7788838881806847
:10082000888388818F7D888319BC10928E021092F4
:100830008F0210928D0210928C0290EEE92EF12C14
:10084000F70180818B7F808388818160888342E08B
:1008500060E080E00E94B603F60180818E7F808395
:10086000F801808181608083808188608083F701C6
:1008700080818E7F8083888180618883CDB7DEB759
:10088000E8E00C943020FC01809196029091970250
:1008900086179707A0F06115710529F49091E8007B
:1008A0009E779093E80090E06115710551F49111E5
:1008B00008C08091E80082FF34C080E00895BC0148
:1008C000F2CF80918E028823C1F18530C1F18091F1
:1008D000E80083FD30C08091E80082FDEACF80917E
:1008E000E80080FFE1CF8091F3002091F200382FE3
:1008F0006115710519F02830310558F091E0283064
:10090000310509F090E02091E8002E772093E8006F
:10091000CBCF81918093F100615071092F5F3F4FE0
:10092000E7CF80918E02882341F0853041F080919D
:10093000E80083FFBECF81E0089582E0089583E060
:10094000089580916B0208959C014FB7F8948091AF
:10095000630290916402A0916502B09166024FBF5C
:10096000821B930B08952FB7F894609163027091E6
:10097000640280916502909166022FBF08952FB79F
:10098000F8948091630290916402A0916502B09105
:1009900066022FBF0895209108012223C9F02091FB
:1009A000670227FF15C0E62FE695E695E695EE313E
:1009B000D8F4E80FF92FF11D677021E030E001C095
:1009C000220F6A95EAF720958281282322830895D1
:1009D000FC01329608962191621303C0DF01119742
:1009E0001C92E817F907B9F708952091080122230E
:1009F000C1F02091670227FF14C0E62FE695E69527
:100A0000E695EE31F8F4E80FF92FF11D677021E05B
:100A100030E001C0220F6A95EAF78281822B82833F
:100A20000895FC0132962FEF30E04191641751F0A8
:100A30002F3F19F4411101C0232F3F5F3630A9F732
:100A40002F3F09F40895820F911D27FD9A95FC010F
:100A500062830895A3E0B0E0E0E3F5E00C941A208F
:100A6000209160023091610228173907A1F090931C
:100A7000610280936002E0915E02F0915F02309724
:100A800051F024E029839B838A830680F781E02D3F
:100A9000CE01019609952396E2E00C943620A3E05E
:100AA000B0E0E5E5F5E00C941A2020915C0230916D
:100AB0005D0228173907A1F090935D0280935C02D4
:100AC000E0915E02F0915F02309751F023E02983BC
:100AD0009B838A830680F781E02DCE0101960995DC
:100AE0002396E2E00C943620E0915E02F0915F02E2
:100AF000309729F00190F081E02D0995089580E06C
:100B000008950E94BF049C0190915802809159025F
:100B1000982B21F0309355022093540290915A0261
:100B200080915B02982B21F0309353022093520264
:100B3000E0915E02F0915F02309749F082E080938D
:100B400056020480F581E02D86E592E0099508952E
:100B50008091510280FD16C081FD16C082FD16C035
:100B6000809150028823A1F0883280F428E0829F8F
:100B7000C001112468E270E00E94E91F862F672BF4
:100B800039F0089582E0089584E0089588E008959A
:100B900081E008958091510280FD14C081FD14C050
:100BA00082FD16C080914F02882381F08E3180F43F
:100BB00020E5829FC00111246EE170E00E94E91FD0
:100BC000862F089584E1089588E2089588E00895C5
:100BD00080E5089580E00895F894E82FE295EF709D
:100BE000F0E031A1282F2F7081E090E001C0880F44
:100BF0002A95EAF7982F9095932391A392A1892B98
:100C000082A3789408959091670292FF06C0282FDE
:100C100028712830F9F4877F846093FF06C0282F5D
:100C200028712831F1F4877E84612091680220FFC9
:100C300006C0382F38713830D9F4877F816021FFA2
:100C400006C0282F28712831D1F4877E816194FD58
:100C5000877E0895282F24712430F9F68B7F8860D1
:100C6000DCCF282F2471243101F78B7E8861DDCF02
:100C7000382F3171313019F78E7F8860E0CF282FFF
:100C80002171213121F78E7E8861E1CF8238910573
:100C9000B9F1B0F48133910509F47DC048F489328B
:100CA000910509F46DC08A32910509F47BC008955D
:100CB0008533910509F45FC08933910509F10895E1
:100CC000833E9105D9F138F4803E910529F1823EA9
:100CD000910579F10895863E9105D9F1873E9105F8
:100CE00009F43EC0843E910541F52091680221FF40
:100CF00024C08091670284FD19C087EE90E00895BA
:100D000020916702237009F05AC02091680223FFE6
:100D100014C089E290E008952091670220FD38C058
:100D20003091680230FF09C024FF43C090E080E0AA
:100D300008952091670222FDF7CF08952091670260
:100D400022FD3AC03091680230FD39C024FFF5CF52
:100D5000EDCF2091670223FFF0CF24FDE7CFCDCF69
:100D60002091670223FD2EC03091680231FFEECF43
:100D700084EE90E008952091670225FFDECFC9CF71
:100D80002091670225FD21C02091680223FFD5CF65
:100D900089E390E0D2CF2091670226FFCECF8AE28E
:100DA00090E008952091670226FFC7CF81E390E08D
:100DB000089583EE90E0089582EE90E0089580EE2D
:100DC00090E0089586EE90E0089585E390E0089520
:100DD0001F93CF93DF930E944606EC01C11580E577
:100DE000D807F0F5C11580E4D80708F09CC0C03ED4
:100DF000D10520F5CD3CD10508F082C0C83AD10517
:100E000078F4C53AD10508F073C0C130D10519F1A5
:100E1000209709F1C430D105F0F4D0E0C0E01BC048
:100E2000C33CD105D0F7C85AD0E0CC0FDD1FC45F5A
:100E3000DE4F0990D881C02DD4640DC0C11580E269
:100E4000D80708F0D1C0C11581E0D80708F05AC012
:100E5000C83ED10510F7CE01DF91CF911F910895C3
:100E6000C03682E5D80718F5C03482E5D80708F007
:100E70006BC0C03282E5D80708F05FC0C11582E5BB
:100E8000D80708F497C02C2F2695269580E2289F36
:100E9000900111248C2F8370C1E0D0E002C0CC0FF0
:100EA000DD1F8A95E2F7C22BD32BDD68D4CFC03A81
:100EB00082E5D80760F4C03882E5D80708F459C045
:100EC000CF71D0E0DC2FCC27C46FD06AC4CFC03C38
:100ED00082E5D80708F462C0C03E82E5D80708F072
:100EE0009CCFDC2FCC27CC27DF71C06FD06AB3CF6B
:100EF000C55AD0E0C75FDE4FC881D0E0D064ABCF29
:100F0000D065A9CF8D2F0E940306182FCE019927F7
:100F10000E944606C12FD0E0DC2FCC27CC27DF7102
:100F2000C82BD92B98CFCE0199270E944606CC27F3
:100F3000DF70C82BD92BD06A8ECFCF71D0E0DC2FD9
:100F4000CC27C16FD06A87CF2C2F26952695277086
:100F500080E2289F900111248C2F8370C1E0D0E0A3
:100F600002C0CC0FDD1F8A95E2F7C22BD32BDC68C1
:100F700072CF2C2F26952695277080E2289F90010E
:100F800011248C2F8370C1E0D0E002C0CC0FDD1F94
:100F90008A95E2F7C22BD32BDA685DCF8C2F8F7145
:100FA0000E940306C82FD0E0DC2FCC27CC27DF71AE
:100FB000D06251CF8C2F8F710E94030655E0D695D9
:100FC000C7955A95E1F7CF70D0E0DC2FCC27282FBA
:100FD00030E084FF05C044E0220F331F4A95E1F75B
:100FE000C22BD32BD06937CF8D2F8F710E94030670
:100FF000182FCE0199270E944606C12FD0E0DC2F82
:10100000CC27CC27DF71C82BD92BD2CF80911D02E2
:10101000811110921D020895809590911C029823D1
:1010200090931C0208952091F9019091C80156E017
:10103000291302C080E0089530E0529FF001539FD1
:10104000F00D1124E753FE4F7181761306C07081B5
:10105000781303C07281741304C02F5F3F4F277051
:10106000E7CF81E008958091F9019091C80198132C
:1010700001C008958F5F8770FACFA82FA77023E073
:10108000969587952A95E1F7FC01EE0FFF1FE80F73
:10109000F91FE60FF71F50E040E080E0219130E0BB
:1010A0000A2E02C0369527950A94E2F7217033275D
:1010B000042E01C0220F0A94EAF7822B4F5F5F4F84
:1010C0004330510559F70895963070F4803198F403
:1010D00040E1949F900111246EE971E0820F932FFB
:1010E000911D0E943D0808959C5F923020F46BE9A9
:1010F00071E090E0F6CF80E00895262F277091E010
:1011000001C0990F2A95EAF723E0769567952A950D
:10111000E1F7FB01EE0FFF1FE60FF71FE40FF51FCE
:1011200050E040E0682F70E08191DF0111979B0152
:10113000042E02C0369527950A94E2F72170219576
:101140002827292328272C934F5F5F4F43305105D1
:1011500059F70895282F862F963068F4203150F4DF
:1011600030E1939FB0011124620F711D4EE951E0EF
:101170000E947D0808959C5F9230E0F7622F70E036
:101180004BE951E0F5CF8093300208959091300201
:1011900021E030E0F90101C0EE0F8A95EAF7D901AC
:1011A00002C0AA0FBB1F6A95E2F7EA2B01C0220F0B
:1011B0004A95EAF7892F8E23E81305C0292B822F41
:1011C0000E94C308089520952923F9CF21E030E03B
:1011D00001C0220F8A95EAF7209580913002822380
:1011E0000E94C30808959091FA0180958923809305
:1011F000FA01282F277091F4282F082E000C330BAA
:101200009217130659F09091680292FF07C08595D6
:10121000859585950E94E6081092FA01089521E0CF
:1012200030E001C0220F8A95EAF780913002822BCC
:101230000E94C308089580932F020895662309F43D
:101240005DC08D3C41F40E94CA058195809359028E
:101250000E94810508958E3C19F40E94CA05F6CFBC
:101260008F3C31F40E94CA05819580935802F0CFDB
:10127000803D19F40E94CA05F8CF893D29F40E94E7
:10128000A80580935A02E4CF8A3D21F40E94A80564
:101290008195F7CF8B3D31F40E94A805819580930D
:1012A0005B02D6CF8C3D19F40E94A805F8CF9FE2CF
:1012B000980F983070F4815D990B21E030E001C007
:1012C000220F8A95EAF780915702822B809357026A
:1012D000BFCF8D3D31F480915102816080935102E6
:1012E000B7CF8E3D21F4809151028260F7CF8F3DC0
:1012F00009F0AECF809151028460F0CF4091580246
:101300008D3C59F48091590287FF0DC0109259020B
:1013100041110BC010924F0208C08E3C81F48091A5
:10132000590218169CF3442381F080915A0290913F
:101330005B02892B09F08CCF1092500289CF8F3C31
:1013400049F447FFF0CF1092580280915902811161
:10135000ECCFE0CF803D19F41416ACF3E4CF9091BC
:101360005A02893D29F41916F4F610925A02DBCF7D
:101370008A3D19F497FFD7CFF8CF90915B028B3D50
:1013800029F497FFD0CF10925B02CDCF8C3D19F49A
:101390001916CCF3C8CF9FE2980F983090F4815D76
:1013A000990B21E030E0B90102C0660F771F8A95E2
:1013B000E2F7CB01809590915702892380935702E1
:1013C000B2CF8D3D31F4809151028E7F80935102D6
:1013D000AACF8E3D21F4809151028D7FF7CF8F3DB2
:1013E00009F0A1CF809151028B7FF0CF0F931F9313
:1013F000CF93DF938B01EA0190918E02943061F5D7
:101400008093E9008FEF9091E800815095FD06C030
:1014100095ED9A95F1F700008111F5CF8091E800E4
:1014200085FF1AC00E946603811111C08091E800F7
:1014300085FD06C08091E8008E778093E800F2CFAA
:10144000F80181918F018093F100219779F78091C4
:10145000E8008E778093E800DF91CF911F910F9184
:10146000089543E050E0BC0184E00E94F60908952D
:1014700046E050E0BC0184E00E94F6090895CF9355
:10148000DF93EC0180910801811111C048E050E028
:10149000BE0181E00E94F60980E2FE01ACE6B2E006
:1014A00001900D928A95E1F7DF91CF910895809197
:1014B000670287FF05C040E284E050E0BE01EACF4A
:1014C00048E081E0FACF81E08093E00080E2809301
:1014D000D8001092C9008FE19EE40197F1F700C097
:1014E000000087E090EBDC0180939B0290939C02CC
:1014F000A0939D02B0939E0288E19CE00FB6F89401
:10150000A895809360000FBE90936000FFCFCF93AB
:10151000DF93C6E3D3E060E0CE010E946320219612
:10152000C11584E0D807B9F7DF91CF9108950F93E3
:101530001F93CF93DF93142F022F8430F0F46111A7
:101540001CC094E0899FE0011124CA5DDC4F82E059
:1015500090E0442311F090E080E0632F8C0F9D1FFA
:101560000E94632083E090E0112311F081E090E07D
:10157000602F8C0F9D1F0E946320DF91CF911F91E0
:101580000F9108951F93CF93DF93122F8430E0F4CF
:101590006630D0F44031C0F490E2699FE00111243C
:1015A00050E0440F551FC40FD51F90EC899FC00D0C
:1015B000D11D1124632FCE0186960E946320612FD6
:1015C000CE0187960E946320DF91CF911F910895ED
:1015D000B0E0A0E0EEEEFAE00C940F2084E7C82E15
:1015E00085E0D82E96E7A92E95E0B92E24E7E22EC5
:1015F00022E0F22EC0E08701D0E014C0F401259172
:101600003491472D6D2F8C2F0E94C20A82E0880EE4
:10161000911C739480E17812F1CF005E1F4FDF5F61
:10162000D63019F04801712CE9CFF601259134919B
:1016300041E060E08C2F0E94970AF50125913491DA
:1016400040E060E08C2F0E94970A84E0C80ED11C15
:10165000CF5F84E0A80EB11C80ECE80EF11CC43012
:1016600009F0C9CFCDB7DEB7EDE00C942B20CF93B6
:10167000C82F6FEF811163E282E290E00E94632045
:101680006FEFC11165E083E290E00E9463206FEF8D
:10169000C11161E184E290E00E946320CF9108953E
:1016A00080E00E94370B60E085E290E00E946320BA
:1016B0000E94E80A0E94870A81E00E94370B089581
:1016C000FF920F931F93CF93DF93F42E843040F556
:1016D000611126C024E0829F800111240A5D1C4F05
:1016E00082E090E0442311F090E080E0800F911FB1
:1016F0000E945520C82FD0E0DC2FCC2783E090E05B
:10170000FF2011F081E090E0800F911F0E94552092
:101710009E01282BC901CDB7DEB7E5E00C9433203C
:1017200090E080E0F8CF0F931F93CF93DF93843046
:1017300030F5663020F5403110F520E2629F8001DF
:10174000112450E0440F551F040F151F30EC839FE8
:10175000000D111D1124C80186960E945520C82F26
:10176000D0E0DC2FCC27C80187960E9455209E012F
:10177000282BC901DF91CF911F910F91089590E01F
:1017800080E0F8CF462F672F763038F4403160F490
:10179000843050F40E94930B08957D3F41F4411131
:1017A00003C041E0843048F090E080E008957C3F41
:1017B000D9F74111F9CF8430B8F760E00E94600B8F
:1017C0000895CF92DF92FF920F931F93CF93DF93F1
:1017D0006C010091300280912F02082BC3E0D0E011
:1017E00010E0FC2EC8010C2E02C0959587950A9436
:1017F000E2F780FD0CC02197A0F7F12C8F2DDF912F
:10180000CF911F910F91FF90DF90CF900895B60177
:101810008C2F0E94C20B0E94E806019761F3EECF65
:10182000CF93DF93EC010E94E10BBE010E94C20B3B
:101830000E94E806DF91CF910895FC018381948195
:10184000892B29F08081918189238F3F51F480E099
:101850000895843FE1F717C0883EA8F0813FB9F7AB
:1018600012C0808191810E94100C92959F709630D9
:1018700099F358F4925F9F70923048F7803F19F0C7
:1018800040F7883E20F781E008959A5FF4CF82E226
:1018900090E00E945520833289F483E290E00E9418
:1018A0005520853059F484E290E00E94552091E063
:1018B000813109F090E0892F8170089580E0FCCF9C
:1018C00080911C0290911B02892B80937A01909148
:1018D0001D029923A1F0892B80937A018091080140
:1018E0008823E1F18091670287FF38C08EE1ECE741
:1018F000F1E090E08150A0F591110E94060840E2CD
:1019000050E06BEF71E08AE791E00E949720892B0D
:1019100021F180E2EAE7F1E0ABEFB1E001900D9256
:101920008A95E1F7E0915E02F0915F023097A9F0AD
:1019300080910801882359F08091670287FF07C0D2
:1019400080917A0180937B0186E080937A01028006
:10195000F381E02D8AE791E00995089586E0C7CFED
:101960002191222339F29F5FC5CF882321F00E9465
:101970000C080E94600C0895882339F090911C0295
:10198000982B90931C020E94600C0895882399F173
:101990009CEF980F913A40F4682F8AE791E00E94FB
:1019A000CB040E94600C089590E2980F983050F498
:1019B000877091E001C0990F8A95EAF7892F0E94FC
:1019C0000C08EFCF9BE5980F933028F490E080E06F
:1019D0000E944F05089598E5980F9B3128F490E0F8
:1019E00080E00E942A05089593E3980F933118F43C
:1019F00060E00E941E090895CF93C82F8823D9F173
:101A00008CEF8C0F813AC8F580910801882311F181
:101A10008091670287FF1EC0EC2FE695E695E6955C
:101A2000F0E0E658FE4F828190E04C2F477021E0B5
:101A300030E002C0220F331F4A95E2F7822393233E
:101A4000892B91F06C2F8AE791E00E94CB040E94D1
:101A5000600C0AC0ECE7F1E082E891E02191C21746
:101A600089F38E179F07D1F76C2F8AE791E00E94C8
:101A7000F5040E94600CCF91089580E28C0F8830AD
:101A800068F4C77021E030E001C0220FCA95EAF780
:101A900080911C02822B80931C02EBCFEBE5EC0FB4
:101AA000E33040F4F0E0E75FFE4F808190E00E9479
:101AB0004F05E1CFE8E5EC0FEB3150F4F0E0EE0F2D
:101AC000FF1FE45FFE4F808191810E942A05D3CFE2
:101AD00083E38C0F833178F661E08C2F0E941E091E
:101AE000CACF1F93CF93DF93182FD0E0C0E0893384
:101AF00011F4C0E5D0E0812F0E94FC0C209739F44E
:101B0000812F0E94C60CDF91CF911F9108958FE91C
:101B10009FE00197F1F700C000002197EFCF0F93EE
:101B20001F93CF93DF93C62FD42F022FFC01828106
:101B30008823A9F060939A020E94BF0490939902AF
:101B400080939802C77081E001C0880FCA95EAF7B8
:101B50000E94BC0CDF91CF911F910F91089580914D
:101B60009A02681332C080919802909199020E9463
:101B7000A404883C910548F510E21D0FCD17B9F07B
:101B800080E28C0F883040F4C77081E001C0880F7C
:101B9000CA95EAF70E94B50C183048F481E09D2FF1
:101BA000977001C0880F9A95EAF70E94BC0C802FAD
:101BB0000E94710D183070F6D77081E001C0880F57
:101BC000DA95EAF70E94B50CC5CFC77081E001C075
:101BD000880FCA95EAF7F6CF9091680292FB222708
:101BE00020F9281779F080FB92F9909368026091B0
:101BF00067027091680284E090E00E94812082E098
:101C00000E94F308089510921C0280910801ECE7ED
:101C1000F1E0882329F18091670287FF21C08EE1DE
:101C2000DF011D928A95E9F790E080E00E944F0560
:101C300090E080E00E942A0510921B020E94600C36
:101C400086E0E6E5F2E0DF011D928A95E9F7109261
:101C50004F0210925002109251020E948105089585
:101C600086E0DECFAAE2B0E0E8E3FEE00C941920C3
:101C700080E992E02091F100DC012D93CD01B2E0EA
:101C800088399B07B9F780919102833009F472C0BB
:101C9000B8F4813009F449C0823009F4B3C08091AE
:101CA000E80083FF8BC280919002909191029A305C
:101CB00008F084C2E92FF0E0EA55FF4D0C94FD1FB7
:101CC0008A3009F48EC08B3009F471C0893039F73D
:101CD00080919002813219F780919402909195023F
:101CE000009711F00297D9F68091E800877F8093E2
:101CF000E8008091E80082FF38C09091F300809165
:101D0000F200029731F48091F100813011F08630B9
:101D100021F48091F10080936B028091E8008B7731
:101D20008093E8000E949703BACF80919002813A95
:101D300009F0B5CF8091E800877F8093E80080911B
:101D4000940290919502892B61F460E28CE692E016
:101D500070E00E9443048091E8008B778093E80054
:101D60009ECF60E090E080E0F3CF80918E02811101
:101D7000C0CF95CF80919002813A09F090CF8091A9
:101D8000940290919502892B09F089CF8091E80007
:101D9000877F8093E8008091E80080FFFCCF8091EE
:101DA00008018093F1008091E8008E77B9CF80918F
:101DB0009002813209F073CF809194029091950244
:101DC000892B09F06CCF8091E800877F8093E80031
:101DD0000E94970380919202809308010E94030E53
:101DE0005ECF80919002813209F059CF8091E80056
:101DF000877F8093E8000E949703809193028093ED
:101E00006A024DCF80919002813A09F048CF8091CB
:101E1000E800877F8093E8008091E80080FFFCCF96
:101E200080916A02BECF803899F0823809F0C6C12D
:101E3000809194028F70873008F0C0C18093E900D0
:101E40008091EB0085FB882780F91092E90006C09D
:101E500080918C0290918D02911182609091E800A6
:101E6000977F9093E8008093F1001092F1008091A9
:101E7000E8008E779FC1882309F48DC1823009F074
:101E80009DC180919202811190C1809194028F70C6
:101E90002FEF280F263008F091C18093E9002091A0
:101EA000EB0020FF82C1933031F48091EB0080621F
:101EB0008093EB007AC19091EB0090619093EB00DE
:101EC00021E030E001C0220F8A95EAF72093EA0072
:101ED0001092EA008091EB008860EACF81116EC118
:101EE000109192021F778091E3008078812B80937C
:101EF000E3008091E800877F8093E8000E949703C9
:101F00008091E80080FFFCCF8091E300806880939F
:101F1000E30082E0111183E080938E024FC180586C
:101F2000823008F04BC120919202309193022C3DF7
:101F3000E3E03E07A1F583E08A838AE289834FB715
:101F4000F894DE01139620E03EE051E2E32FF0E04A
:101F500050935700E49120FF03C0E295EF703F5F7C
:101F6000EF708E2F90E0EA30C0F0C7968D939D936E
:101F70002F5F243159F74FBF8091E800877F80930E
:101F8000E8006AE270E0CE0101960E94430480916D
:101F9000E8008B778093E80011C1C096E7CF80916D
:101FA000940290919502432F55274330510509F42F
:101FB0004AC078F54130510509F47AC08BE590E0CC
:101FC000E4E8F5E04230510509F0F8C02091E8005E
:101FD000277F2093E8002091960230919702821784
:101FE000930708F49C0140E02115310509F065C014
:101FF000411163C08091E80082FDC9CF80918E02BB
:10200000882329F2853019F28091E80083FFF2CF0E
:10201000BECF4132510509F43CC04232510509F0AE
:10202000CDC08330910508F0C9C0FC01EE0FFF1F41
:10203000E559FE4F0190F081E02D88599E4FDC015B
:102040008C9190E01AC0332721303105D1F0211551
:10205000310561F02230310509F0B0C0E1EFF5E063
:10206000E4918E2F90E0E1EFF5E007C0E5E1F6E0C6
:10207000E4918E2F90E0E5E1F6E0009709F49EC030
:10208000A5CFE3E0F6E0E4918E2F90E0E3E0F6E008
:10209000F4CF8330910508F091C0880F991FFC019F
:1020A000EF58FE4F0190F081E02D89E090E08ECF57
:1020B00082E190E0EFEDF5E089CF80918E028823F8
:1020C00009F465CF853009F462CF8091E80083FD83
:1020D0005ECF8091E80082FD8DCF8091E80080FF87
:1020E00083CF9091F3008091F2002115310519F012
:1020F0008830910550F041E0089709F040E0809168
:10210000E8008E778093E8006FCF44914093F10010
:102110003196215031090196E8CF803809F04EC040
:102120008091E800877F8093E80080918F02809300
:10213000F1009DCE811142C0109192021230F0F553
:102140008091E800877F8093E80010938F020E94BF
:102150009703112311F084E005C08091E30087FD0F
:10216000FACF81E080938E0242E061EC81E00E9430
:10217000B60342E261EC84E00E94B60342E261EC05
:1021800082E00E94B60342E260EC83E00E94B60364
:1021900080918E0213C080919202813079F481E0A7
:1021A000933009F080E080938D021092E9008091D5
:1021B000E800877F8093E8000E9497038091E80001
:1021C00083FF0AC08091E800877F8093E8008091B8
:1021D000EB0080628093EB00AA96E3E00C9435203C
:1021E0000E94030E2FEF84E39CE02150804090403A
:1021F000E1F700C0000088E19CE00FB6F894A895D4
:10220000809360000FBE90936000FFCFA8E0B0E025
:10221000ECE0F1E10C940C208C01DC0113968D9123
:102220009C911497892B39F08C9111969C9189235C
:102230008F3F09F0DFC42896E0E10C9428200E942B
:10224000E10BF82E682F89819A810E94AA08698182
:102250007A818F2D0E94C20B7C01F8018281882334
:1022600009F43BC1C70197578038910508F0FCC4B9
:10227000FFE0FE1508F489C08FEF93E00E9455201F
:10228000811183C066E3A62E63E0B62EE11047C03D
:10229000FE01339686E0DF011D928A95E9F75AE048
:1022A000452E7501BFEFEB1AFB0AC5010E945520B0
:1022B00089831A82882309F468C0813009F078C0C4
:1022C0006501E2E0CE0ED11CC7010E9455208A8331
:1022D000882309F45AC09FEF980F933070F5F3E00C
:1022E000AF0EB11CC6010E9455208B83882309F4D0
:1022F0004CC01C82DE0111967D01F7012081222352
:1023000081F2213009F094C091818281913009F0ED
:1023100051C0F2E0EF0EF11C0E94710D52C0A114E9
:1023200024E0B20691F1C5010E945520811101C03F
:10233000EA943FEFA31AB30AA9CF56018430D1F62D
:1023400042E0E42EF12C56012FEFA21AB20AC60188
:102350000E945520E1E0F0E0EC0FFD1FEE0DFF1DA7
:102360008083882391F08C3741F4E2E0F0E0EC0FB9
:10237000FD1FEE0DFF1D1082BDCF3FEFE31AF30AE4
:10238000650187E0E816F104F1F68091FA018770A3
:1023900009F451CFD80112968C91882309F44BCFC0
:1023A0008091680282FF47CF82E00E94F30843CF0A
:1023B0005701A0CF923049F422E0E20EF11C0E94B6
:1023C000FC0CEFEFEE1AFE0A98CF933031F432E0B6
:1023D000E30EF11C0E94C60CF4CF943021F08FEF75
:1023E000E81AF80AEECF92E0E90EF11C30E020E0A6
:1023F000B7016F5F7F4FD70111964C918053990BB6
:102400008A30910550F021503109D8F2EFE9FFE010
:102410003197F1F700C00000F6CF429EF001439ED5
:10242000F00D11249C012E0F3F1F842F7B01E0CF64
:10243000E22FF0E0EC50FE4F5490822F8695869567
:10244000869590E0FC01EC51FE4F64902770712C52
:10245000022E02C0759467940A94E2F731E0632279
:102460007724FC01EC52FE4F8490912C022E02C086
:10247000959487940A94E2F7A1E08A229924FC01BA
:10248000EC53FE4FC490D12C02C0D594C7942A952A
:10249000E2F7B1E0CB22DD246114710419F081EE82
:1024A0000E94FC0C8114910419F086EE0E94FC0C31
:1024B000852D0E94710D8114910419F086EE0E9401
:1024C000C60C6114710419F081EE0E94C60CC1148F
:1024D000D10409F476CF8CE21FCFF701E851FC4715
:1024E000E730F10508F0B1C3E055FF4D0C94FD1F36
:1024F00026E241EE61EEC8010E948F0D46CF27E231
:1025000045EE65EEF8CF26E241EE60EEF4CF27E22D
:1025100045EE64EEF0CF26E241EE62EEECCF27E22C
:1025200045EE66EEE8CF28E241E0EBCF809167020E
:1025300081608093670295C0809168028860809373
:1025400068028FC0809167028260F3CF809167023A
:102550008460EFCF809167028860EBCF8091680242
:102560008160EDCF809168028260E9CF809167023F
:102570008061DFCF809167028062DBCF809167024C
:102580008064D7CF0E94030E809167028068D1CF0C
:10259000809167028C60CDCF809168028360CFCF3D
:1025A000809167028E7FC5CF80916802877FC7CFF9
:1025B000809167028D7FBDCF809167028B7FB9CFFD
:1025C00080916702877FB5CF809168028E7FB7CFF9
:1025D000809168028D7FB3CF809167028F7EA9CFF3
:1025E000809167028F7DA5CF809167028F7BA1CFFD
:1025F0000E94030E809167028F779BCF80916702C4
:10260000837F97CF809168028C7F99CF80916702FA
:1026100082FB992790F921E0922790FB82F990FBA9
:1026200083F987CF80916802982F909591708E7F63
:10263000892B90FB81F983CF90916702892F8F7B43
:1026400096FF806476CF0E94030E90916702892FD7
:1026500097FB87F980586DCF61E08EE090E00E9493
:102660006320609167027091680284E090E00E94AC
:1026700081200E94030E89CE60E0EFCF9091670227
:10268000892F8F7E94FF806154CF90916702892FAC
:102690008E7F90FF81604DCF90916802892F877F58
:1026A00093FF88604CCFF7E7EF16FCE7FF0609F4CD
:1026B0006AC028E7E2162CE7F20609F471C033E09D
:1026C000E3163CE7F30609F48CC008F06BC0E11494
:1026D0009CE7F90609F478C0A1E0EA16ACE7FA062F
:1026E00009F485C0F8018281E080F180882309F433
:1026F0008CC0C7010E94E10BD82E682FC7010E9431
:10270000AA08B7018D2D0E94C20B0E94E8067C0129
:10271000882ED8011296AC90129715969C909294A0
:102720003FE093228091FA018770F1F0CA2CAA2031
:10273000E1F08F2D807F803451F080E28E0D883063
:1027400098F0911004C08F2D807E803269F08091C6
:10275000680282FF09C082E00E94F3088091FA01BA
:102760008770CC24C3948111C12CBF2CB2942FE06C
:10277000B222BBE0BB1508F4B7C0EB2DF0E0E95482
:10278000FF4D0C94FD1F81E00E940F0943E062E0C1
:1027900081E00E94C608F9CD81E00E94E608F6CFEC
:1027A00082E0F2CFBBE5EB16BCE7FB0661F1ECE59E
:1027B000EE16ECE7FE06E9F0FAE5EF16FCE7FF0699
:1027C00009F090CF81E01CC00E94030E2FEF34E38C
:1027D0008CE0215030408040E1F700C000000E94B2
:1027E000630A6FEF7FEF90E080E00E9481200E94FB
:1027F000F0108091680282FB882780F991E0892798
:102800000E94EC0D6FCF80E0FBCFC7010E946408EF
:10281000D82E77CFEF2DEF70DE2E8F2D807F19F021
:10282000D29490EFD922AA20B9F0DD2069F080E29D
:102830008E0D883010F0811009C080911C02D82ABA
:10284000D0921C020E94600C8E2D4CC080911B0205
:10285000D82AD0921B02F6CF8E2D0E94C60CDD2006
:1028600009F442C080E28E0D883010F0811004C05F
:102870008D2D0E940C0806C0D09480911B02D82296
:10288000D0921B020E94600C2FC0FF2DFF70DF2E24
:102890008F2D807F803219F0D29480EFD82288204B
:1028A00089F021E0821609F46CC0AA2009F476C0F0
:1028B000992009F46CC0F801858180FFC5CF8F7025
:1028C000858365C02091680222FD34C0AA2061F191
:1028D000DD2039F080911C02D82AD0921C020E947F
:1028E000600C80E00E94FC0CAB2DA850BB0B149731
:1028F00010F40E947405CC2009F49DCC8091FA015B
:1029000080FD99CCF80112828595859585950E9468
:102910000F09C8010E9406118091FA0185958595DD
:1029200085950E94E60887CC80E00E94C60CDD20D9
:10293000D9F29ECFAA2099F090911D028D2D892B5E
:10294000911003C00E94BC0CCFCF31E09312FACF9C
:1029500022FFCACF891741F280931D02C5CF911083
:1029600006C00E9406088D2D0E94B50CBDCF81E0E7
:10297000981609F4B9CF8D2D0E94B50C0E94060857
:10298000B3CFAA2031F095E0991508F4ADCF8D2D85
:10299000D9CFA4E0A91508F4A7CFE5CF992019F362
:1029A000F9E38F1209C02FEF37EE83E0215030405A
:1029B0008040E1F700C000008E2D0E94C60C94CF2D
:1029C0008F2D86958695837061F0813009F08CCFCC
:1029D000C7019370A11002C080E090E00E942A0518
:1029E00083CFC7019370A11002C080E090E00E94E5
:1029F0004F057ACF6A2D8E2D0E941E0975CF8F2D1F
:102A0000837091F5A11070CF4E2D42954695477079
:102A1000440F440F8E2D8F70042E01C0880F0A942E
:102A2000EAF72E2D2071E4FE07C02FE030E001C050
:102A3000220F4A95EAF720953F2D3695369533704B
:102A4000323069F050F440912F02313029F0822B5E
:102A500084230E941B0948CF842B822BFACF282B7A
:102A600080912F028227F5CF8695AA2011F08F2D15
:102A70008170882309F438CF4E2D429546954770D2
:102A8000440F440F8E2D8F70042E01C0880F0A94BE
:102A9000EAF72E2D2071E4FE07C02FE030E001C0E0
:102AA000220F4A95EAF720953F2D369536953370DB
:102AB000323069F050F440913002313029F0822BED
:102AC00084230E94C30810CF842B822BFACF282B9B
:102AD000809130028227F5CF9F2D9F70F92EAA207A
:102AE00029F0892F0E940F098E2D2CCF8E2D0E9448
:102AF000B50C8F2D0E94E608F7CE8E2DA2EF8A1618
:102B0000B1F1A81570F0B0EF8B16D1F0E1EF8E1691
:102B100091F0AA2009F45EC0911096CE8F2D8F718E
:102B20002AC0F3EF8F1651F124EF8212F2CF809179
:102B3000680282FD2FC08F2D8F71AA20D9F21BC091
:102B4000AA2081F034E0391508F4CECE2F2D2F7154
:102B500081E090E001C0880F2A95EAF79091300259
:102B60008927AFCF85E0891508F4BECEEFCF8F2D32
:102B70008F71A110BFCF0E940F09B6CE80E0AA20AE
:102B800009F49FCF9F2D9F7181E001C0880F9A9516
:102B9000EAF797CFAA2099F09F2D9F71F92E892FE0
:102BA0000E940F098091680282FF07C0A8E0FA9E88
:102BB000C001112483608093FA018F2DDCCF81E066
:102BC0000E94F308B1E0B91508F08ECE82E00E94B1
:102BD000F3088ACE992059F0893309F0EDCEEFEF52
:102BE000F7EE23E0E150F0402040E1F7E3CE8F2DF7
:102BF0008F7180CF85E0F801DE01119601900D9272
:102C00008A95E1F7D80112962C9189819A81211138
:102C100016CB0E946408F82E1ACBB6E1EB16BCE77F
:102C2000FB0609F040CD80911C028A7A91E009F4FC
:102C300090E090939A0169E2811165E38AE791E05F
:102C40000E94F5040E94600CA0CBE6E1EE16ECE7D2
:102C5000FE0651F580919A0169E2811165E38AE7E8
:102C600091E00E94CB04EECFF701E851FC47E7303A
:102C7000F10508F439CC10929A02C7019057839756
:102C800060F684E090E00E945D209093680280935B
:102C90006702F701E150F047E232F10508F046CC57
:102CA000ED53FF4D0C94FD1FF7E7EF16FCE7FF0611
:102CB00009F472CD82E028E7E2162CE7F20609F467
:102CC0006CCD10CD1F93CF93DF938091C701807F90
:102CD00009F04BC08091C401882309F446C080915B
:102CE000F901C091C8014091C2015091C3016091A6
:102CF000C5017091C601D42FD52316E0C817A9F1DC
:102D000090E061157105A9F1DF3F99F1189FF0017D
:102D1000199FF00D1124DF01A753BE4F11962C917E
:102D20001197251326C02C91241323C012962C91A1
:102D3000129721111EC013962D913C91261B370B23
:102D4000283C3105B0F48091C7018F708061809379
:102D5000C701E253FE4F80818F708061808382ECD7
:102D600091E00E9406110E943308DF91CF911F91DC
:102D7000089501968770C2CFA1E1B0E0E2ECF6E1E0
:102D80000C9410208C0185E0F801DE011D96019065
:102D90000D928A95E1F7F801E28082EC882E81E0BD
:102DA000982E4091C5015091C6014115510509F475
:102DB00030C19091C2012091C301892F82238F3F9E
:102DC00009F427C1D080C180A380B480F090C401F1
:102DD000B501641B750BFF2009F4E7C08091C701A2
:102DE000382F307F683C710508F0ABC0311178C0D6
:102DF000FE2C2C1114C09D1112C0E11010C08F7058
:102E000080618093C701C4010E9406118091C701AF
:102E1000F80185838F2D6196ECE00C942C20A11491
:102E2000B104C9F18D2D8C218F3FA9F181E08E2550
:102E300080FF05C04E2D6C2D8D2D0E941308A1140E
:102E4000B10459F18D2D8C218F3F39F181E08E2510
:102E5000F82FF170BF2E80FF39C04E2D6C2D8D2DB7
:102E60000E941308A82E811131C0DD86CE868D8583
:102E70009E850E94100C292F22952F70243078F403
:102E80009F702230A8F09923B9F0F8019581907FC6
:102E900099F4FA2CBFCF80E0CBCF80E0D9CF2A5F66
:102EA0002F70223068F0C8010E940611AB2CF1CFC0
:102EB000992311F0882369F3805E883050F3F3CFB3
:102EC000803F38F3815F833070F7E3CFEE2009F461
:102ED000A1CF8091C70181608093C701F12C9ACF67
:102EE0002C1105C09D1103C0EE2009F477C0C80164
:102EF0000E941D0C882309F1EE20F9F08091C70192
:102F0000803270F02091C2013091C30138872F8345
:102F10001986BB86AA868C87CE0107960E94061169
:102F200086E0F801A2ECB1E001900D928A95E1F7FC
:102F30000E946216FF24F3946DCFC8010E9406110F
:102F4000F9CF31110AC082EC91E00E94061186E0AF
:102F5000F40111928A95E9F7C1CF2C110EC09D1191
:102F60000CC0E1100AC08583C8010E94061186E0EA
:102F7000F40111928A95E9F74DCFC8010E941D0C0A
:102F80008823D9F2EE20C9F28091C701803240F245
:102F90002091C2013091C3013A8329831B82BD82F3
:102FA000AC828E83CE010196B9CF683C7105F8F6EC
:102FB000FE2CEE2011F22C111EC09D111CC0809120
:102FC000C70180FD0FC0982F907F61F08583903FEF
:102FD00031F0982F907F905F8F70892B8583C80187
:102FE0000E94061186E0F801A2ECB1E001900D927A
:102FF0008A95E1F70FCFC8010E941D0C811190CF77
:103000008091C70181608093C701C8010E940611A9
:1030100001CFEE2009F491CFC8010E941D0CF82EBB
:10302000882309F48ACF86E0F801A2ECB1E0019090
:103030000D928A95E1F78091C2019091C3010E949F
:10304000100C0E946216E6CEA7E1B0E0EAE2F8E1D9
:103050000C9419204B8B5C8B6D8B7E8B8F8B61114D
:1030600010921B021A8A198A85E0FE017396DE010E
:103070001D9601900D928A95E1F786E0FE013D963E
:10308000DE01179601900D928A95E1F7CE01079621
:103090000E94BC16882359F016E08091F9019091A6
:1030A000C801891343C06796E3E00C94352086E09D
:1030B000FE013796DE01119601900D928A95E1F797
:1030C0008A859B85892B41F38F81988589238F3F42
:1030D00019F32091C80130E0C90101968770992742
:1030E0004091F9014817190671F40E94030E1092DD
:1030F000C8011092F90186E0E2ECF1E0DF011D92D7
:103100008A95E9F7C9CF96E0929FD001939FB00DC1
:103110001124A753BE4FFE01319601900D929A954E
:10312000E1F78093C8010E943308B6CF819FC001A8
:10313000112487539E4F0E94BC16882309F4B3CFF5
:103140008091F90190E00196877099278093F901A9
:10315000A4CFA5E0B0E0EFEAF8E10C9418200E94BB
:10316000BF048C0180911E0290911F02801791076D
:10317000A1F08FEF89838A831B820E94BF04816044
:10318000782F9D838C8349815A816B818D810E9428
:10319000241810931F0200931E022596E4E00C945D
:1031A0003420ACE0B0E0E7EDF8E10C9410208E01A3
:1031B0000F5F1F4F8CE0F80111928A95E9F792E4B6
:1031C000E92E91E0F92E6801AA24A394B12CF7010D
:1031D00081917F018F3F09F446C0F894E82FE29572
:1031E000EF70F0E021A18F70A50102C0440F551FC0
:1031F0008A95E2F7CA01922F982B91A392A180950C
:10320000892382A3789400C0E8E4F1E021E030E073
:10321000912C812C41914F3F09F467C0A42FA295B6
:10322000AF70B0E090968C9190E04F7002C0959591
:1032300087954A95E2F780FD58C0C901882A992AE6
:10324000220F331F51E0E835F50721F7F7013197D9
:1032500080818F3F11F00E94EC0580EA8A95F1F79A
:10326000F60191828082F2E0CF0ED11C48E4E41690
:1032700041E0F40609F0ABCF4CE050E0B80183E246
:1032800092E00E949720892B99F18CE0F801A3E24B
:10329000B2E001900D928A95E1F781E080932202DD
:1032A0000E94BF049093210280932002809120020B
:1032B000909121020E94A4040597F0F04CE050E0A8
:1032C00063E272E083E492E00E949720892BC9F0C8
:1032D0008CE0E3E2F2E0A3E4B2E001900D928A9583
:1032E000E1F781E01092220208C090E080E0A6CFD2
:1032F000809122028111DACF80E02C96ECE00C94D0
:103300002C2080E0EFCF1F920F920FB60F92112466
:103310002F933F934F935F936F937F938F939F93DD
:10332000AF93BF93CF93DF93EF93FF93D091E900D7
:10333000DF708091EC00C82FC17080FDC0E8109252
:10334000E9008091F000877F8093F00078940E94DC
:10335000320E1092E9008091F00088608093F000B6
:10336000CD2BCF70C093E900FF91EF91DF91CF910A
:10337000BF91AF919F918F917F916F915F914F918D
:103380003F912F910F900FBE0F901F9018951F9295
:103390000F920FB60F9211242F933F934F935F9389
:1033A0006F937F938F939F93AF93BF93EF93FF930D
:1033B0008091E10082FF09C08091E20082FF05C098
:1033C0008091E1008B7F8093E1008091DA0080FFA3
:1033D00024C08091D80080FF20C08091DA008E7FC9
:1033E0008093DA008091D90080FF9DC080E189BD83
:1033F00082E189BD09B400FEFDCF81E080938E0299
:1034000080916902811109C00E9447030E94E8036C
:103410008091E20084608093E2008091E10080FF6F
:1034200017C08091E20080FF13C08091E2008E7F80
:103430008093E2008091E20080618093E2008091BD
:10344000D80080628093D80019BC85E080938E02FA
:103450008091E10084FF2BC08091E20084FF27C0AF
:1034600080E189BD82E189BD89B5982F917080FF87
:10347000FBCF8091D8008F7D8093D8008091E100B0
:103480008F7E8093E1008091E2008F7E8093E20046
:103490008091E20081608093E20080918F02882316
:1034A00009F447C084E080938E0280918E0280915F
:1034B000E10083FF27C08091E20083FF23C0809159
:1034C000E100877F8093E10082E080938E0210927A
:1034D0008F028091E1008E7F8093E1008091E20075
:1034E0008E7F8093E2008091E20080618093E20011
:1034F00042E060E080E00E94B6038091F0008860C6
:103500008093F000FF91EF91BF91AF919F918F91C8
:103510007F916F915F914F913F912F910F900FBECF
:103520000F901F90189519BC10928E02109269028C
:1035300074CF8091E30087FD93E090938E02B5CF26
:1035400078941F921FB61F9211248F939F93AF936D
:10355000BF938091630290916402A0916502B09143
:1035600066020196A11DB11D8093630290936402CF
:10357000A0936502B0936602BF91AF919F918F9126
:103580001F901FBE1F9018951F921FB61F921124E7
:103590008F939F93AF93BF9380916202811113C069
:1035A0008091630290916402A0916502B0916602DD
:1035B0004196A11DB11D8093630290936402A09374
:1035C0006502B0936602BF91AF919F918F911F905A
:1035D0001FBE1F901895CDB7DEB7E9970FB6F894C8
:1035E000DEBF0FBECDBF85B7806885BF85B7806859
:1035F00085BF84B7877F84BF0FB6F894A895809164
:103600006000886180936000109260000FBE80E8C7
:1036100090E00FB6F89480936100909361000FBE24
:103620008AEE95E090937901809378010E94470398
:103630000E94E8038091E20084608093E200789425
:1036400080918E028823A1F01091E9001F70909163
:10365000EC00892F817090FD80E8182B1092E90012
:103660008091E80083FD0E94320E1F701093E900E4
:1036700082E084BD93E095BD9AEF97BD80936E0084
:103680000E94470C811102C00E94500B81E0809380
:10369000400254985C9A56985E9A8FE891E00197A0
:1036A000F1F700C000002091400241E452E0FA012D
:1036B0008E2F841B821708F4C1C002E411E098E445
:1036C000E92E91E0F92ED8018D918D018F3F11F0F7
:1036D0000E94EC05E016F106B1F708E411E088E578
:1036E000E82E81E0F82EF80181918F018F3F11F0D3
:1036F0000E94EC05E016F106B1F78CE0E3E4F2E09D
:10370000DF01282F1D922A95E9F7E3E2F2E0DF01BD
:103710001D928A95E9F790E080E00E945D20873E47
:103720009E4F21F40E94470C811161C067EE7EEF2D
:1037300090E080E00E94812060E082E090E00E94C2
:10374000632060E083E090E00E94632010922F02EB
:1037500060E074E184E090E00E94812060E086E017
:1037600090E00E9463206FEF87E090E00E9463206A
:1037700040E050E0BA0188E090E00E94752060E0EF
:103780008DE090E00E94632040E050E0BA0188E1C3
:1037900090E00E94752060E087E190E00E94632045
:1037A00040E050E0BA018CE190E00E94752070E0AA
:1037B00060E080E290E00E94812040E050E0BA01A9
:1037C00088E190E00E94752080E00E94370B0E9403
:1037D000500B40E050E0BA018FE090E00E9475206D
:1037E00040E050E0BA0183E190E00E94752082E061
:1037F00090E00E9455208093310284E090E00E9486
:103800005D2090936802809367020E94D118EFEFC9
:10381000F6E721E0E150F0402040E1F700C0000071
:103820000E94D1188091430280FF13C06FEF7FEF99
:1038300090E080E00E9481200E94630A89B1829515
:1038400081704E9904C090E0892B819331CF92E032
:10385000FBCF83E090E00E9455200E941B0980E08E
:1038600091E090935F0280935E02BFE44B2EB2E042
:103870005B2E14E0612E712C80918E0200E112E12A
:10388000853009F48FC00E94D118F2E3AF2EF2E028
:10389000BF2EA3E48A2EA2E09A2E4EE352E0D4017A
:1038A000F501219131918D919D914E175F0709F49A
:1038B00083C028173907A9F3312CF4010191119124
:1038C0004F01D501CD90DD905D01C016D10659F1B3
:1038D000C026D126212CEE24E394F12CC6018E21A2
:1038E0009F21892BB1F02DAA3EAA21E0C8018E218B
:1038F0009F21892B09F420E02FAB0E94BF04816037
:10390000782F99AF88AF4DA95EA96FA989AD0E94A4
:1039100024182394EE0CFF1CB0E12B12DFCFF5012D
:103920003297118300833394E6E03E12C6CF0E94A3
:10393000B30448C080918E02843021F1109262025B
:1039400088E190E0A0E40FB6F894A8958093600019
:103950000FBEA093600083B7817F846083BF83B76D
:10396000816083BF7894889583B78E7F83BF0FB6BD
:10397000F894A8958091600088618093600010920F
:1039800060000FBE80918D02882361F00E94D118E3
:10399000E3E4F2E081919191892B09F0F1C24E1696
:1039A0005F06C1F780918E02853009F4C3CF0E9473
:1039B000030E0E94740567CF2817390709F07CCFE2
:1039C0000E94A918D12CC12C5DEFB52EAA24A39476
:1039D0006CEF962E80914002D81608F40DC1C110EC
:1039E0000E94B30486E0E6E5F2E0DE011196019064
:1039F0000D928A95E1F71092580210925902109296
:103A00005A0210925B028B819C81892B09F44AC077
:103A100080915402909155020E94A4049C019091BF
:103A20004F02992309F4D0C225313105D8F19F3FC7
:103A300019F09F5F90934F021B81112359F00E9450
:103A4000CA059FEF11160CF491E0899F802D112477
:103A5000809358021C81112359F00E94CA059FEFE0
:103A600011160CF491E0899F802D11248093590246
:103A7000309158023323B1F020915902222391F062
:103A800045EB3403C0011124992309F437C1909305
:103A9000580245EB240390011124332309F432C169
:103AA000309359028D819E81892B09F44AC08091FF
:103AB0005202909153020E94A4049C0190915002E2
:103AC000992309F47CC221353105D8F19F3F19F0C3
:103AD0009F5F909350021D81112359F00E94A80509
:103AE0009FEF11160CF491E0899F802D1124809393
:103AF0005A021E81112359F00E94A8059FEF11164A
:103B00000CF491E0899F802D112480935B02309109
:103B10005A023323B1F020915B02222391F045EB4E
:103B20003403C0011124992309F4F0C090935A0280
:103B300045EB240390011124332309F4EBC03093A7
:103B40005B0246E050E0BE016F5F7F4F86E592E08A
:103B50000E949720892B61F480915802909159021C
:103B6000892B90915A02892B90915B02892B11F03D
:103B70000E94810586E0FE013196A6E5B2E0019043
:103B80000D928A95E1F70E9474059091420289177F
:103B900021F0809342020E94B30480918E0284300F
:103BA00009F06ACE83E08093E9008091E80082FF0B
:103BB00063CE8091E80090E085FF0CC00E94660310
:103BC00040E2E42EF12C8E010F5F1F4F882309F491
:103BD000AFC091E08091E8008B778093E800992353
:103BE00009F44ACEE981E150E53108F0BAC0F0E0CD
:103BF000EB51FF4D0C94FD1FED2CF12CE9B1E2953A
:103C0000E1704E9979C080E08E2BD701AF5BBD4F3C
:103C1000EC919E2F9370891709F46CC0EE0FEE0F94
:103C2000E82BEC93EF70F0E0E85AFE4F8701015C5F
:103C30001D4F8081D8019C91890F8C9320E08430A6
:103C40002CF1F701E25CFD4F80818F5F80830E9441
:103C5000BF04DBA69CA6ADA68160782F9FA78EA788
:103C60004D2D5CEF61E08FA50E9424180E94BF04D7
:103C7000D8AA99AA1AAA8160782F9CAB8BAB4D2D3C
:103C80005CEF60E08CA90E94241821E0F80180819B
:103C90008D3F2CF5F701E25CFD4F808181508083E0
:103CA0000E94BF04D9A2BAA2ABA28160782F9DA3C3
:103CB0008CA34D2D5DEF61E08DA10E9424180E9420
:103CC000BF04DEA2BFA218A68160782F9AA789A799
:103CD0004D2D5DEF60E08AA50E94241821E0D801F7
:103CE0008C91082E000C990BB3010E94E91FF8017A
:103CF0008083C22AD3946ECE82E086CF81E0809307
:103D00005802C7CE81E080935902CCCE81E08093E7
:103D10005A020ECF81E080935B0213CF8091F100B5
:103D2000D8018D938D01B1E0EB1AF10809F451CF60
:103D30008091E80085FDF2CF8091E8008B77809339
:103D4000E8000E946603882399F343CF1A828CE02F
:103D50008B831BC08A81823009F428C128F481300A
:103D600061F08FEF898311C08330C1F08430C9F7CF
:103D70001B821C821D821E8208C00E94B3040E9406
:103D800003206B837C838D839E8340E250E0BE01E1
:103D90006F5F7F4F82E00E94F6096ECD2B81822FEC
:103DA00090E0FE013196225F8630910570F7DC01CC
:103DB000AA0FBB1FAD5BBD4F3C9111964C91438345
:103DC0003483019632962813EFCFDFCF8A81823079
:103DD00019F08530D1F2C5CF6B817C818D819E81B8
:103DE0000E94032085E290E00E946320CECF4C81A8
:103DF0006B818A810E94930B9827892798279E833D
:103E00008D83C3CF2D813E813227232732274C81DA
:103E10006B818A810E94C20AB8CF0E94E80AB5CF9E
:103E200080E18A83B2CF1A828AEC92CF0A811B8109
:103E3000102701271027FE0131967F01CC80CF018A
:103E40008C0D911D6C01C8018A5C9C4FEC14FD0423
:103E500009F49BCF0A3C110558F40E945520D70164
:103E600014968C930F5F1F4FFFEFEF1AFF0AEBCFF3
:103E7000F7011482F7CF0A811B8110270127102731
:103E8000CE0101966C01EC80E00EF12EF11CC80110
:103E90008A5C9C4FE016F10609F477CF0A3C1105C5
:103EA00028F4D60114966C910E946320BFEFCB1AC0
:103EB000DB0A0F5F1F4FEBCF0E94870A66CF84E0BB
:103EC000B0CF0A811B81102701271027FE013196F0
:103ED0007F01CC80CF018C0D911D6C01C8018696AD
:103EE000CE14DF0409F451CF0115A3E01A0750F4F2
:103EF0000E945520F70184830F5F1F4FBFEFEB1A1D
:103F0000FB0AECCFD70114961C92F6CF0A811B81D5
:103F1000102701271027FE0131966F01EC80E00E7B
:103F2000F12EF11CC8018696E016F10609F42DCF9A
:103F30000115F3E01F0728F4D60114966C910E9436
:103F40006320BFEFCB1ADB0A0F5F1F4FEBCF41E0BF
:103F50008C81811101C040E06B818A810E94600BDD
:103F60004BCF2D813E8132272327322741E08C81A0
:103F7000811101C040E06B818A810E94970A05CFC0
:103F800009BD19BD09B400FEFDCF8091D8008F7D19
:103F90008093D8008091E00082608093E00080915F
:103FA000E00081FDFCCF0E94030EFCCC85E290E096
:103FB0000E9455201B821C821D828E83E6CE2B30F0
:103FC000310508F085CDBDCD2B30310508F031CD60
:103FD00069CD97FB072E16F4009407D077FD09D022
:103FE0000E94412007FC05D03EF4909581959F4F9B
:103FF0000895709561957F4F0895EE0FFF1F05900E
:10400000F491E02D09946927962769277827872757
:10401000782708952F923F924F925F926F927F92EE
:104020008F929F92AF92BF92CF92DF92EF92FF92C8
:104030000F931F93CF93DF93CDB7DEB7CA1BDB0B74
:104040000FB6F894DEBF0FBECDBF09942A88398819
:1040500048885F846E847D848C849B84AA84B98420
:10406000C884DF80EE80FD800C811B81AA81B9812C
:10407000CE0FD11D0FB6F894DEBF0FBECDBFED0140
:104080000895AA1BBB1B51E107C0AA1FBB1FA6179F
:10409000B70710F0A61BB70B881F991F5A95A9F7F1
:1040A00080959095BC01CD010895F999FECF92BD00
:1040B00081BDF89A992780B50895A8E1B0E042E063
:1040C00050E00C948920262FF999FECF92BD81BD36
:1040D000F89A019700B4021639F01FBA20BD0FB646
:1040E000F894FA9AF99A0FBE08950396272F0E9422
:1040F00064200E946320252F0E946420242F0C94AA
:1041000064200196272F0E9464200C946320DC0118
:10411000CB01FC01F999FECF06C0F2BDE1BDF89AD2
:10412000319600B40D9241505040B8F70895FB010C
:10413000DC0104C08D910190801921F44150504060
:10414000C8F7881B990B0895F894FFCF130F3B0F06
:10415000DE103B0FDE106E0F8F0FDE108D109A10E9
:104160008312871278127F128B128F1293120A1405
:104170000A1445144514E014FA1474147414FF144A
:104180006C157D157D15D0124513D812A212A612FA
:10419000DC12AA12E012EC12B6123E13BA12F0129E
:1041A000BE12F4121C13C212F8122313C812FE120C
:1041B0000613AE12E412B212E812CC12021312135A
:1041C0002C133C139C12D4124C13A61EAA1EE61EDE
:1041D000F71E021F0D1FB11EB11EB11EB11EB11E72
:1041E000101F131F161F3B1F5C1F5F1F611F861FC1
:0441F000A71FB11F35
:1041F400A1043F0A380A310A01818283E200E900FE
:10420400EA00B500B600B700CD008301CC008A01F6
:10421400920194012102230224022502260227028C
:104224002A02B300B4006F0070009F01CB019F020B
:10423400A002326766363534C6F0F1F4F5F6F7308D
:10424400313390919293979500FF0100010000FF94
:10425400FF0000010001FF004022B684016201ACAE
:08426400009605AF05CF05002F
:00000001FF
