:100000000C94A0070C94E7070C94E7070C94E707FF
:100010000C94E7070C94E7070C94E7070C94E707A8
:100020000C94E7070C94E7070C948E250C944A2552
:100030000C94DC2B0C94E7070C94E7070C94E7076F
:100040000C94E7070C94E7070C94E7070C94E70778
:100050000C94E7070C94B82B0C94E7070C94E70773
:100060000C94E7070C94E7070C94E7070C94E70758
:100070000C94E7070C94E7070C94E7070C94E70748
:100080000C94E7070C94E7070C94E7070C94E70738
:100090000C94E7070C94E7070C94E7070C94E70728
:1000A0000C94E7070C94E7070C94E7070631FF0967
:1000B00074A1010975150026FF00952075088102BD
:1000C0000976150026FF00952075089102C00501EC
:1000D0000902A10185020901A100050919012905EB
:1000E00015002501950575018102950175038101B2
:1000F0000501093009311581257F950275088106B2
:1001000009381581257F950175088106050C0A3887
:10011000021581257F950175088106C0C00501097A
:1001200080A101850319012AB700150126B70095A2
:100130000175108100C0050C0901A1018504190198
:100140002AA002150126A002950175108100C006A3
:1001500060FF0961A1010962150026FF0095207565
:100160000881020963150026FF0095207508910299
:10017000C005010906A101050719E029E7150025B9
:10018000019508750181029501750881010507191E
:100190000029FF150026FF00950675088100050857
:1001A00019012905950575019102950175039101C4
:1001B000C0290000003A003B003C003D003E003FEB
:1001C00000400041004200430044004500000000A0
:1001D0000035001E001F0020002100220023002403
:1001E000002500260027002D002E0035002A00499A
:1001F000002B0014001A000800150017001C00183E
:10020000000C00120013002F003000310000004CE1
:1002100000390004001600070009000A000B000D59
:10022000000E000F00330034003100280000004BA6
:1002300000E10031001D001B00060019000500113F
:10024000001000360037003800E500520000004E74
:1002500000E0000000E30001512C0000002C000031
:10026000002C000000E600E4005000510000004FA8
:100270000001000000010001000100010001000177
:100280000001000100010001000100010000000167
:100290000001000100010001000100010001000156
:1002A0000001000100010001000100010001000146
:1002B0000001000100010001000100010001000136
:1002C0000001000100010001000100010000000127
:1002D0000001000100010001000100010001000116
:1002E0000001000100010001000100010000000107
:1002F00000010001000100010001000100010001F6
:1003000000010001000100010001000100000001E6
:100310000002510000035101000100000001000033
:1003200000010000000100010001000100000001C7
:1003300000010000000100010001000100010001B6
:1003400000010001000100010001000100000001A6
:100350000001000100010001000100010001000195
:100360000001000100010001000100010001000185
:100370000001000100010001000100010001000175
:100380000001000100010001000100010000000166
:100390000001000100010001000100010001000155
:1003A0000001000100010001000100010000000146
:1003B0000001000100010001000100010001000135
:1003C0000001000100010001000100010000000126
:1003D0000001000000010001000100000001000018
:1003E0000001000000010001000100010000000107
:1003F00000010000000100010001000100010001F6
:1004000000010001000100010001000100000001E5
:1004100000010001000100010001000100010001D4
:1004200000010001000100010001000100010001C4
:1004300000010001000100010001000100010001B4
:1004400000010001000100010001000100000001A5
:100450000001000100010001000100010001000194
:100460000001000100010001000100010000000185
:100470000001000100010001000100010001000174
:100480000001000100010001000100010000000165
:100490000001000000010001000100000001000057
:1004A0000001000000010001000100010000000146
:1004B000000000000000000000000000000000003C
:1004C00000000000007E0F00D4FFFFFFC700000007
:1004D0007800000000000000002A2B280000000027
:1004E00000000000000000000000000029000000E3
:1004F000002C1E3420212224342627252E362D3789
:1005000038271E1F202122232425263333362E3759
:10051000381F0405060708090A0B0C0D0E0F1011F1
:1005200012131415161718191A1B1C1D2F313023FE
:100530002D350405060708090A0B0C0D0E0F1011C6
:1005400012131415161718191A1B1C1D2F313035CC
:100550004C44454255473A2064697361626C656456
:100560002E0A0044454255473A20656E61626C652B
:10057000642E0A003F004D3E2000433E20000A004A
:10058000257500363A20776865656C5F74696D651E
:100590005F746F5F6D61783A20000A002575003541
:1005A0003A20776865656C5F6D61785F737065652B
:1005B000643A20000A00257500343A2074696D659C
:1005C0005F746F5F6D61783A20000A002575003313
:1005D0003A206D61785F73706565643A20000A00A7
:1005E000257500323A20696E74657276616C286DEB
:1005F00073293A20000A00257500313A2064656CA1
:100600006179282A31306D73293A20000A092D209A
:1006100056616C756573202D0A004D3E004D2564B2
:100620003E20003F007365742064656661756C74DC
:100630000A00433E20000A002530325820006B6536
:1006400079626F6172645F7265706F72743A2000D4
:10065000290A002575002F002575005D28002564F6
:10066000002000256400200025640020002564008F
:100670007C0025303258006D6F7573656B6579208D
:100680005B62746E7C782079207620685D287265C4
:10069000702F61636C293A205B000A002575002EDB
:1006A0006E6B726F3A20000A002575002E73776119
:1006B000705F6261636B736C6173685F6261636BCF
:1006C00073706163653A20000A002575002E737708
:1006D00061705F67726176655F6573633A20000AD7
:1006E000002575002E6E6F5F6775693A20000A005D
:1006F0002575002E737761705F72616C745F72672D
:1007000075693A20000A002575002E737761705FC5
:100710006C616C745F6C6775693A20000A0025751E
:10072000002E737761705F7263746C5F72677569B6
:100730003A20000A002575002E737761705F6C63A4
:10074000746C5F6C6775693A20000A002575002E8D
:10075000636170736C6F636B5F746F5F636F6E74F4
:10076000726F6C3A20000A002575002E7377617055
:100770005F636F6E74726F6C5F636170736C6F63D5
:100780006B3A20000A0025303258006B65796D61A4
:10079000705F636F6E6669672E7261773A20000A38
:1007A000002575002E6D6F7573653A20000A0025CF
:1007B00075002E6B6579626F6172643A20000A00E1
:1007C0002575002E6D61747269783A20000A002543
:1007D00075002E656E61626C653A20000A00253056
:1007E00032580064656275675F636F6E6669672E75
:1007F0007261773A20000A002575006465666175AC
:100800006C745F6C617965723A20000A092D204D85
:1008100061676963202D0A443A094465627567205F
:100820004D65737361676520546F67676C650A581F
:100830003A094D6174726978204465627567204D8C
:100840006F646520546F67676C65202D2053686F57
:1008500077206B65797072657373657320696E209C
:100860006D617472697820677269640A4B3A094B4A
:100870006579626F61726420446562756720546FA8
:1008800067676C65202D2053686F77206B657970E2
:1008900072657373207265706F72740A4D3A094401
:1008A00065627567204D6F75736520546F67676C5F
:1008B000650A563A0956657273696F6E0A533A09AA
:1008C0005374617475730A433A09416374697661BC
:1008D000746520436F6E736F6C65204D6F64650A9D
:1008E00046312D4631303A09537769746368207474
:1008F0006F204C6179657220302D392028463130C7
:10090000203D204C30290A302D393A09537769743B
:10091000636820746F204C6179657220302D390A2C
:1009200047524156453A0953776974636820746F9A
:10093000204C6179657220302028616C7465726E7C
:10094000617465290A423A094A756D7020746F20F6
:10095000426F6F746C6F616465720A4553433A0964
:100960004A756D7020746F20426F6F746C6F616494
:1009700065722028616C7465726E617465290A4520
:100980003A095072696E7420454550524F4D2053BC
:10099000657474696E67730A4253504143453A095E
:1009A000436C65617220454550524F4D0A000A095B
:1009B0002D20436F6E736F6C65202D0A4553432FB6
:1009C000713A09717569740A6D3A096D6F757365CD
:1009D0006B65790A004743433A20382E332E302086
:1009E0004156522D4C4942433A20322E302E30206F
:1009F0004156525F415243483A20617672350A00AF
:100A00004F5054494F4E533A204C554641204D4F7C
:100A10005553454B45592045585452414B45592053
:100A2000434F4E534F4C4520434F4D4D414E442074
:100A30004C544F20343039360A004255494C443A20
:100A40002022302E392E34342D34312D673033624C
:100A50006639372D646972747922202831343A312D
:100A6000383A3430204A756E202035203230323109
:100A7000290A005649443A20307834413534286AEE
:100A800074616C6C6265616E29205049443A203073
:100A900078303030312850617261676F6E2920568E
:100AA00045523A203078303030310A000A092D2082
:100AB00056657273696F6E202D0A0074696D6572D8
:100AC0005F72656164333228293A202530346C58CE
:100AD0000A006B6579626F6172645F69646C653A84
:100AE0002025580A006B6579626F6172645F7072CD
:100AF0006F746F636F6C3A2025580A00686F7374C7
:100B00005F6B6579626F6172645F6C6564732829DD
:100B10003A2025580A000A092D2053746174757310
:100B2000202D0A003F000A6D6F7573653A206F66CD
:100B3000660A000A6D6F7573653A206F6E0A000AC7
:100B40006B6579626F6172643A206F66660A000AAB
:100B50006B6579626F6172643A206F6E0A000A6D8C
:100B600061747269783A206F66660A000A6D617472
:100B70007269783A206F6E0A000A64656275673A96
:100B8000206F66660A000A64656275673A206F6EB8
:100B90000A000A0A4A756D70696E6720746F2062D8
:100BA0006F6F746C6F616465722E2E2E2000433E51
:100BB0002000436C656172696E6720454550524F55
:100BC0004D0A006565636F6E6669673A0A006D6B72
:100BD0005F776865656C5F74696D655F746F5F6D85
:100BE0006178203D2025640A006D6B5F776865653C
:100BF0006C5F6D61785F7370656564203D2025646E
:100C00000A006D6B5F74696D655F746F5F6D61780D
:100C1000203D2025640A006D6B5F6D61785F737005
:100C2000656564203D2025640A006D6B5F696E7404
:100C3000657276616C203D2025640A006D6B5F64EF
:100C4000656C6179203D2025640A006D6B5F7768D3
:100C500065656C5F74696D655F746F5F6D61782049
:100C60003D2025640A006D6B5F776865656C5F6D7C
:100C700061785F7370656564203D2025640A006DAE
:100C80006B5F74696D655F746F5F6D6178203D2087
:100C900025640A006D6B5F6D61785F7370656564D4
:100CA000203D2025640A006D6B5F696E7465727665
:100CB000616C203D2025640A006D6B5F64656C618A
:100CC00079203D2025640A00776865726520646597
:100CD0006C74613A20637572736F723D25642C20C9
:100CE000776865656C3D25640A5365652068747492
:100CF000703A2F2F656E2E77696B69706564696134
:100D00002E6F72672F77696B692F4D6F7573655FF3
:100D10006B6579730A000A092D204D6F7573656B39
:100D20006579202D0A4553432F713A09717569740D
:100D30000A313A0964656C6179282A31306D73296A
:100D40000A323A09696E74657276616C286D73298E
:100D50000A333A096D61785F73706565640A343AE5
:100D60000974696D655F746F5F6D61780A353A0962
:100D7000776865656C5F6D61785F73706565640A3F
:100D8000363A09776865656C5F74696D655F746F85
:100D90005F6D61780A0A703A097072696E74207624
:100DA000616C7565730A643A0973657420646566DD
:100DB00061756C74730A75703A092B310A646F7728
:100DC0006E3A092D310A706775703A092B31300A75
:100DD0007067646F776E3A092D31300A0A73706557
:100DE0006564203D2064656C7461202A206D617803
:100DF0005F7370656564202A202872657065617470
:100E0000202F2074696D655F746F5F6D6178290AAA
:100E1000004C25640A000A002530313662003A2071
:100E20000025303258000A722F63203031323334BB
:100E300035363738394142434445460A000A0025D1
:100E4000303258006B6579626F6172645F736574EC
:100E50005F6C65643A20005B735D004B6579626F7F
:100E60006172642073746172742E0A005B435D00CA
:100E70005B445D005B535D005B575D005B525D0052
:100E800009027B00040100A0FA090400000103012B
:100E9000010009211101000122400007058103081A
:100EA000000A0904010002030000000921110100E9
:100EB0000122220007058203200001070503032009
:100EC00000010904020001030000000921110100D2
:100ED000012281000705840320000A09040300029F
:100EE00003000000092111010001222200070585ED
:100EF0000320000107050503200001120110010075
:100F0000000008544A0100010001020301040330FB
:100F10000000001003500061007200610067006F64
:100F2000006E00000014036A00740061006C006C25
:100F3000006200650061006E000000040309040007
:100F400011241FBECFEFDAE0DEBFCDBF04B603FE33
:100F500027C08091780290917902A0917A02B09195
:100F60007B028730904BA740B04BD1F410927802AF
:100F70001092790210927A0210927B0214BE84B70A
:100F8000877F84BF0FB6F894A89580916000886130
:100F900080936000109260000FBEE0E0F8E30995D6
:100FA00011E0A0E0B1E0EEE7F9E502C005900D9296
:100FB000A638B107D9F722E0A6E8B1E001C01D923A
:100FC000A837B207E1F70E94BF260C94862C0C9438
:100FD0000000FF93EF93E0918601F0918701309735
:100FE00009F00995EF91FF910895FC0185918030FA
:100FF00011F0EFDFFBCF0895FF27E0E230E247FF7B
:101000000CC0419597FF09C0EDE260957095809501
:101010009095611D711D811D911D27FF02C02195B5
:1010200030E350E2AA27660F771F881F991FAA1F77
:10103000A41710F0A41B63955A95A9F7AA3008F0DD
:10104000A95FA05DAF93F3956115710581059105C9
:1010500041F7ED3211F4EF93F395F21718F43F9343
:10106000F395FBCF8F91B5DFFA95E1F70895E991FC
:10107000F9918591803021F0853219F0AADFF9CFFE
:10108000089520E0E89455915532C1F3503311F49E
:10109000689455915A3348F4505390F3220F022E1E
:1010A000220F220F200D250FF4CF0EF421958991E8
:1010B0009991533619F3533729F1533559F1BC013E
:1010C00088279927E8945C3621F48991999168944E
:1010D0005591543639F446EF7EF077FF0DC08FEF0F
:1010E0009FEF0AC055374AE039F0583540E121F00A
:1010F000523642E009F00895FF93EF937DDFEF91C0
:10110000FF91B7CFFF93EF93FC0181918030B9F34A
:1011100060DFFBCFFF93EF9368DFF1CFDF93CF93D7
:10112000CDB7DEB72596A3DFCF91DF910895E8ED27
:10113000F0E080818E7F80831092E2001092DA00CE
:101140001092E100A0EEB0E08C9181608C938081E0
:101150008F77808319BCA7EDB0E08C918E7F8C9344
:1011600080818F7E808310925D0208952091E4003B
:101170003091E50095E6A9012091EC00822F817065
:1011800020FF06C08091E80080FF06C080E008953F
:101190002091E80022FD1AC080917302882389F013
:1011A000853089F08091EB0085FD0FC02091E4002F
:1011B0003091E50042175307F9F29150E1F684E0CF
:1011C000089582E0089583E0089581E00895EF9204
:1011D000FF920F931F93CF937C018B010E94B6085F
:1011E000C82F811117C08091E80085FD0BC0809148
:1011F000E8008E778093E8000E94B608882399F370
:10120000C82F08C0F70181917F018093F100015040
:10121000110949F78C2FCF911F910F91FF90EF90FB
:101220000895CF93FC0180917302843001F5C09141
:10123000E900CF702091EC00922F917020FD90E892
:10124000C92B82E08093E9008091E80080FF0CC008
:1012500050E040E060E270E0CF010E94E70880913A
:10126000E8008E778093E800CF70C093E900CF91BB
:10127000089580916B0287FF13C08091E80082FF80
:1012800006C08091E8008B778093E80004C08091CD
:1012900073028111F2CF0895809173028823D9F3EC
:1012A0008091E80080FFF8CF8091E8008E77ECCF46
:1012B000982F9093E900242F762F50E0891731F072
:1012C0007091EC002091ED005091F00021FD07C0DD
:1012D0009F5F973071F78093E90081E00895309126
:1012E000EB003E7F3093EB003091ED003D7F30937B
:1012F000ED003091EB0031603093EB007093EC0027
:101300002093ED005093F0002091EE0027FDE0CFF8
:1013100080E00895CF92DF92EF92FF920F931F9398
:10132000CF93DF93C8EDD0E088818F7E8883E7ED8F
:10133000F0E080818160808384E082BF81E08093DF
:101340005D0288818E7F888302EE10E0F8011082B2
:101350001092DA0081EEC82ED12CF601108288811D
:101360008F77888388818068888388818F7D888350
:1013700019BC1092730210926A02109269021092C4
:10138000680290EEE92EF12CF70180818B7F80833B
:1013900088818160888342E060E080E00E94580993
:1013A000F60180818E7F8083F80180818160808357
:1013B000808188608083F70180818E7F808388812F
:1013C00080618883DF91CF911F910F91FF90EF9003
:1013D000DF90CF900895FC0180917102909172028C
:1013E00086179707A0F06115710529F49091E80020
:1013F0009E779093E80090E06115710551F491118A
:1014000008C08091E80082FF34C080E00895BC01EC
:10141000F2CF809173028823C1F18530C1F18091B0
:10142000E80083FD30C08091E80082FDEACF809122
:10143000E80080FFE1CF8091F3002091F200382F87
:101440006115710519F02830310558F091E0283008
:10145000310509F090E02091E8002E772093E80014
:10146000CBCF81918093F100615071092F5F3F4F85
:10147000E7CF80917302882341F0853041F080915D
:10148000E80083FFBECF81E0089582E0089583E005
:10149000089580917302843011F482E0089581E010
:1014A000089580915F02089590913902803F41F440
:1014B00080913A0287FD10923A02992371F00895C3
:1014C000813F29F480913A021816ACF3F6CF823F9F
:1014D00081F497FFF2CF1092390280913A029091F5
:1014E0003B02892B90913C02892B49F710923402E0
:1014F0000895833F19F4191674F3DFCF893F39F447
:1015000080913B021816CCF610923B02D6CF8A3F50
:1015100029F480913B0287FFD0CFF6CF8B3F39F47F
:1015200080913C0287FFC9CF10923C02C6CF8C3F0E
:1015300029F480913C021816BCF3BFCF843F31F4EC
:10154000809138028E7F80933802B7CF853F21F497
:10155000809138028D7FF7CF863F21F48091380249
:101560008B7FF1CF873F21F480913802877FEBCFCB
:10157000883F21F4809138028F7EE5CF8D3F31F492
:10158000809119028E7F8093190297CF8E3F21F4AC
:10159000809119028D7FF7CF8F3F09F08ECF809118
:1015A00019028B7FF0CF8091190280FF0CC06091EF
:1015B000010170E0759567957595679561157105E1
:1015C00049F1862F089581FF06C06091010170E006
:1015D00075956795F3CF6091010182FD0BC09091E5
:1015E00034029923A1F060910001809101019617C6
:1015F00038F0682F70E06038710500F38FE70895C8
:10160000899FC001112470E00E940F2CF4CF61E08B
:1016100070E0D7CF81E008958091190280FF12C059
:101620006091030185E0689FB0011124759567956D
:101630007595679560387105A8F561157105A1F17B
:10164000862F089581FF09C06091030185E0689F9E
:10165000B001112475956795EDCF6091030182FD6E
:101660000AC0809134028823D1F0909102016091E8
:101670000301891728F085E0689FB0011124DACFB3
:10168000869FB001112485E0869F9001879F300DD1
:101690001124692F70E0C9010E940F2CCBCF65E0A7
:1016A00070E0CECF8FE7089581E00895803F31F458
:1016B0000E940C0B819580933A020895813F19F4A2
:1016C0000E940C0BF8CF823F31F40E940C0B8195E5
:1016D000809339020895833F19F40E940C0BF8CFD0
:1016E000893F29F40E94D30A80933B0208958A3FE0
:1016F00021F40E94D30A8195F7CF8B3F31F40E94E9
:10170000D30A819580933C0208958C3F19F40E947E
:10171000D30AF8CF843F31F48091380281608093FE
:1017200038020895853F21F4809138028260F7CF16
:10173000863F21F4809138028460F1CF873F21F405
:10174000809138028860EBCF883F21F48091380285
:101750008061E5CF8D3F31F48091190281608093E3
:10176000190208958E3F21F4809119028260F7CF0B
:101770008F3FB9F7809119028460F1CF9C014FB778
:10178000F8948091570290915802A0915902B0911B
:101790005A024FBF821B930B08952FB7F894809184
:1017A000570290915802A0915902B0915A022FBF4E
:1017B0000895829590E09C01220F331F220F331F62
:1017C0002C7C95958795959587958373282B30E08C
:1017D000C901880F991F8A7A359527952575822B1F
:1017E0000895809114028111109214020895EAE87C
:1017F000F1E09191891303C0DF0111971C9291E0F0
:10180000E039F907B1F70895AAE8B1E0EFEF90E009
:101810002D91821751F0EF3F19F4211101C0E92FEA
:101820009F5F9630A9F7EF3F09F408950E2E000C44
:10183000FF0BE857FE4F828308959295907F890FA2
:10184000982F977086958695869525E0829FF00162
:101850001124EC52FE4F50E040E080E0219130E056
:10186000092E02C0369527950A94E2F72170332796
:10187000042E01C0220F0A94EAF7822B4F5F5F4FBC
:101880004530510559F708959295907F890F982F0B
:10189000977041E001C0440F9A95EAF786958695C6
:1018A000869595E0899FF0011124EC52FE4F30E0BF
:1018B00020E070E05191DF011197CB01022E02C0B0
:1018C000969587950A94E2F7817081958527842300
:1018D00085278C932F5F3F4F2530310559F70895A9
:1018E0008091D3019091A201981301C008958F5F58
:1018F0008770FACF20919701309198012817390706
:1019000071F09093980180939701E0912A02F091F1
:101910002B02309721F00084F185E02D0994089581
:1019200020919501309196012817390771F0909315
:10193000960180939501E0912A02F0912B02309755
:1019400021F00680F781E02D09940895E0912A02A4
:10195000F0912B02309721F00190F081E02D099455
:1019600080E008959091280292FF06C0282F2871E8
:101970002830F9F4877F846093FF06C0282F2871F0
:101980002831F1F4877E84612091290220FF06C06E
:10199000382F38713830D9F4877F816021FF06C035
:1019A000282F28712831D1F4877E816194FD877EAC
:1019B0000895282F24712430F9F68B7F8860DCCFBE
:1019C000282F2471243101F78B7E8861DDCF382FD9
:1019D0003171313019F78E7F8860E0CF282F217167
:1019E000213121F78E7E8861E1CF9FB7F894109264
:1019F0005B029FBF90917302943009F048C0209120
:101A0000E9002F703091EC00932F917030FD90E839
:101A1000922B25E02093E9002091EB0020FF34C0B9
:101A20002091EE0027FF30C020911B02222321F0DD
:101A30002091E80025FF28C010921B0226E030917B
:101A4000E80035FF14C08093F1008091E80085FD27
:101A500027C08091E80080FFFCCF8091E8008E775E
:101A60008093E8009F709093E90080E008953091A2
:101A70007302343049F43091EB0035FD05C021503C
:101A800041F481E080931B029F709093E9008FEFF7
:101A90000895EFE9FFE03197F1F700C00000CFCFE4
:101AA0008FB7F89421E020935B028FBFDBCFCF93F9
:101AB000DF9300D00F92CDB7DEB7909173029430D0
:101AC00011F589837B836A839093E9008FEF90916E
:101AD000E800815095FD06C095ED9A95F1F700005C
:101AE0008111F5CF8091E80085FF0DC050E040E006
:101AF00063E070E0CE0101960E94E7088091E80063
:101B00008E778093E8000F900F900F90DF91CF9128
:101B10000895CF93DF93EC010E94490A823011F0BF
:101B2000843031F4BE0184E0DF91CF910C94570DE5
:101B3000DF91CF910895BC0183E00C94570DCF93B2
:101B4000DF93EC010E94490A823011F08430F9F4ED
:101B500084E08093E9008FEF9091E800815095FD3B
:101B600006C095ED9A95F1F700008111F5CF8091AF
:101B7000E80085FF0CC050E040E066E070E0CE0178
:101B80000E94E7088091E8008E778093E800DF915B
:101B9000CF910895CF93DF93EC010E94490A8230E0
:101BA00011F0843039F581E08093E9008FEF909156
:101BB000E800815095FD06C095ED9A95F1F700007B
:101BC0008111F5CF8091E80085FF14C050E040E01E
:101BD00068E070E0CE010E94E7088091E8008E770F
:101BE0008093E80088E0FE01A0E6B2E001900D924B
:101BF0008A95E1F7DF91CF91089581E08093E0002D
:101C000080E28093D8001092C9008FE19EE4019792
:101C1000F1F700C0000087E090EBDC0180937802D0
:101C200090937902A0937A02B0937B0288E19CE0C2
:101C30000FB6F894A895809360000FBE9093600053
:101C4000FFCF7F928F929F92AF92BF92CF92DF92FF
:101C5000EF92FF920F931F93CF93DF930CE411E069
:101C6000ACE1B2E0712CCC24C394D12CE801899171
:101C70008E01E82FE295EF70F0E091A18F70760170
:101C800001C0EE0C8A95EAF7892F8E2981A392A1D3
:101C90007E2D7095972392A3D0EADA95F1F792E51D
:101CA000A92E91E0B92E50E040E030E020E0E501BF
:101CB00069915E01862E82948FE08822912CE40146
:101CC00088A190E06F7002C0959587956A95E2F7BC
:101CD00080FD6DC0C601042E02C0880F991F0A94B2
:101CE000E2F7282B392B4F5F5F4F40315105F9F652
:101CF00081A1872381A382A1E82AE2A28D919C91F0
:101D000011972817390709F455C011963C932E9363
:101D100081E0782A1296D1E002351D0709F0A6CF9E
:101D2000772009F449C081E0809392010E94CD0B95
:101D300090939101809390018091900190919101F5
:101D40000E94BE0B0697E0F180911C0290911D024B
:101D500090934C0280934B0280911E0290911F023F
:101D600090934E0280934D02809120029091210227
:101D70009093500280934F0280912202909123020F
:101D800090935202809351028091240290912502F7
:101D900090935402809353028091260290912702DF
:101DA00090935602809355021092920109C090E0E0
:101DB00080E097CF80E0ADCF809192018111BCCFC0
:101DC000872DDF91CF911F910F91FF90EF90DF90C2
:101DD000CF90BF90AF909F908F907F900895CF93BA
:101DE00084E090E00E94442CC82F81E290E00E94A1
:101DF000442C982F8C2FCF9108950F931F93CF933E
:101E0000DF9320E2629FE001112450E0440F551F50
:101E1000C40FD51F30EC839FC00DD11D1124CE01FE
:101E200086960E94442C082F10E0102F0027CE0128
:101E300087960E94442C9801282BC901DF91CF91ED
:101E40001F910F910895462F843038F4763028F48E
:101E5000603118F4672F0C94FD0E90E080E0089537
:101E6000CF93DF930E94230FEC0182389105A9F1F3
:101E7000D8F58133910509F496C048F5893291056A
:101E800009F48AC08A9709F495C0C11521E5D207E3
:101E900008F0BCC0C11530E5D30708F014C1C83E36
:101EA000D10508F09CC0C03ED10560F5C83AD10507
:101EB00008F087C0C53AD10508F0FDC0C130D10592
:101EC00009F12097F9F0C430D105E0F440C0853322
:101ED000910509F45AC0C997C1F680912802837010
:101EE00089F0C0EED0E00EC0833E910599F170F408
:101EF000803E910501F1823E910539F680912802DC
:101F000082FD21C0CE01DF91CF910895863E9105DB
:101F100061F1873E910571F1843E910509F0B5CFDD
:101F20008091290281FFEECF80912802C7EED0E098
:101F300084FD0DC0E7CF8091280280FD12C19091F1
:101F4000290290FFDFCFC3EED0E084FFDBCFD0E0EB
:101F5000C0E0D8CF8091280282FD06C1909129026D
:101F600090FDBFCF84FFCECFF2CF8091280283FDBA
:101F7000DDCFC8CF8091280283FDF9C0909129025E
:101F800091FFF0CFC4EED0E0BDCF8091280285FF55
:101F9000B9CFC9E2D0E0B6CF8091280285FFB2CF99
:101FA000C5E3D0E0AFCF8091280286FFABCFCAE275
:101FB000D0E0A8CF8091280286FFA4CFC1E3D0E073
:101FC000A1CFCF3BD10518F6C85AD0E0CC0FDD1F0A
:101FD000C25EDE4F0990D881C02DD46493CFC11565
:101FE00040E2D40758F4C11581E0D80708F08ACF41
:101FF000C03FD10508F4ABCFD06584CFC11590E4C4
:10200000D90708F4A4CFDF70D06A7CCFC11525E5CD
:10201000D20700F5C11534E5D30708F08AC0C11511
:1020200043E5D40708F071C0C11582E5D80708F46C
:1020300067C0CE018370992721E030E002C0220FF3
:10204000331F8A95E2F7C695C69580E2C89FE001E6
:10205000112452C0C11599E5D907A8F4C11528E586
:10206000D20708F06BC0C11536E5D30708F06FCF73
:102070008C2F0E94B20CC82FD0E0DC2FCC27CC27AD
:10208000DF71D0623FCFC1154AE5D40708F45BC0C9
:10209000CE0190568115904208F059CF8D2F8F7147
:1020A0000E94B20C90E0982F882788279F719C018E
:1020B0002C2BE901E6CFC55AD0E0C55EDE4FC881C2
:1020C000D0E0D0641FCFCE01E4E096958795EA95E5
:1020D000E1F783702C2F26952695237040E2249FEC
:1020E00090011124382B8C2F8370C1E0D0E002C006
:1020F000CC0FDD1F8A95E2F7C22BD32BDC6802CF11
:10210000DC2FCC27C16FD06AFDCECE01837099271A
:1021100021E030E002C0220F331F8A95E2F7C69516
:10212000C69590E2C99FE0011124C22BD32BDA6837
:10213000E9CEDC2FCC27C46FD06AE4CEDC2FCC27CD
:10214000C06FD06ADFCE8C2F8F700E94B20C34E04B
:10215000D695C7953A95E1F7CF709C2FEC01D069E1
:10216000D1CEC9E3D0E0CECEC2EED0E0CBCEC6EE2B
:10217000D0E0C8CEBF92CF92DF92EF92FF920F9342
:102180001F93CF93DF938C01C0907402D09075029F
:10219000E0907602F09077028091150290911602FD
:1021A000A0911702B0911802C82AD92AEA2AFB2A5C
:1021B000CFE1D0E0BC2ED701C6010C2E04C0B695ED
:1021C000A795979587950A94D2F780FD0EC0219721
:1021D00088F7B12C8B2DDF91CF911F910F91FF903C
:1021E000EF90DF90CF90BF900895B8018C2F0E94A0
:1021F000300F019761F3EECFCF93DF93EC010E9494
:10220000BA10BE01DF91CF910C94300F0E94FC10E8
:10221000292F2F7092959F7092509E3078F4E92F5D
:10222000F0E0E857F34D0C94232C803F19F020F494
:10223000883E20F481E00895843FE1F380E0089532
:10224000883EC0F3813FD1F7F5CF822F86958695E2
:10225000869508956F927F928F929F92AF92BF92D0
:10226000CF92DF92EF92FF920F931F93CF93DF9362
:1022700081EBC82E81E0D82E06E011E0E801C05CB9
:10228000D10936011CC0F50185909490692DC701D4
:102290000E94522C682DC70101960E94522C82E0A8
:1022A000A80EB11C82E0E80EF11CCE15DF0559F72F
:1022B00080E2680E711CA0960C171D0731F07E019C
:1022C00080E2E81AF1085301DECF00541F4F80EC82
:1022D000C80ED11C063084E0180781F6DF91CF913B
:1022E0001F910F91FF90EF90DF90CF90BF90AF9034
:1022F0009F908F907F906F900895CF93DF93C6E269
:10230000D3E060E0CE010E94522C2196C11584E0FA
:10231000D807B9F7DF91CF910895CF93C82F6FEF0A
:10232000811161E282E290E00E94522C6FEFC111B4
:1023300066E083E290E00E94522C6FEFC11165E0ED
:1023400084E290E0CF910C94522C86E19DE00E94B3
:10235000F5071F9281E08F931F9285E08F9388ECA1
:102360009CE09F938F930E948E080F900F900F9088
:102370000F900F900F9008958330C9F128F48130A9
:1023800061F0823019F10895853009F452C008F4E3
:102390003FC0863009F45EC008958091040168173B
:1023A00090F4861B80930401809104011F928F9307
:1023B00089EB9CE09F938F930E948E080F900F9063
:1023C0000F900F90089510920401EECF80910501B7
:1023D000681750F4861B80930501809105011F92B8
:1023E0008F9387EA9CE0E6CF10920501F6CF8091AB
:1023F0000301681750F4861B809303018091030149
:102400001F928F9384E99CE0D5CF10920301F6CF01
:1024100080910201681750F4861B8093020180911D
:1024200002011F928F938FE79CE0C4CF10920201AC
:10243000F6CF80910101681750F4861B809301014B
:10244000809101011F928F9386E69CE0B3CF10929A
:102450000101F6CF80910001681750F4861B80932C
:102460000001809100011F928F938BE49CE0A2CF2A
:1024700010920001F6CF833009F445C028F4813072
:1024800061F0823049F10895853009F46AC008F49A
:1024900051C0863009F47CC0089580910401482F12
:1024A000460F5527551F4F3F510594F4680F609311
:1024B0000401809104011F928F938CE39CE09F9311
:1024C0008F930E948E080F900F900F900F90089599
:1024D0008FEF80930401EDCF80910501482F460FC7
:1024E0005527551F4F3F510554F4680F6093050160
:1024F000809105011F928F938AE29CE0E0CF8FEFDD
:1025000080930501F5CF80910301482F460F552791
:10251000551F4F3F510554F4680F6093030180919C
:1025200003011F928F9387E19CE0C9CF8FEF8093C7
:102530000301F5CF80910201482F460F5527551F03
:102540004F3F510554F4680F6093020180910201DE
:102550001F928F9382E09CE0B2CF8FEF80930201B5
:10256000F5CF80910101482F460F5527551F4F3F4A
:10257000510554F4680F60930101809101011F928D
:102580008F9389EE9BE09BCF8FEF80930101F5CF76
:1025900080910001482F460F5527551F4F3F510589
:1025A00054F4680F60930001809100011F928F9393
:1025B0008EEC9BE084CF8FEF80930001F5CF80916C
:1025C0003E0283FF7EC087E796E00E94F507809178
:1025D00038021F928F9382E796E09F938F930E9419
:1025E0008E0880E796E00E94F50780913902282F37
:1025F000082E000C330B3F938F938DE696E09F934C
:102600008F930E948E088BE696E00E94F5078091DA
:102610003A02282F082E000C330B3F938F9388E645
:1026200096E09F938F930E948E0886E696E00E9424
:10263000F50780913B02282F082E000C330B3F93A7
:102640008F9383E696E09F938F930E948E0881E696
:1026500096E00E94F50780913C02282F082E000C7E
:10266000330B3F938F938EE596E09F938F930E9459
:102670008E088BE596E00E94F507809134021F9248
:102680008F9388E596E09F938F930E948E0886E54E
:1026900096E00E94F507809119021F928F9383E5BF
:1026A00096E09F938F930E948E0880E596E00E94AB
:1026B000F5078DB79EB74C960FB6F8949EBF0FBE28
:1026C0008DBFE0912A02F0912B02309749F082E011
:1026D000809337020480F581E02D87E392E009952D
:1026E0000E94CD0B90933302809332020895EF92B3
:1026F000FF920F931F93CF93DF93809113029091DA
:102700001202892B90911102892B8093880190915C
:102710001402992391F0892B8093880120E08AE8A4
:1027200091E0FC013191CF0131112F5FF1E080394F
:102730009F07B9F721110E94F10BE0912A02F09155
:102740002B023097C9F10280F381E02D88E891E0F7
:10275000099580913E0282FF2FC080FF04C08EE366
:1027600096E00E94F507C8E8D1E080E9E82E81E014
:10277000F82E08E316E080913E0280FF0BC08881AE
:102780001F928F931F930F930E948E080F900F90AC
:102790000F900F902196EC16FD0669F780913E028E
:1027A00080FF0AC086E396E0DF91CF911F910F91E1
:1027B000FF90EF900C94F507DF91CF911F910F914F
:1027C000FF90EF90089510921202109211020E9451
:1027D000771386E0E7E3F2E0DF011D928A95E9F7DF
:1027E00010923402109219020E94DF1290E080E0F1
:1027F0000E94900C90E080E00C947A0C609374023C
:102800007093750280937602909377020C94E31391
:102810000F931F93609174027091750280917602FC
:10282000909177028B019C01067011272227332794
:10283000063011052105310529F468601F910F91BB
:102840000C94FE13677FFACF0F931F9341E050E083
:1028500060E070E004C0440F551F661F771F8A9523
:10286000D2F7CB01BA016095709580959095009153
:1028700074021091750220917602309177026023E4
:102880007123822393231F910F910C94FE13909137
:1028900010028095892380931002282F277071F4ED
:1028A000282F082E000C330B9217130639F085954C
:1028B000859585950E9424141092100208950F9317
:1028C0001F9341E050E060E070E004C0440F551FEA
:1028D000661F771F8A95D2F78091740290917502D6
:1028E000A0917602B09177028A019B01082B192BE7
:1028F0002A2B3B2BC901B8011F910F910C94FE1399
:102900006093150270931602809317029093180239
:102910000C94E313882341F080959091130289234E
:10292000809313020C9477130895882339F09091C3
:102930001302982B909313020C9477130895882315
:1029400009F459C0823871F40E94A60C81FF53C06B
:1029500089E30E94040C0E94771389E30E94F70B1D
:102960000C947713833859F40E94A60C80FF43C05F
:1029700083E50E94040C0E94771383E5EFCF84382F
:1029800059F40E94A60C82FF36C087E40E94040C12
:102990000E94771387E4E2CF9CEF980F913AF0F210
:1029A00090E2980F983088F4877021E030E0A90118
:1029B00002C0440F551F8A95E2F7CA018095909195
:1029C0001302892380931302CBCF9BE5980F93309A
:1029D00020F490E080E00C94900C98E5980F9731EB
:1029E00020F490E080E00C947A0C803F20F00E946C
:1029F000540A0C94DF1208956CEE7EEF90E080E0B4
:102A00000E94702C60E082E090E00E94522C60E016
:102A100083E090E00E94522C109215021092160250
:102A2000109217021092180260E084E090E00E9479
:102A3000522C60E081E290E00E94522C60E085E040
:102A400090E00E94522C60E086E090E00E94522CC0
:102A50006FEF87E090E00E94522C40E050E0BA0116
:102A600088E090E00E94642C60E08DE090E00E949D
:102A7000522C40E050E0BA0188E190E00E94642CC2
:102A800060E087E190E00E94522C40E050E0BA0103
:102A90008CE190E00E94642C60E080E290E00E9473
:102AA000522C40E050E0BA018FE090E00E94642C8C
:102AB00040E050E0BA0183E190E00C94642C109265
:102AC0001302EAE8F1E086E0DF011D928A95E9F75A
:102AD0000C94E3131F93CF93DF93CDB7DEB7AA9780
:102AE0000FB6F894DEBF0FBECDBF8BE692E020910B
:102AF000F100DC012D93CD01B2E083379B07B9F7DC
:102B000080916C02833009F471C0B8F4813009F40B
:102B100048C0823009F4B2C08091E80083FF99C2B6
:102B200080916B0290916C029A3008F092C2E92F6A
:102B3000F0E0EA56F34D0C94232C8A3009F48DC052
:102B40008B3009F470C0893039F780916B02813283
:102B500019F780916F0290917002009711F002971F
:102B6000D9F68091E800877F8093E8008091E800A3
:102B700082FF37C09091F3008091F200029729F410
:102B80008091F1008B7F813021F48091F10080935E
:102B90005F028091E8008B778093E8000E943909FA
:102BA000BBCF80916B02813A09F0B6CF8091E800EB
:102BB000877F8093E80080916F0290917002892B4B
:102BC00061F468E080E692E070E00E94EB09809199
:102BD000E8008B778093E8009FCF60E090E080E092
:102BE000F3CF809173028111C1CF96CF80916B0298
:102BF000813A09F091CF80916F0290917002892BF8
:102C000009F08ACF8091E800877F8093E800809167
:102C1000E80080FFFCCF809110018093F10080914B
:102C2000E8008E77B9CF80916B02813209F074CFC2
:102C300080916F0290917002892B09F06DCF809185
:102C4000E800877F8093E8000E94390980916D0237
:102C5000809310010E945F155FCF80916B028132DB
:102C600009F05ACF8091E800877F8093E8000E94A6
:102C7000390980916E0280935E024ECF80916B0283
:102C8000813A09F049CF8091E800877F8093E8007E
:102C90008091E80080FFFCCF80915E02BECF80383B
:102CA00099F0823809F0D5C180916F028F7087301A
:102CB00008F0CFC18093E9008091EB0085FB882765
:102CC00080F91092E90006C0809168029091690233
:102CD000911182609091E800977F9093E800809333
:102CE000F1001092F1008091E8008E77AEC1882348
:102CF00009F49CC1823009F0ACC180916D02811150
:102D00009FC180916F028F702FEF280F263008F03F
:102D1000A0C18093E9002091EB0020FF91C1933086
:102D200031F48091EB0080628093EB0089C1909137
:102D3000EB0090619093EB0021E030E001C0220FA6
:102D40008A95EAF72093EA001092EA008091EB005E
:102D50008860EACF81117DC110916D021F7780914B
:102D6000E3008078812B8093E3008091E800877FE7
:102D70008093E8000E9439098091E80080FFFCCF31
:102D80008091E30080688093E30082E0111183E08A
:102D9000809373025EC18058823008F05AC120913E
:102DA0006D0230916E022C3DE3E03E07A1F583E019
:102DB0008A838AE289834FB7F894DE01139620E074
:102DC0003EE051E2E32FF0E050935700E49120FF02
:102DD00003C0E295EF703F5FEF708E2F90E0EA3016
:102DE000C0F0C7968D939D932F5F243159F74FBF45
:102DF0008091E800877F8093E8006AE270E0CE016E
:102E000001960E94EB098091E8008B778093E8009F
:102E100020C1C096E7CF80916F0290917002432F3E
:102E200055274330510509F44AC078F54130510522
:102E300009F485C08BE790E0E0E8FEE04230510500
:102E400009F007C12091E800277F2093E800209136
:102E50007102309172028217930708F49C0140E0DE
:102E60002115310509F070C041116EC08091E80054
:102E700082FDC9CF80917302882329F2853019F22F
:102E80008091E80083FFF2CFBECF4132510509F4B3
:102E900047C04232510509F0DCC08430910508F08A
:102EA000D8C0FC01EE0FFF1FEA58FE4F0190F081E1
:102EB000E02D8E589E4FDC018C9190E01DC0332791
:102EC00021303105E9F02115310579F02230310545
:102ED000F9F02330310509F0BCC0EDE0FFE0E491EA
:102EE0008E2F90E0EDE0FFE007C0EBE3FFE0E49120
:102EF0008E2F90E0EBE3FFE0009709F4AAC0A2CF89
:102F0000E5E2FFE0E4918E2F90E0E5E2FFE0F4CF10
:102F1000E3E1FFE0E4918E2F90E0E3E1FFE0ECCF0E
:102F20008430910508F095C0880F991FFC01E25884
:102F3000FE4F0190F081E02D89E090E083CF82E1A7
:102F400090E0EBEFFEE07ECF80917302882309F4DE
:102F50005ACF853009F457CF8091E80083FD53CFD5
:102F60008091E80082FD82CF8091E80080FF78CFD9
:102F70009091F3008091F2002115310519F088300D
:102F8000910550F041E0089709F040E08091E80099
:102F90008E778093E80064CF44914093F10031969E
:102FA000215031090196E8CF803809F052C0809154
:102FB000E800877F8093E80080916A028093F100A7
:102FC00092CE811146C010916D02123008F041C0BE
:102FD0008091E800877F8093E80010936A020E9446
:102FE0003909112311F084E005C08091E30087FDC9
:102FF000FACF81E08093730242E061EC81E00E94AD
:10300000580942E261EC84E00E94580942E261EC16
:1030100082E00E94580942E260EC83E00E94580975
:1030200042E261EC85E00E94580913C080916D0274
:10303000813079F481E0933009F080E08093690277
:103040001092E9008091E800877F8093E8000E9459
:1030500039098091E80083FF0AC08091E800877FEA
:103060008093E8008091EB0080628093EB00AA9649
:103070000FB6F894DEBF0FBECDBFDF91CF911F9189
:103080000895CF93C82F1F928F9381E19EE09F9365
:103090008F930E948E0861E070E080E090E004C0B1
:1030A000660F771F881F991FCA95D2F70E94801458
:1030B0000F900F900F900F90CF910C945F15CF93BE
:1030C000DF938B3109F408C208F0A0C18B3009F4FA
:1030D000C6C108F06EC1863009F4D4C148F4853009
:1030E00009F4A2C184E29BE00E94F50780E0DAC106
:1030F000873009F4DAC18830A9F783EC9BE00E949D
:10310000F5078BEF97E00E94F50783E090E00E94BF
:10311000442C1F928F9388EF97E09F938F930E9488
:103120008E0886EF97E00E94F50782E090E00E940B
:10313000442CC82F83EE97E00E94F5071F92CF938F
:103140008EED97E09F938F930E948E088CED97E011
:103150000E94F50782ED97E00E94F5078C2F8170A1
:103160001F928F938FEC97E09F938F930E948E080E
:103170008DEC97E00E94F50783EC97E00E94F5073D
:10318000C1FB882780F91F928F9380EC97E09F9373
:103190008F930E948E088EEB97E00E94F50782EBDA
:1031A00097E00E94F507C2FB882780F91F928F9352
:1031B0008FEA97E09F938F930E948E088DEA97E0A5
:1031C0000E94F50784EA97E00E94F507C3FBCC272D
:1031D000C0F91F92CF9381EA97E09F938F930E944B
:1031E0008E088FE997E00E94F5070E94EF0EEC0130
:1031F0008BE897E00E94F507DF93CF9386E897E08E
:103200009F938F930E948E0884E897E00E94F507B1
:103210008BE697E00E94F5078C2F81701F928F93A9
:1032200088E697E09F938F930E948E088DB79EB794
:1032300080960FB6F8949EBF0FBE8DBF86E697E0CE
:103240000E94F5078FE497E00E94F507C1FB8827ED
:1032500080F91F928F938CE497E09F938F930E9445
:103260008E088AE497E00E94F50788E397E00E94C1
:10327000F5078D2F81701F928F9385E397E09F93C1
:103280008F930E948E0883E397E00E94F50781E206
:1032900097E00E94F507D695D1701F92DF938EE1DB
:1032A00097E09F938F930E948E088CE197E00E9495
:1032B000F5078AE097E00E94F507C2FB882780F9AE
:1032C0001F928F9387E097E09F938F930E948E08C1
:1032D00085E097E00E94F50783EF96E00E94F507EE
:1032E000C3FB882780F91F928F9380EF96E09F930E
:1032F0008F930E948E088EEE96E00E94F50784EE72
:1033000096E00E94F507C4FB882780F91F928F93EF
:1033100081EE96E09F938F930E948E088FED96E04A
:103320000E94F5078DEC96E00E94F507C5FB882703
:1033300080F91F928F938AEC96E09F938F930E945F
:103340008E0888EC96E00E94F5078CEA96E00E94D1
:10335000F507C6FB882780F91F928F9389EA96E0CC
:103360009F938F930E948E088DB79EB780960FB65D
:10337000F8949EBF0FBE8DBF87EA96E00E94F507C6
:103380008FE996E00E94F507C7FBCC27C0F91F9292
:10339000CF938CE996E09F938F930E948E088AE9E1
:1033A00096E00E94F5070F900F900F900F9081E02C
:1033B00079C0803109F4A8C080F48E3009F092CE33
:1033C00090913E02892F8B7F92FF846080933E0212
:1033D00082FF97C08FE49BE08BC0863109F4A4C0C4
:1033E000893109F07FCE8CEA9AE00E94F50783E7E5
:1033F0009AE00E94F5078AE39AE00E94F50780E0D0
:103400009AE00E94F50785ED99E02BC08A3299F188
:10341000E0F4873261F128F48E3108F463CE8D51E7
:1034200027C0893209F05ECE82E99BE00E94F50751
:103430000E945F159FEF24E38CE091502040804074
:10344000E1F700C000000E94FD0D833468F48A3368
:1034500008F0AAC0853359F0883309F043CE8BE0D9
:1034600098E00E94F507A3CF833409F03BCE80E0BB
:103470000E9441189CCF82EB9BE00E94F5070E94BE
:10348000FC1495CF80913E02807F80933E028EEAAD
:1034900099E00E94F5078EEA9BE00E94F50781E023
:1034A00080931A02DF91CF91089590913E02892F67
:1034B0008E7F90FF816080933E0280FF03C086E88C
:1034C0009BE0CFCF89E79BE00E94F50780913E0209
:1034D000817F80933E026BCF90913E02892F8D7F3A
:1034E00091FF826080933E0281FF08C08CE69BE0E2
:1034F0000E94F50780913E028160EBCF8EE59BE054
:10350000B0CF8FE39BE0ADCF90913E02892F877FB4
:1035100093FF886080933E0283FF03C083E39BE0B8
:10352000E7CF86E29BE09DCF86E19BE00E94F50716
:103530000E94A60C1F928F938CEF9AE09F938F931B
:103540000E948E08809110011F928F9385EE9AE061
:103550009F938F930E948E0880915E021F928F939B
:1035600082ED9AE09F938F930E948E082FB7F89474
:103570008091570290915802A0915902B0915A023D
:103580002FBFBF93AF939F938F938BEB9AE09F9343
:103590008F930E948E088DB79EB742960FB6F8940F
:1035A0009EBF0FBE8DBF03CF895362CFCF93C82F6D
:1035B000882309F4E4C08238C1F40E94A60C81FD7E
:1035C000DEC089E30E94040C0E9477132FEF81EE86
:1035D00094E0215080409040E1F700C0000089E372
:1035E0000E94F70BCF910C9477138338A1F40E94BB
:1035F000A60C80FDC4C083E50E94040C0E947713D2
:103600002FEF81EE94E0215080409040E1F700C020
:10361000000083E5E5CF8438A1F40E94A60C82FD6A
:10362000AEC087E40E94040C0E9477132FEF81EE56
:1036300094E0215080409040E1F700C0000087E412
:10364000CFCF8CEF8C0F813A08F045C180911A02E0
:10365000813001F18823A1F0823009F448C0109232
:103660001A02EAE8F1E080E991E02191C21709F439
:1036700066C18E179F07C9F78C2F0E94040CB2CF2A
:1036800080911302823269F78C2F0E945F1881119A
:1036900076C0E7CF809113028232B1F3C431C9F012
:1036A00048F4CB3059F0C031C1F084E795E00E9476
:1036B000F50711C0C93269F0C833B9F78EEA99E04D
:1036C0000E94F5078AE795E00E94F50781E0817086
:1036D000DECF10921A0280E0FACF0E94A51186E791
:1036E00095E00E94F50782E080931A02EFCFC43282
:1036F000C8F4CE3108F0BEC0CB30E1F040F4C730A2
:1037000009F4CFC083E296E0CF910C94F507C33162
:10371000C1F1C431B9F780919B01882349F110921E
:103720009B010AC0CB3409F4BAC0C0F4C93299F382
:10373000C83341F70E94A51180919B01882309F4A9
:10374000C7C01F928F938DE196E09F938F930E9445
:103750008E080F900F900F900F9011C0C13509F493
:1037600098C0C23509F48FC0CE3461F66AE092C0C9
:1037700082E396E00E94F50781E080931A02CF91E0
:1037800008958CE096E00E94F5078AEF95E00E948C
:10379000F507809104011F928F9387EF95E09F9327
:1037A0008F930E948E0885EF95E00E94F50783EEC7
:1037B00095E00E94F507809105011F928F9380EE9E
:1037C00095E09F938F930E948E088EED95E00E9466
:1037D000F5078FEC95E00E94F507809103011F9299
:1037E0008F938CEC95E09F938F930E948E088AECC8
:1037F00095E00E94F50789EB95E00E94F50780911E
:1038000002011F928F9386EB95E09F938F930E9406
:103810008E0884EB95E00E94F5078FE995E00E9401
:10382000F507809101011F928F938CE995E09F939A
:103830008F930E948E088AE995E00E94F50783E83D
:1038400095E00E94F507809100011F928F9380E818
:1038500095E09F938F930E948E088EE795E00E94DB
:10386000F5078DB79EB748960FB6F8949EBF0FBE6A
:103870008DBF62CFCE51EC2FF0E0EF5EFE4F808126
:1038800080939B0159CF61E080919B010E943B1284
:1038900053CF61E080919B010E94BC114DCF6AE043
:1038A000F3CF8EE18093040182E3809305018AE0E7
:1038B0008093030184E18093020188E080930101F9
:1038C00088E28093000185E296E00E94F50734CFFC
:1038D0008AE196E019CF80E28C0F883068F4C770D7
:1038E00021E030E001C0220FCA95EAF7809113026F
:1038F000822B8093130276CEEBE5EC0FE33040F49D
:10390000F0E0E55EFE4F808190E0CF910C94900C4A
:10391000E8E5EC0FE73150F4F0E0EE0FFF1FE25E58
:10392000FE4F80819181CF910C947A0CC03F08F4B6
:1039300026CF8C2F0E94560BCF910C94DF128C2F28
:103940000E94F70B0E94771397CECF93C82F0E9447
:10395000D61AC93349F42FEF87EE93E02150804007
:103960009040E1F700C000008C2FCF910C949F1481
:103970000F931F93CF93DF93C62FD42F022FFC01F9
:1039800082818823A1F0609399010E94CD0B9093CE
:10399000940180939301C77081E001C0880FCA959C
:1039A000EAF7DF91CF911F910F910C94951410912C
:1039B0009901161335C080919301909194010E9452
:1039C000BE0B883C910560F5C0E2CD0F1D17B9F024
:1039D00080E2810F883040F4177081E001C0880FC9
:1039E0001A95EAF70E948A14C83048F481E09D2FA6
:1039F000977001C0880F9A95EAF70E949514802F5E
:103A00000E94A51CC83098F4D77081E001C0880FCF
:103A1000DA95EAF7DF91CF911F910F910C948A14F8
:103A2000C77081E001C0880FCA95EAF7F3CFDF9134
:103A3000CF911F910F9108954F925F926F927F9255
:103A40008F929F92AF92BF92CF92DF92EF92FF92AE
:103A50000F931F93CF93DF9300D000D00F92CDB779
:103A6000DEB77C01FC0183819481892B31F0808158
:103A7000918189238F3F09F069C50F900F900F90B6
:103A80000F900F90DF91CF911F910F91FF90EF90CA
:103A9000DF90CF90BF90AF909F908F907F906F906E
:103AA0005F904F9008950E94BA10182F682F898157
:103AB0009A810E94440C69817A81812F0E94230F90
:103AC0008C01F7018281882309F435C598012251C0
:103AD0003F452031310508F007C58FEF93E00E9484
:103AE000442C025156E2A52E53E0B52E882379F1DD
:103AF00080911002877009F4C0CFF701828188237A
:103B000009F4BBCF82E00F900F900F900F900F90B1
:103B1000DF91CF911F910F91FF90EF90DF90CF90A9
:103B2000BF90AF909F908F907F906F905F904F90DD
:103B30000C944714A114F4E0BF06D1F2C5010E9411
:103B4000442C811101C001502FEFA21AB20A0111B9
:103B5000F1CF1C821B82662463944AE0542E8501B7
:103B60000F5F1F4FC5010E94442C89831A8288234E
:103B700009F4BECF9FEF980F933008F58A836982CE
:103B800032E0A30EB11CC8010E94442C8B83882311
:103B900009F4AECF8E010F5F1F4FF8012081222361
:103BA000F1F2213009F043C091818281913049F4D2
:103BB0000E5F1F4F0E94A51C0F5F1F4FEECF5801D5
:103BC000E9CF923029F40E5F1F4F0E94D61AF4CF2E
:103BD000933029F40E5F1F4F0E949F14EDCF943055
:103BE00019F00F5F1F4FE8CF0E5F1F4F30E020E04E
:103BF000B8016F5F7F4FF80141818053990B8A3084
:103C0000910550F021503109B8F28FE99FE00197FA
:103C1000F1F700C00000F6CF529EF001539EF00D68
:103C200011249C012E0F3F1F842F8B01E1CFE22F27
:103C3000F0E0EF52FB4F7490822F86958695869523
:103C400090E0FC01EF53FB4F84902770912C022EE3
:103C500002C0959487940A94E2F7E1E08E229924B9
:103C6000FC01EF54FB4FC490D12C02C0D594C794F3
:103C70002A95E2F7F1E0CF22DD248114910419F0B6
:103C800081EE0E94D61AC114D10419F086EE0E946A
:103C9000D61A872D0E94A51CCD2819F086EE0E9409
:103CA0009F14892809F488CF81EE96CF81E00E9485
:103CB0005F140E9408141CCF81E00E942414F9CFE5
:103CC00082E0F5CF053F2CE5120709F461C008F446
:103CD0005BC027E245EE66EE063F9CE5190709F456
:103CE00026C4882309F443C4109299010230ECE5FC
:103CF0001E0708F430C10631FCE51F0738F09801B3
:103D00002A5F3C452930310508F025C10E94EF0E9D
:103D1000909329028093280200312CE5120709F4C0
:103D2000E9C008F073C008308CE5180709F4D4C066
:103D300008F045C00430ECE51E0709F4C1C078F571
:103D400002302CE5120709F4B5C080912802826088
:103D500003301C4509F4B1C060912802109129027A
:103D600084E090E00E94522C612F81E290E00E945A
:103D7000522C0E945F15BCCE27E245EE65EED7C3FC
:103D800026E241EE60EED3C327E245EE64EECFC3F8
:103D900026E241EE62EECBC328E241E0EFCF0630EF
:103DA0008CE5180709F494C08091280288600730D8
:103DB0001C4508F482C08091280280627EC08091F8
:103DC00028028D7F0C30ECE51E0709F476C070F4F4
:103DD000809128028C600A302CE5120709F46DC02E
:103DE00008F47EC0809128028E7F67C00E308CE57B
:103DF000180709F47BC0809128028B7F0F301C4587
:103E000008F45BC0809128028F7E57C00B3FECE521
:103E10001E0709F459C030F503312CE5120709F4E7
:103E200071C078F401318CE5180709F467C00231DC
:103E30001C4509F091CF0E945F15809128028F7771
:103E40003CC00531ECE51E0709F464C008F478C0F5
:103E50008091290281600A3F1C4509F07DCF809343
:103E600029027ACF0F3F3CE5130709F44FC088F4CD
:103E7000809129028D7F0D3F9CE5190781F3809188
:103E800029028E7F0E3F1C4550F3809129028360EA
:103E9000E6CF0130FDE51F0709F45BC008F446C01A
:103EA00060E002301D4509F057CF8EE090E00E949F
:103EB000522C52CF809128028160809328024CCFEF
:103EC000809128028460F9CF809129028260C7CF57
:103ED000809128028061F1CF809128028064EDCF2B
:103EE0000E945F15809128028068E7CF80912802A8
:103EF000877FE3CF809128028F7DDFCF80912802DA
:103F00008F7BDBCF80912802837FD7CF80912902DE
:103F10008C7FA5CF8091280282FB992790F921E020
:103F2000922790FB82F990FB83F9C7CF80912902F9
:103F3000982F909591708E7F892B90FB81F98FCF70
:103F40000E945F1590912802892F97FB87F980586E
:103F5000B4CF61E0AACF06319CE5190709F013C37D
:103F6000809113028A7A91E009F490E090939A018B
:103F7000811106C089E20E94040C0E947713B8CD1B
:103F800085E3F9CF85E3FCC290913E02892F8E7FB5
:103F900090FF816080933E0280FF05C083E695E03C
:103FA0000E94F507A5CD81E595E0FACF0E94FC14AB
:103FB0009FCDF70100811181882309F43DC0C8011C
:103FC0000E94BA10D82E682FC8010E94440CB80174
:103FD0008D2D0E94300F8C01882EF701A580A294B0
:103FE0003FE0A322D280D1101092120280911002E1
:103FF000877099F0DD2089F0812F807F803421F057
:1040000080E2800F883048F082E00E94471480915F
:1040100010028770CC24C3948111C12CB12EB294AC
:104020002FE0B222FBE0FB1508F440C0EB2DF0E0DE
:10403000E056F34D0C94232CC8010E941D0CD82E81
:10404000C6CF212F2F70A22E107F19F0A29490EFCF
:10405000A922DD20C9F0AA2069F080E2800F883013
:1040600010F081100BC080911302A82AA0921302B5
:104070000E947713802F0E94D61A18C080911202D6
:10408000A82AA0921202F4CF802F0E949F14AA2087
:1040900069F0A094005E083010F081103BC0809160
:1040A0001302A822A09213020E947713EB2DE8506E
:1040B000FF0B349710F40E94A60CCC2009F4DDCC41
:1040C0008091100280FDD9CCF701128285958595EB
:1040D00085950E945F14C7010E941C1D80911002EB
:1040E0008595859585950F900F900F900F900F9067
:1040F000DF91CF911F910F91FF90EF90DF90CF90C4
:10410000BF90AF909F908F907F906F905F904F90F7
:104110000C94241480911202A822A0921202C4CFFF
:10412000312F3F70932E107F103219F0929480EF50
:104130009822882071F081E0881661F1DD20B9F1C4
:10414000AA2071F1F701858180FF94CF8F7085835C
:1041500027C0DD2091F090911402892D892BA110A8
:1041600003C00E949514A2CFE1E0AE12FACF9817D7
:1041700009F49CCF8093140299CFA11006C00E942D
:10418000F10B892D0E948A1491CFF1E0AF1609F44A
:104190008DCFF5CFDD2031F025E02A1508F486CF4C
:1041A000892DDFCF34E03A1508F480CFEACFAA207A
:1041B00041F3F9E38F1291C12FEF37EE83E02150E5
:1041C00030408040E1F700C0000087C1812F869514
:1041D0008695837061F0813009F068CFC8019370D3
:1041E000D11002C090E080E00E947A0C5FCFC8013D
:1041F0009370D11002C090E080E00E94900C56CFE6
:10420000802FDD2029F00E94560B0E94DF124ECF36
:104210000E94540AFACF812F837009F066C0D11032
:1042200045CF802F829586958770880F880F602FE5
:104230006F70462E512C712C612C082E04C0440C3A
:10424000551C661C771C0A94D2F740E050E0BA0176
:1042500004FF0FC04FE050E060E070E004C0440F86
:10426000551F661F771F8A95D2F740955095609528
:104270007095812F869586958370823019F1D8F4D8
:104280000091150210911602209117023091180228
:10429000813069F04429552966297729CB01BA0173
:1042A00060237123822393230E948014FFCE402A2F
:1042B000512A622A732ACB01BA01642975298629F9
:1042C0009729F2CF442955296629772900911502AB
:1042D000109116022091170230911802CB01BA01F9
:1042E0006027712782279327DFCF8695DD2011F085
:1042F000812F8170882309F4D9CE802F82958695ED
:104300008770880F880F602F6F70462E512C712C8C
:10431000612C082E04C0440C551C661C771C0A94A2
:10432000D2F740E050E0BA0104FF0FC04FE050E088
:1043300060E070E004C0440F551F661F771F8A9528
:10434000D2F74095509560957095812F869586950A
:104350008370823019F1D8F40091740210917502C3
:104360002091760230917702813069F044295529F5
:1043700066297729CB01BA01602371238223932315
:104380000E94FE1393CE402A512A622A732ACB013F
:10439000BA016429752986299729F2CF442955291C
:1043A0006629772900917402109175022091760296
:1043B00030917702CB01BA016027712782279327BA
:1043C000DFCF1F70DD2029F0812F0E945F14802F26
:1043D000C8CE802F0E948A14812F0E94241466CE9A
:1043E000802F92EF891609F450C0981578F0E0EF0D
:1043F0008E1619F1F1EF8F1609F43FC0DD2009F494
:1044000067C0A11037CE812F8F713CC023EF821679
:1044100009F440C034EF8312F1CFDD2009F44DC020
:104420001F71812F0E945F14E8E01E9FC0011124BC
:10443000836080931002812F25C0DD20C9F084E0C5
:104440008A1508F433CE1F7161E070E080E090E0DF
:1044500004C0660F771F881F991F1A95D2F7009125
:104460007402109175022091760230917702A4CFE8
:1044700095E09A1508F41ACEE6CF812F8F71DD20D2
:1044800009F4ABCF0E945F1411CE812F8F71DD2014
:10449000C9F3A3CF60E070E0CB01DD2009F470CF59
:1044A0001F7161E070E080E090E004C0660F771F4C
:1044B000881F991F1A95D2F763CF81E00E94471495
:1044C000F1E0FA1508F0F2CD82E00E944714EECD3B
:1044D000AA2039F0893309F46FCE802F0E949F14EF
:1044E000E5CD812F8F7179CF0031FFE51F0709F4EA
:1044F000DDCB01312FE5120709F4E2CB033F2CE5B8
:10450000120709F43DCC08F0DDCB083D9CE5190706
:1045100009F432CC093DECE51E0709F43DCC073D1A
:10452000FCE51F0709F0DDCB26E241EE61EEC70195
:104530000E94B81CDDCA00313FE5130709F4BCCB6B
:1045400001319FE51907D1F682E0B7CB85E0DE01A6
:10455000119601900D928A95E1F7F70122818981E8
:104560009A812111A0CA0E941D0C182FA4CA0631DD
:104570001C4509F01ECD80919A01811103CD89E27D
:104580000E94F70BFACC01302CE5120709F4FCCCA1
:104590000E3D3CE5130709F409CD01151C4509F052
:1045A00008CD0E945F15EFEFF4E32CE0E150F040FE
:1045B0002040E1F700C000000E94FD0D1F93CF9343
:1045C000DF938091A101807FA9F480919E018823CF
:1045D00089F08091D301D091A20160919C017091EA
:1045E0009D01A0919F01B091A001C62FC72316E0A5
:1045F000D81304C0DF91CF911F91089590E01097D8
:1046000011F0CF3F19F401968770F2CF189F9001F7
:10461000199F300D1124F901ED55FE4F41814713CB
:10462000F2CF40814613EFCF42814111ECCF43815D
:1046300054814A1B5B0B483C510528F78091A1012E
:104640008F7080618093A101F901E855FE4F808150
:104650008F70806180838CE991E00E941C1DDF9146
:10466000CF911F910C94700CAF92BF92CF92DF92BA
:10467000EF92FF920F931F93CF93DF93CDB7DEB7E7
:1046800061970FB6F894DEBF0FBECDBF8C0185E0F9
:10469000F801DE011D9601900D928A95E1F7F8016F
:1046A00080819181E2802CE9A22E21E0B22E6091DE
:1046B0009F017091A0016115710509F43EC130910F
:1046C0009C0140919D01232F24232F3F09F435C1E4
:1046D000C380D480F0909E01F601E61BF70BFF200B
:1046E00009F4FBC02091A101522F507FE83CF10555
:1046F00008F0BBC0511178C0FE2C491321C03813FB
:104700001FC0E1101DC02F7020612093A101C501C1
:104710000E941C1D8091A101F80185838F2D619657
:104720000FB6F894DEBF0FBECDBFDF91CF911F91C2
:104730000F91FF90EF90DF90CF90BF90AF900895D2
:10474000CD2829F0282F29232F3F09F014C120E07C
:10475000F22FF170DF2E20FF3DC02091D301409158
:10476000A20156E0241315C08D879E878D859E85F6
:104770000E94FC10292F22952F702230F8F024304F
:1047800020F59F70F9F0F8019581907FD9F4D12C34
:104790001FC030E0529FF001539FF00D1124ED55E2
:1047A000FE4F6181961306C06081861303C062814B
:1047B000E61210C02F5F3F4F2770D4CF9F7011F0CB
:1047C000882329F3805E883010F3C8010E941C1DE5
:1047D000FD2CA4CFEE2009F4A1CF8091A10181602E
:1047E0008093A101F12C9ACF491312C0381310C045
:1047F000E1100EC0F8012583C8010E941C1D86E04F
:10480000F801ACE9B1E001900D928A95E1F786CF0D
:104810008D879E878D859E850E940611882309F1CC
:10482000EE20F9F08091A101803270F020919C017E
:1048300030919D0138872F831986DB86CA868C8745
:10484000CE0107960E941C1D86E0F801ACE9B1E09C
:1048500001900D928A95E1F70E94DE22FF24F394E5
:104860005DCFC8010E941C1DF9CF51110AC08CE90F
:1048700091E00E941C1D86E0F50111928A95E9F7EE
:10488000B1CF49130FC038130DC0E1100BC0F801B0
:104890002583C8010E941C1D86E0F50111928A95AE
:1048A000E9F73CCF8D879E878D859E850E940611F6
:1048B0008823B9F2EE20A9F28091A101803220F282
:1048C00020919C0130919D013A8329831B82DD82D6
:1048D000CC828E83CE010196B5CFE83CF105E0F69F
:1048E000FE2CEE2009F4BDCF491316C0381314C0B6
:1048F0008091A10180FD83CF982F907F09F47FCF15
:10490000F8018583903F09F477CF982F907F905FCF
:104910008F70892B858370CF8D879E878D859E852F
:104920000E940611811190CF8091A1018160809336
:10493000A101C8010E941C1DF1CEEE2009F491CF07
:104940008D879E878D859E850E940611F82E88236F
:1049500009F487CF86E0F801ACE9B1E001900D924F
:104960008A95E1F780919C0190919D010E94FC1035
:104970000E94DE22D3CE21E02E25EACE1F93CF93D4
:10498000DF93CDB7DEB767970FB6F894DEBF0FBEE3
:10499000CDBF4B8B5C8B6D8B7E8B8F8B1A8A198A6C
:1049A00085E0FE017396DE011D9601900D928A95B9
:1049B000E1F786E0FE013D96DE01179601900D922B
:1049C0008A95E1F7CE0107960E943423811112C027
:1049D00086E0FE013796DE01119601900D928A95D0
:1049E000E1F78A859B85892B29F08F81988589231A
:1049F0008F3FB1F516E08091D3019091A201891308
:104A00001DC067960FB6F894DEBF0FBECDBFDF9115
:104A1000CF911F91089596E0929FD001939FB00D82
:104A20001124AD55BE4FFE01319601900D929A951D
:104A3000E1F78093A2010E94700CDCCF819FC0013E
:104A400011248D559E4F0E9434238823D1F28091EA
:104A5000D30190E00196877099278093D301CBCF43
:104A60002091A20130E0C9010196877099274091F9
:104A7000D3014817190679F60E945F151092A2011A
:104A80001092D30186E0ECE9F1E0DF011D928A95F6
:104A9000E9F7B0CF1F920F920FB60F9211242F9308
:104AA0003F934F935F936F937F938F939F93AF93B6
:104AB000BF93CF93DF93EF93FF93D091E900DF7023
:104AC0008091EC00C82FC17080FDC0E81092E90011
:104AD0008091F000877F8093F00078940E946A159F
:104AE0001092E9008091F00088608093F000CD2B57
:104AF000CF70C093E900FF91EF91DF91CF91BF910B
:104B0000AF919F918F917F916F915F914F913F9165
:104B10002F910F900FBE0F901F9018951F920F921C
:104B20000FB60F9211242F933F934F935F936F9380
:104B30007F938F939F93AF93BF93EF93FF93809156
:104B4000E10082FF15C08091E20082FF11C08091D8
:104B5000E1008B7F8093E10020915C022F5F822F28
:104B600062E30E94032C992309F4C2C020935C02E3
:104B70008091DA0080FF28C08091D80080FF24C097
:104B80008091DA008E7F8093DA008091D90080FFD7
:104B9000E5C080E189BD82E189BD09B400FEFDCF99
:104BA00081E0809373028CE69EE00E94F50780917D
:104BB0005D02811109C00E9497080E948A098091B4
:104BC000E20084608093E2008091E10080FF1BC0DE
:104BD0008091E20080FF17C08091E2008E7F809379
:104BE000E2008091E20080618093E2008091D80031
:104BF00080628093D80019BC85E08093730284E7BB
:104C00009EE00E94F5078091E10084FF31C0809111
:104C1000E20084FF2DC080E189BD82E189BD89B5B4
:104C2000982F917080FFFBCF8091D8008F7D80936B
:104C3000D8008091E1008F7E8093E1008091E200B6
:104C40008F7E8093E2008091E20081608093E20099
:104C500080916A02882309F48BC084E080937302F8
:104C600088E79EE00E94F5070E945F150E94A60C4F
:104C70008091E10083FF2BC08091E20083FF27C079
:104C80008091E100877F8093E10082E0809373024E
:104C900010926A028091E1008E7F8093E100809102
:104CA000E2008E7F8093E2008091E2008061809339
:104CB000E20042E060E080E00E9458098091F0004C
:104CC00088608093F0008CE79EE00E94F507FF91DA
:104CD000EF91BF91AF919F918F917F916F915F9174
:104CE0004F913F912F910F900FBE0F901F901895ED
:104CF00010925C0280915B02882309F439CF809185
:104D000073028430C1F49091E9009F702091EC000F
:104D1000822F817020FD80E8892B95E09093E90037
:104D20009091EB0090FF04C09091EE0097FD08C0B9
:104D30008F708093E90010925B021ACF1092F100FD
:104D40009091E80095FDFACF9091E80090FFF0CFA8
:104D50009091E8009E779093E800EACF19BC1092FA
:104D6000730280E79EE00E94F50710925D022CCF4F
:104D70008091E30087FD93E09093730271CFCDB7EC
:104D8000DEB7AF970FB6F894DEBF0FBECDBF84B7C6
:104D9000877F84BF0FB6F894A895809160008861E2
:104DA00080936000109260000FBE80E890E00FB624
:104DB000F89480936100909361000FBE85B780687E
:104DC00085BF85B7806885BF0E9497080E948A09C1
:104DD0008091E20084608093E20085EF9CE09093F4
:104DE0008701809386017894809173028823A1F0D3
:104DF0001091E9001F709091EC00892F817090FD57
:104E000080E8182B1092E9008091E80083FD0E9451
:104E10006A151F701093E90082E084BD93E095BD90
:104E20009AEF97BD80936E00ACE4B1E022E531E0EB
:104E300041E050E08D91E82FE295EF70F0E011A194
:104E40008F70BA0101C0660F8A95EAF7962F909588
:104E5000912391A382A1862B82A32A173B0751F7A6
:104E6000A2E5B1E022E631E041E050E08D91E82F8B
:104E7000E295EF70F0E011A18F70BA0101C0660FEA
:104E80008A95EAF7962F9095912391A382A1862B7C
:104E900082A32A173B0751F7ECE1F2E088E292E0A7
:104EA000ABE4B2E0119211921D921D928E179F07F2
:104EB000C9F70E94210E8FE39CE90197F1F700C02A
:104EC00000000E94210E80914B0280FF0BC080E009
:104ED0000E948D116FEF7FEF90E080E00E94702CB8
:104EE0000E94FD0D90E080E00E944C2C8C3E9E4F75
:104EF00011F00E94FC1482E290E00E94442C813266
:104F000009F01BC483E290E00E94442C863009F033
:104F100014C484E290E00E94442C853009F00DC452
:104F200090E080E00E944C2C8C3E9E4F11F00E943D
:104F3000FC1482E090E00E94442C80933E020E9488
:104F4000EF0E909329028093280283E090E00E9464
:104F5000442C682F70E090E080E00E948014539809
:104F60005B9A55985D9A89B183FB882780F94D99A2
:104F700048C090E0892B80932F0286E091E09093C7
:104F80002B0280932A028BE59EE00E94F507BB244A
:104F9000BA94E0E1AE2E809173028530A1F10E94B7
:104FA000210E8FE392E09CA78BA7EBE4F2E0FEA733
:104FB000EDA710E000E00FA7EDA5FEA5E190F190B0
:104FC000FEA7EDA7EBA5FCA541905190FCA7EBA790
:104FD0004E145F0409F056C00F5F1F4F06301105D5
:104FE00051F7BEA2BFA218A60E94CD0B8160782FF8
:104FF0009AA789A74EA15FA168A58AA50E94BE2491
:1050000073C092E0B7CF87E59EE00E94F5078091DC
:105010007302843021F110922C0280E428E130E008
:105020000FB6F894A895209360000FBE809360009F
:1050300083B7817F846083BF83B7816083BF7894A7
:10504000889583B78E7F83BF0FB6F894A89580911B
:105050006000886180936000109260000FBE8091B4
:105060006902882309F497CF0E94210EEBE4F2E055
:1050700081919191892B09F04BC332E0E735F30719
:10508000B9F789CF80913E0281FD4FC180E0CC24E9
:10509000C394D12C92012E253F25A9014C215D21DD
:1050A000452B09F47DC189A32FA52AA3EC20FD205F
:1050B00081E0EF2809F480E08BA30E94CD0B816092
:1050C000782F9DA38CA349A15AA16BA18DA10E9409
:1050D000BE24000F111FF801E15CFD4F808191811A
:1050E000C826D926D182C082E0912F02EE0FEE0FA2
:1050F000E0932F0289B183FB662460F84D9957C174
:1051000080E08629E82BE0932F02EF70F0E0EE5963
:10511000FE4F808190912E02890F80932E02823063
:1051200044F080912D028F5F80932D028EEB0E94C0
:10513000A51C80912E028F3F44F480912D02815056
:1051400080932D028DEB0E94A51C80912E02817808
:1051500087FF03C081508E6F8F5F80932E0286E0A1
:10516000E7E3F2E0DE01119601900D928A95E1F7F6
:105170008091390290913A02892B91F08091350209
:10518000909136020E94BE0BAC019091340299239B
:1051900009F410C1809105018417150608F418C19F
:1051A00080913B0290913C02892B09F468C0809168
:1051B0003002909131020E94BE0B9C01909134020A
:1051C000992309F4D0C22536310508F458C09F3F11
:1051D00019F09F5F909334021092390210923A02B4
:1051E00080913B02181624F40E94D30A80933B025C
:1051F00080913B0287FF05C00E94D30A819580936E
:105200003B0280913C02181624F40E94D30A80933A
:105210003C0280913C0287FF05C00E94D30A819521
:1052200080933C0230913B023323B1F020913C0249
:10523000222391F045EB3403C0011124992309F492
:1052400023C190933B0245EB2403900111243323A7
:1052500009F41EC130933C020E94DF128091320299
:1052600090913302909331028093300286E0FE01E8
:105270003196A7E3B2E001900D928A95E1F70E9482
:10528000A60C90913D02891739F10E94A60C182FA7
:1052900080933D0280913E0282FF1EC080FF1CC0B1
:1052A00084E49EE00E94F50780913E0280FF14C0D6
:1052B0001F921F938FE39EE09F938F930E948E080F
:1052C00080913E020F900F900F900F9080FF04C0CE
:1052D0008DE39EE00E94F50780917302843009F00F
:1052E0005ACEF3E0F093E9008091E80082FF53CEBC
:1052F0008091E80090E085FF06C00E94B6088823F0
:1053000009F4CAC091E08091E8008B778093E800AF
:10531000992309F440CEE981E150E33108F01CC142
:10532000F0E0E455F34D0C94232C86E29EE00E94BD
:10533000F5076BE4862E62E0962ED12CC12CDF920D
:10534000CF9221E23EE03F932F930E948E088EE1A0
:105350009EE00E94F507F40180812180F2E08F0E2B
:10536000911C0E94D90B382E822D0E94D90B3F929E
:105370008F9328E13EE03F932F930E948E0886E1B1
:105380009EE00E94F5078FEFC81AD80A0FB6F8946E
:10539000DEBF0FBECDBFF6E0CF16D10481F676CECC
:1053A0008F5FCC0CDD1C803109F077CE15CE82E00A
:1053B00090E0A7CE209104018AE0289F900111245B
:1053C0002417350708F0ECCE9F5F9093340202C09B
:1053D0009F3FD1F710923B0210923C02809139021C
:1053E000181624F40E940C0B809339028091390224
:1053F00087FF05C00E940C0B819580933902809134
:105400003A02181624F40E940C0B80933A02809101
:105410003A0287FF05C00E940C0B819580933A02E7
:10542000309139023323A1F020913A02222381F0F6
:1054300045EB3403C00111249923F1F09093390214
:1054400045EB2403900111243323D1F030933A0229
:105450000E94DF12809132029091330290933602C3
:105460008093350286E0FE013196A7E3B2E0019019
:105470000D928A95E1F794CE81E080933902E0CFD6
:1054800081E080933A02E4CF81E080933B02DBCE5F
:1054900081E080933C02E0CE00E210E09E012F5FAD
:1054A0003F4F79018091E80085FD0AC08091E800B6
:1054B0008B778093E8000E94B608882399F322CF67
:1054C0008091F100F70181937F010150110951F79B
:1054D00019CF1A8289E08B8319C08A81823009F43E
:1054E00039C18330C1F08130B9F52FB7F89460919C
:1054F0005702709158028091590290915A022FBF21
:105500000E94292C6B837C838D839E83CE01019620
:105510000E94110940CDDE011196EBE4F2E080819A
:105520009181329612969C93129713968C931397AF
:10553000129622E0E735F20791F7E8CF8A818230B0
:1055400059F46B817C818D819E810E94292C85E29A
:1055500090E00E94522CDACFB982D8CF4C816B8177
:105560008A810E94FD0E9827892798279E838D8324
:10557000CDCFED80FE80FE24EF24FE248A810B81B6
:1055800030E2039F8001112440EC849F000D111D27
:1055900011248C8190E0880F991F080F191F6F2D1F
:1055A000C80186960E94522C6E2DC8018796D1CFD5
:1055B0000E942A11ABCFAA82A9CF1A828AED8BCF83
:1055C0000A811B81102701271027FE0131966F01E8
:1055D000EC809F012E0D311D7901C8018A5D9C4F21
:1055E000EC14FD0409F492CF0A3D110550F40E9419
:1055F000442CF60184830F5F1F4FFFEFCF1ADF0AA1
:10560000ECCFF6011482F7CF0A811B811027012706
:1056100010279E012F5F3F4F6901EC80E00EF12EB5
:10562000F11CC8018A5D9C4FE016F10609F46ECFAB
:105630000A3D110520F4F60164810E94522CFFEF0F
:10564000CF1ADF0A0F5F1F4FECCF0E947D115ECF94
:1056500024E02A835BCF0A811B81102701271027B2
:10566000CE0101966C01EC80FC01EE0DF11D7F0175
:10567000C8018696EC14FD0409F448CF0115F3E047
:105680001F0750F40E94442CF60184830F5F1F4FC4
:10569000FFEFCF1ADF0AECCFF6011482F7CF0A81B1
:1056A0001B811027012710279E012F5F3F4F6901A3
:1056B000EC80E00EF12EF11CC80186960E151F0538
:1056C00009F424CF011533E0130720F4F6016481B7
:1056D0000E94522CFFEFCF1ADF0A0F5F1F4FECCF53
:1056E00080E00E948D116FEF7FEF90E080E00E94DC
:1056F000702C0CCFCE0101960E9411092FEF31EED4
:1057000044E0215030404040E1F700C00000E8CBC9
:10571000A9BC82E189BD09B400FEFDCF8091D8000B
:105720008F7D8093D8008091E00082608093E000BC
:105730008091E00081FDFCCF2ECC60E085E290E01E
:105740000E94522C0E942A110E947D1181E00E9429
:105750008D11E6CB85E290E00E94442C1B821C82D6
:105760001D828E83D3CE2D32314008F032CD87CDCD
:1057700078941F921FB61F9211248F939F93AF931B
:10578000BF938091570290915802A0915902B09115
:105790005A020196A11DB11D8093570290935802A1
:1057A000A0935902B0935A02BF91AF919F918F91EC
:1057B0001F901FBE1F9018951F921FB61F92112495
:1057C0008F939F93AF93BF9380912C02811113C04D
:1057D0008091570290915802A0915902B0915A02BB
:1057E0004196A11DB11D8093570290935802A0933A
:1057F0005902B0935A02BF91AF919F918F911F9020
:105800001FBE1F901895991B79E004C0991F961729
:1058100008F0961B881F7A95C9F78095089597FB25
:10582000072E16F4009407D077FD09D00E94302C83
:1058300007FC05D03EF4909581959F4F0895709593
:1058400061957F4F0895EE0FFF1F0590F491E02DB5
:105850000994692796276927782787277827089545
:10586000AA1BBB1B51E107C0AA1FBB1FA617B70786
:1058700010F0A61BB70B881F991F5A95A9F78095A2
:105880009095BC01CD010895F999FECF92BD81BDDF
:10589000F89A992780B50895A8E1B0E042E050E079
:1058A0000C94782C262FF999FECF92BD81BDF89AE1
:1058B000019700B4021639F01FBA20BD0FB6F89454
:1058C000FA9AF99A0FBE08950396272F0E94532C37
:1058D0000E94522C252F0E94532C242F0C94532CC1
:1058E0000196272F0E94532C0C94522CDC01CB01E3
:1058F000FC01F999FECF06C0F2BDE1BDF89A3196E0
:1059000000B40D9241505040B8F70895F894FFCF7D
:10591000151115111E111E1120111E111E111E111F
:105920001511151125111E111E1125114F1677166F
:10593000291877162918AA16CB162918D417E11793
:105940002120212090209020E62000215620562062
:105950000B21E121F021F021692A6D2A9E2AAE2A2D
:10596000B92AD82AAC2AAC2AAC2A702B7A2BDB2A8B
:0E597000DD2AE02A042B252B282B2B2B4F2B76
:10597E002808140A1E32510ACA0D9F0D9B0D890D5F
:10598E000101020304050607080900818283E20073
:10599E00E900EA00B500B600B700CD008301CC00E7
:1059AE008A01920194012102230224022502260279
:1059BE0027022A02B300B4006F0070009291903259
:1059CE003166F7F6F5F4F1F067C6303336353497B5
:1059DE00949600FF0100010000FFFF00000100018E
:1059EE00FF004022812271014F01CE00AC00920EC9
:0659FE00AB0ECB0EE40E1F
:00000001FF
