:100000000C9407040C943F040C943F040C943F049C
:100010000C943F040C943F040C943F040C943F0454
:100020000C943F040C943F040C94852C0C94412CAC
:100030000C94822D0C943F040C943F040C943F04C8
:100040000C943F040C943F040C943F040C943F0424
:100050000C943F040C945E2D0C943F040C943F04CC
:100060000C943F040C943F040C943F040C943F0404
:100070000C943F040C943F040C943F040C943F04F4
:100080000C943F040C943F040C943F040C943F04E4
:100090000C943F040C943F040C943F040C943F04D4
:1000A0000C943F040C943F040C943F040501090296
:1000B000A10185020901A100050919012905150001
:1000C00025019505750181029501750381010501E1
:1000D000093009311581257F950275088106093897
:1000E0001581257F950175088106050C0A380215D2
:1000F00081257F950175088106C0C005010980A191
:1001000001850319012AB700150126B7009501756D
:10011000108100C0050C0901A101850419012AA064
:1001200002150126A002950175108100C005010984
:1001300006A1018506050719E029E71500250195A7
:1001400008750181020507190029EF1500250195A1
:10015000F0750181020508190129059505750191C0
:1001600002950175039101C00660FF0961A10109B3
:1001700062150026FF0095207508810209631500AD
:1001800026FF00952075089102C005010906A1010E
:10019000050719E029E71500250195087501810279
:1001A0009501750881010507190029FF150026FF33
:1001B0000095067508810005081901290595057542
:1001C000019102950175039101C0FD377A585A00DB
:1001D0000004E6D6B4460200210116000000742F88
:1001E000E5A3E0070102195D003D8889C65436C3C6
:1001F000174FE4E4650B8B5661E0802676EE2C8881
:100200001250354AD16DBF9E8D0C3FD6A0F8C68FD7
:1002100056E920DAD502383EAC5F712F42AD05F0C9
:100220008A72CF9EFEFCA61CC111E693C27A41DD04
:1002300060592E21EB2F0D8E504A9ECEF704BE8CB6
:10024000510CEDA8A88CC48687FEB60A9E34C5B9A9
:100250002473A66126EF10C3717CD56501830AB5AE
:1002600083E2432E3BF2A647AD03FFF40A417FD061
:100270001F2C3FD1940D3C80C7148340E84931982E
:10028000002BBE395DA8A3A573EC5B3D31AA477D69
:100290009DDA3B6B54B65085D4028BCA446FB2EBE7
:1002A00016C33EFF7369491CE4B90F2978BBCD8999
:1002B00095DE2AAD6D7D2117D20191CF9D1F52B0E1
:1002C00018134422A2DF51DE9EECA806BCB83C8481
:1002D0000E761A735029E30067DF637C2F1A82EBD6
:1002E000F52C6E80B62ACFF9E0EEC8D6B861183288
:1002F0008003C86BED0452A3C949129A714AD44FC6
:10030000B2FE651561F5FD607FA266B04A9B057A75
:1003100075A7BDF451EE57F26286F15CD03E71785C
:10032000A8831ACE4B58E658E9EEAD361805D559D4
:10033000CE9695290A1359BE7B24603532186E5526
:1003400024E26B656B9E1E15E000BACF3CEA17F401
:10035000F65B0EFB4ED322B62786160006B2DD638F
:10036000D819DB91010FC3EB3EB08549A7F8D594AE
:1003700018B53031B833F58405A5A9CD2CF5B4EA0C
:1003800067A9F7F5D9176D074B728DA507499F6EC1
:100390009A077C84B903F7205D1708E4751F48B7F6
:1003A0008AD4406A2929A3757DFDEEFE27DE9D08CB
:1003B000178FF6AEF27C347C4A60192804FAA38CBD
:1003C0002564B08F136B762A1EB1CD0C2B4701E547
:1003D0005CABE8A9A169F65221D4FA7825BAAEE758
:1003E00080DB6BFA2337B3AD4EC781EEDCDFC31B76
:1003F0002C5B58BC9C8BFB999CCF79AC4604843910
:10040000475600000000FDCA1E007A2EB0570001BA
:10041000B504820E000061A31C31B1C467FB020069
:1004200000000004595AAA00A900AA00A900290046
:1004300000003A003B003C003D003E003F00400011
:100440004100420043004400450000000000350028
:100450001E001F0020002100220023002400250090
:10046000260027002D002E002A002A004A002B001B
:1004700014001A000800150017001C0018000C00DA
:10048000120013002F003000310000004B00390033
:1004900004001600070009000A000B000D000E0002
:1004A0000F00330034006400280000004E00E1001B
:1004B00032001D001B00060019000500110010008D
:1004C000360037003800E500520000004D00E00023
:1004D0000000E300E2002C0000002C0000002C00D3
:1004E0000000E700E4005000510000004F00010050
:1004F00000000100010001000100010001000100F5
:1005000001000100010001000100000000000100E5
:1005100001000100010001000100010001000100D3
:1005200001000100010001000100010001000100C3
:1005300001000100010001000100010001000100B3
:1005400001000100010001000100000001000100A4
:100550000100010001000100010001000100010093
:100560000100010001000100010000000100010084
:100570000100010001000100010001000100010073
:100580000100010001000100010000000100010064
:100590000000010001000100000001000000010056
:1005A0000000010001000100010000000100010045
:1005B00001003004470F7A0F0000020002002C04F3
:1005C000470F7A0F0000030001003104470F7A0F34
:1005D0000000040002001604470F7A0FE007050030
:1005E00001003204470F7A0F0000060002001804D1
:1005F000470F7A0F0000070002002E04470F7A0F02
:100600000000080001003304470F7A0F00000900C2
:1006100002001A04470F7A0FBB070A0002001C04ED
:10062000470F7A0FBB070B0002001E04470F7A0F1B
:10063000BB070C0002002004470F7A0FBB070D0018
:1006400002002204470F7A0FBB070E0002002404A9
:10065000470F7A0FBB070F0002002604470F7A0FDF
:10066000BB07100002002804470F7A0FBB071100D8
:1006700002002A04470F7A0FBB071200020034045D
:10068000470F7A0F0000130002003604470F7A0F5D
:100690000000140001003804470F7A0F0000150015
:1006A0000000000041072217000009025B0003015F
:1006B00000A0FA0904000001030101000921110151
:1006C0000001224000070581030800010904010020
:1006D0000203000000092111010001222200070588
:1006E0008203200001070503032000010904020022
:1006F000010300000009211101000122BC000705CF
:1007000084032000011201000200000008278C4928
:10071000340001010203011C037600690061006CD2
:10072000003A006600360034006300320062003395
:100730000063000000100350006100720061006758
:10074000006F006E0000001003410072007400652D
:10075000006D00690073000000040309040000003C
:100760000000000000000000000000000000000089
:100770000000000000000000000000000000000079
:10078000007E0F00D4FFFFFFC700000078000000CC
:1007900000000000002A2B280000000000000000DC
:1007A000000000000000000029000000002C1E34A2
:1007B00020212224342627252E362D3738271E1FA8
:1007C000202122232425263333362E37381F0405D3
:1007D000060708090A0B0C0D0E0F10111213141541
:1007E000161718191A1B1C1D2F3130232D3504051F
:1007F000060708090A0B0C0D0E0F10111213141521
:10080000161718191A1B1C1D2F3130354C001124D6
:100810001FBECFEFDAE0DEBFCDBF04B603FE18C0C7
:1008200080913F0590914005A0914105B09142050E
:100830008730904BA740B04B59F410923F0510926F
:1008400040051092410510924205E0E0F8E3099559
:1008500011E0A0E0B1E0E6E0FFE602C005900D92F5
:10086000A838B107D9F725E0A8E8B1E001C01D928A
:10087000AF33B207E1F70E94A92D0C9456370C94C0
:100880000000E8EDF0E080818E7F80831092E2002E
:100890001092DA001092E100A0EEB0E08C9181603D
:1008A0008C9380818F77808319BCA7EDB0E08C9109
:1008B0008E7F8C9380818F7E808310920E050895A9
:1008C0002091E4003091E50095E6A9012091EC002B
:1008D000822F817020FF06C08091E80080FF06C053
:1008E00080E008952091E80022FD1AC080913C0527
:1008F000882389F0853089F08091EB0085FD0FC059
:100900002091E4003091E50042175307F9F291502D
:10091000E1F684E0089582E0089583E0089581E09F
:100920000895EF92FF920F931F93CF937C018B0159
:100930000E946004C82F811117C08091E80085FDD6
:100940000BC08091E8008E778093E8000E946004DD
:10095000882399F3C82F08C0F70181917F01809304
:10096000F1000150110949F78C2FCF911F910F9180
:10097000FF90EF900895CF93FC0180913C05843067
:1009800001F5C091E900CF702091EC00922F917099
:1009900020FD90E8C92B82E08093E9008091E80077
:1009A00080FF0CC050E040E060E270E0CF010E94A8
:1009B00091048091E8008E778093E800CF70C09317
:1009C000E900CF9108958091340587FF13C080918D
:1009D000E80082FF06C08091E8008B778093E800F2
:1009E00004C080913C058111F2CF089580913C05AF
:1009F0008823D9F38091E80080FFF8CF8091E80048
:100A00008E77ECCF982F9093E900242F762F50E02B
:100A1000891731F07091EC002091ED005091F000B9
:100A200021FD07C09F5F973071F78093E90081E057
:100A300008953091EB003E7F3093EB003091ED0054
:100A40003D7F3093ED003091EB0031603093EB004F
:100A50007093EC002093ED005093F0002091EE0095
:100A600027FDE0CF80E00895B0E0A0E0EAE3F5E004
:100A70000C94A936C8EDD0E088818F7E8883E7ED9D
:100A8000F0E080818160808384E082BF81E0809398
:100A90000E0588818E7F888302EE10E0F8011082B7
:100AA0001092DA0081EEC82ED12CF60110828881D6
:100AB0008F77888388818068888388818F7D888309
:100AC00019BC10923C051092330510923205109219
:100AD000310590EEE92EF12CF70180818B7F808328
:100AE00088818160888342E060E080E00E940205A6
:100AF000F60180818E7F8083F80180818160808310
:100B0000808188608083F70180818E7F80838881E7
:100B100080618883CDB7DEB7E8E00C94C536FC0170
:100B200080913A0590913B0586179707A0F06115D3
:100B3000710529F49091E8009E779093E80090E089
:100B40006115710551F4911108C08091E80082FF90
:100B500034C080E00895BC01F2CF80913C05882329
:100B6000C1F18530C1F18091E80083FD30C08091F2
:100B7000E80082FDEACF8091E80080FFE1CF80911C
:100B8000F3002091F200382F6115710519F028301B
:100B9000310558F091E02830310509F090E02091BE
:100BA000E8002E772093E800CBCF81918093F1006D
:100BB000615071092F5F3F4FE7CF80913C0588233B
:100BC00041F0853041F08091E80083FFBECF81E0A5
:100BD000089582E0089583E00895089580911005B6
:100BE00008959C014FB7F8948091050590910605F2
:100BF000A0910705B09108054FBF821B930B089584
:100C00002FB7F8946091050570910605809107054E
:100C1000909108052FBF08952FB7F894809105058E
:100C200090910605A0910705B09108052FBF089582
:100C3000209119012223C1F02091090527FF14C03A
:100C4000E62FE695E695E695EE31F8F4E80FF92FF4
:100C5000F11D677021E030E001C0220F6A95EAF7CC
:100C60008281822B82830895FC0132962FEF30E03F
:100C70004191641751F02F3F19F4411101C0232F06
:100C80003F5F3630A9F72F3F09F40895820F911D79
:100C900027FD9A95FC016283089520910205309109
:100CA00003052817390771F0909303058093020517
:100CB000E0910005F0910105309721F00084F18565
:100CC000E02D099508952091FE043091FF04281726
:100CD000390771F09093FF048093FE04E0910005C2
:100CE000F0910105309721F00680F781E02D0995FC
:100CF0000895E0910005F0910105309729F00190E9
:100D0000F081E02D0995089580E00895CF93DF9359
:100D1000EC014091EE045091EF046091F004709169
:100D2000F1042FB7F8948091050590910605A091E4
:100D30000705B09108052FBF841B950BA60BB70BB9
:100D4000843F9140A105B10518F58091EE04909182
:100D5000EF04A091F004B091F1048093EA04909321
:100D6000EB04A093EC04B093ED0484EF91E0A0E0D9
:100D7000B0E08093E6049093E704A093E804B09376
:100D8000E904D093F604C093F504DF91CF91089560
:100D90000E9400066093EA047093EB048093EC04D5
:100DA0009093ED0482E390E0A0E0B0E0E2CFFC019C
:100DB0008481862351F492819923B9F06923808537
:100DC00083FF05C081E061110FC080E00895892F85
:100DD0008F7092959F70982B862F8F7062956F7091
:100DE000682B81E09613F1CF089581E0FDCF452B6C
:100DF00039F0682381E06F3F09F080E08170089549
:100E000081E0FCCFDC016091E2048091E304962F45
:100E1000891301C00895292F30E0F901EE0FFF1F5B
:100E2000E652FB4F408151814A175B07A1F487E0EE
:100E30008A9FA0018B9F500D11244E555B4F81E07E
:100E4000FA0184839613E6CF2F5F3F4F2370332739
:100E50002093E20408952F5F3F4F922F9370D8CFD5
:100E600010923F0410923E04E2EAF4E08581811181
:100E700002C014821682379684E0EA3DF807B1F783
:100E80000895B0E0A0E0E7E4F7E00C94A7368FEF18
:100E90009FEF4430510508F469C04091090541FBBA
:100EA000882780F990E0880F991F42FB002700F9FE
:100EB00010E0000F111F000F111F802B912B40FB22
:100EC000CC24C0F8D12C8C299D2943FB222720F962
:100ED000C22FE0E0DE2F53E0CC0FDD1F5A95E1F783
:100EE0008C2B9D2B44FBAA27A0F9B0E0E4E0AA0FCD
:100EF000BB1FEA95E1F78A2B9B2B45FBEE27E0F918
:100F0000F0E0A5E0EE0FFF1FAA95E1F78E2B9F2BD7
:100F100046FB222720F930E0B6E0220F331FBA95B6
:100F2000E1F7822B932B47FB222720F930E03695FF
:100F3000322F222737952795822B932B20910A0554
:100F4000322F3170F32EE82EF92A26952170B22E19
:100F5000BB0CA82EBF28C501BB0CAA0BBB0BFB0109
:100F600080839183A283B38390E080E0CDB7DEB726
:100F7000EAE00C94C336E6E1F4E0848195812AE04E
:100F800030E0B9010E946A36609314018681809333
:100F900013018285809312018485809311018685D7
:100FA0009785B9010E946A36609310018089809309
:100FB0000F01828980930E01848980930D01089529
:100FC0008091160490911704909316018093150157
:100FD0000895E4EAF2E090E080E066EA7BE24DEC1E
:100FE0005BE22BE13BE2778366835187408733875F
:100FF00022879587848701963E968830910599F7D8
:10100000089581152CE5920741F42091EF0330916A
:10101000F003232B11F490E080E008950E940C0669
:101020009C0190918E0280918F02982B21F0309339
:101030008B0220938A029091900280919102982BCA
:1010400021F03093890220938802E0910005F0910D
:101050000105309749F082E080938C020480F5818D
:10106000E02D8CE892E00995089590918E02803FE2
:1010700059F480918F0287FF0DC010928F02911159
:101080000BC01092860208C0813F81F480918F02CC
:1010900018169CF3992381F080919002909191020F
:1010A000892B09F064C0109285020895823F49F4AB
:1010B00097FFF0CF10928E0280918F028111ECCFBA
:1010C000E0CF833F19F41916ACF3E4CF20919002DE
:1010D000893F29F41216F4F610929002DBCF8A3F72
:1010E00019F427FFD7CFF8CF209191028B3F29F435
:1010F00027FFD0CF10929102CDCF8C3F19F412165A
:10110000CCF3C8CF843F31F480918D028E7F8093E1
:101110008D02C0CF853F21F480918D028D7FF7CF66
:10112000863F21F480918D028B7FF1CF873F21F4A0
:1011300080918D02877FEBCF883F21F480918D02D3
:101140008F7EE5CF8D3F31F4809187028E7F809333
:101150008702A0CF8E3F21F4809187028D7FF7CF49
:101160008F3F09F097CF809187028B7FF0CF089552
:101170008091870280FF0CC060910E0170E0759530
:101180006795759567956115710549F1862F0895E5
:1011900081FF06C060910E0170E075956795F3CFF1
:1011A00060910E0182FD0BC0909185029923A1F000
:1011B00060910D0180910E01961738F0682F70E054
:1011C0006038710500F38FE70895899FC0011124ED
:1011D00070E00E947E36F4CF61E070E0D7CF81E00E
:1011E00008958091870260911E0470911F0480FF12
:1011F00016C020911201269FC001279F900D112437
:10120000BC0176956795769567956038710508F00D
:1012100043C06115710509F441C0862F089581FF0F
:101220000BC020911201269FC001279F900D112411
:10123000BC0176956795E9CF82FF09C080911201C4
:101240009B01829FB001839F700D1124DECF2091FE
:1012500086022223D1F29091110180911201482F30
:1012600050E0291748F0CB01849FB001859F700D95
:10127000949F700D1124C9CF289F90011124269F9F
:10128000A001279F500D369F500D1124692F70E04B
:10129000CA010E946A36B9CF8FE7089581E00895A8
:1012A000803F31F40E94F108819580938F02089568
:1012B000813F19F40E94F108F8CF823F31F40E9477
:1012C000F108819580938E020895833F19F40E945E
:1012D000F108F8CF893F29F40E94B8088093900262
:1012E00008958A3F21F40E94B8088195F7CF8B3F7B
:1012F00031F40E94B80881958093910208958C3F43
:1013000019F40E94B808F8CF843F31F480918D021F
:10131000816080938D020895853F21F480918D0234
:101320008260F7CF863F21F480918D028460F1CFF7
:10133000873F21F480918D028860EBCF883F21F4B4
:1013400080918D028061E5CF8D3F31F480918702DD
:1013500081608093870208958E3F21F480918702F7
:101360008260F7CF8F3FB9F7809187028460F1CF19
:1013700080E00895F894E82FE295EF70F0E031A155
:10138000282F2F7081E090E001C0880F2A95EAF79E
:10139000982F9095932391A392A1892B82A378945F
:1013A00008959091090592FF06C0282F28712830D2
:1013B000F9F4877F846093FF06C0282F28712831B5
:1013C000F1F4877E846120910A0520FF06C0382F42
:1013D00038713830D9F4877F816021FF06C0282F0B
:1013E00028712831D1F4877E816194FD877E08952C
:1013F000282F24712430F9F68B7F8860DCCF282FCA
:101400002471243101F78B7E8861DDCF382F317153
:10141000313019F78E7F8860E0CF282F217121317C
:1014200021F78E7E8861E1CFCF93DF93EC01823884
:101430009105B1F108F040C08133910509F49DC0D8
:1014400048F58932910509F48DC08A9709F49CC04A
:10145000C11521E5D20708F0C3C0C11530E5D30797
:1014600008F01EC1C83ED10508F0A3C0C03ED1059A
:1014700088F5C83AD10508F08EC0C53AD10508F004
:1014800007C1C130D10531F1209721F1C430D10518
:1014900008F545C08533910509F45FC0C997C1F6C9
:1014A00080910905837009F044C180910A0583FF8A
:1014B00011C0C9E2D0E00EC0833E910599F170F4ED
:1014C000803E910501F1823E910511F6809109055A
:1014D00082FD21C0CE01DF91CF910895863E910516
:1014E00061F1873E910571F1843E910509F0B0CF1D
:1014F00080910A0581FFEECF80910905C7EED0E00B
:1015000084FD0DC0E7CF8091090580FD33C0909127
:101510000A0590FFDFCFC3EED0E084FFDBCFD0E041
:10152000C0E0D8CF8091090582FD00C190910A05E5
:1015300090FDFFC084FFCECFF2CF8091090583FDDF
:10154000DDCFC8CF8091090583FDF6C090910A05D3
:1015500091FFF0CFC4EED0E0BDCF8091090585FFAB
:10156000B9CFA7CF8091090585FDE9C080910A0513
:1015700083FFB0CFC9E3D0E0ADCF8091090586FFEE
:10158000A9CFCAE2D0E0A6CF8091090586FFA2CFFD
:10159000C1E3D0E09FCFCF3BD10508F6C85AD0E0D9
:1015A000CC0FDD1FCB5DDE4F0990D881C02DD464F8
:1015B00091CFC11540E2D40758F4C11581E0D80796
:1015C00008F088CFC03FD10508F4A9CFD06582CFFD
:1015D000C11520E4D20708F4A2CFDF70D06A7ACF19
:1015E000C11535E5D30718F5C11544E5D40708F052
:1015F00085C0C11583E5D80708F06CC0C11522E588
:10160000D20708F462C0CE018370992721E030E050
:1016100002C0220F331F8A95E2F7C695C69580E275
:10162000C89FE0011124C22BD32BDC6853CFC11516
:1016300039E5D307A8F4C11548E5D40708F063C01D
:10164000C11586E5D80708F06ACF8C2F0E94D10912
:10165000C82FD0E0DC2FCC27CC27DF71D0623ACF67
:10166000C1152AE5D20708F453C0CE019056811562
:10167000904208F054CF8D2F8F710E94D10990E0D5
:10168000982F882788279F719C012C2BE901E6CF92
:10169000C55AD0E0CE5DDE4FC881D0E0D0641ACF0D
:1016A0002C2F26952695237040E2249F900111242B
:1016B0008C2F8370C1E0D0E002C0CC0FDD1F8A9573
:1016C000E2F7C22BD32BDD6805CFDC2FCC27C16F0F
:1016D000D06A00CFCE018370992721E030E002C0AC
:1016E000220F331F8A95E2F7C695C69540E2C49F44
:1016F000E0011124C22BD32BDA68ECCEDC2FCC27EF
:10170000C46FD06AE7CEDC2FCC27C06FD06AE2CEA0
:101710008C2F8F700E94D10934E0D695C7953A95E9
:10172000E1F7CF709C2FEC01D069D4CEC2EED0E0AF
:10173000D1CEC0EED0E0CECEC6EED0E0CBCEC5E36B
:10174000D0E0C8CE80914602882331F01092460244
:1017500010924502109244020895CF93C82F8091B1
:101760000A0582FF0CC0809146028C1741F00E944E
:101770000C069093450280934402C0934602CF9199
:101780000895809590913E05982390933E05089585
:1017900080959091F50398239093F5030895909187
:1017A000F503892B8093F50308951092230210927C
:1017B0002202109221020895809118049091190438
:1017C000892B89F00E940C06209144023091450239
:1017D000AC01421B530B81E0209118043091190495
:1017E0004217530708F480E0817008959091190121
:1017F0009923D1F09091090597FF16C0E82FE6953F
:10180000E695E695EE31E0F4F0E0E657FE4F282F3E
:10181000277081E090E001C0880F2A95EAF7809553
:101820009281892382830895ECE8F1E091918913F4
:1018300003C0DF0111971C9291E0E239F907B1F77B
:101840000895209120029091DF01291302C080E0C9
:10185000089530E0F90153E0EE0FFF1F5A95E1F7CC
:10186000E052FE4F5181561306C05081581303C0F9
:101870005281541304C02F5F3F4F2770E6CF81E0A1
:101880000895809120029091DF01981301C008957E
:101890008F5F8770FACFA82FA77023E09695879562
:1018A0002A95E1F7FC01EE0FFF1FE80FF91FE60F85
:1018B000F71F50E040E080E0219130E00A2E02C0A6
:1018C000369527950A94E2F721703327042E01C03C
:1018D000220F0A94EAF7822B4F5F5F4F4330510586
:1018E00059F70895903FB9F0963070F4803198F42C
:1018F00040E1949F9001112463EB71E0820F932FDC
:10190000911D0E944B0C08959C5F923020F460EB77
:1019100071E090E0F6CF80E00895262F277091E0E7
:1019200001C0990F2A95EAF723E0769567952A95E5
:10193000E1F7FB01EE0FFF1FE60FF71FE40FF51FA6
:1019400050E040E0682F70E08191DF0111979B012A
:10195000042E02C0369527950A94E2F7217021954E
:101960002827292328272C934F5F5F4F43305105A9
:1019700059F70895282F862F903F71F0963068F41C
:10198000203150F430E1939FB0011124620F711D9A
:1019900043EB51E00E948D0C08959C5F9230E0F77C
:1019A000622F70E040EB51E0F5CF92959F7096303A
:1019B00091F058F4925F9F70923058F4803F19F084
:1019C00030F4883E30F481E008959A5FF4CF843F8C
:1019D000D1F380E00895883EB0F3813FD1F7F3CF93
:1019E0009C013A9521153F4150F5FC01EE27F1701D
:1019F000BC0166277270AC01442754709C012227F9
:101A0000387094FF0EC080E1EF2B09F480E0672B63
:101A100009F08062452B09F08064232B89F08068EF
:101A2000089581E0EF2B09F480E0672B09F08260D4
:101A3000452B09F08460232B19F08860089580E01D
:101A4000089580930B0570930D0560930C058091AC
:101A50003C058430F9F48093E9008FEF9091E80021
:101A6000815095FD06C095ED9A95F1F70000811122
:101A7000F5CF8091E80085FF0DC050E040E063E0C5
:101A800070E08BE095E00E9491048091E8008E77F1
:101A90008093E8000895BC0184E00E94210D089520
:101AA000BC0183E00E94210D08959C0184E0809395
:101AB000E9009FEF8091E800915085FD06C085ED1B
:101AC0008A95F1F700009111F5CF8091E80085FF2C
:101AD0000CC050E040E066E070E0C9010E94910453
:101AE0008091E8008E778093E8000895CF93DF938C
:101AF000EC01809119018823B1F18091090587FFDC
:101B000032C060E284E08093E9008FEF9091E800BA
:101B1000815095FD06C095ED9A95F1F70000811171
:101B2000F5CF8091E80085FF1BC08091190170E01E
:101B300050E040E0811104C050E040E068E070E017
:101B4000CE010E9491048091E8008E778093E80096
:101B500080E2FE01A1E1B5E001900D928A95E1F7E6
:101B6000DF91CF91089568E081E0CDCF81E080934F
:101B7000E00080E28093D8001092C9008FE19EE4DB
:101B80000197F1F700C0000087E090EBDC01809343
:101B90003F0590934005A0934105B093420588E12D
:101BA0009CE00FB6F894A895809360000FBE9093C8
:101BB0006000FFCF019708F40895EFE9FFE0319747
:101BC000F1F700C00000F6CF0F931F93CF93DF9380
:101BD00006E114E0CFEAD1E0CE010E940C37F80113
:101BE00081938F012196C33DF1E0DF07A9F7C8EB90
:101BF000D5E0FE0185919491009711F0FC010995C3
:101C00002C96F6E0C43BDF07A1F7DF91CF911F913F
:101C10000F910895FF920F931F93CF93DF93F42EAC
:101C2000823040F5611126C024E0829F800111249A
:101C300009551E4F82E090E0442311F090E080E0CF
:101C4000800F911F0E940C37C82FD0E0DC2FCC27CB
:101C500083E090E0FF2011F081E090E0800F911F81
:101C60000E940C379E01282BC901CDB7DEB7E5E0F5
:101C70000C94C83690E080E0F8CF0F931F93CF9379
:101C8000DF93823030F5663020F5403110F520E2E8
:101C9000629F8001112450E0440F551F040F151F4F
:101CA00030EC839F000D111D1124C80187960E94FE
:101CB0000C37C82FD0E0DC2FCC27C80188960E94B3
:101CC0000C379E01282BC901DF91CF911F910F91F5
:101CD000089590E080E0F8CF462F672F2091F3031E
:101CE0003091F403232BF9F4703F39F4403FD9F4D9
:101CF0008091F1039091F20308958230A0F4763040
:101D000028F4403180F40E943D0E08957D3F39F45F
:101D1000411109C041E060E00E940A0E08957C3F35
:101D200011F44423C1F390E080E00895CF92DF9254
:101D3000FF920F931F93CF93DF936C0100913D05AA
:101D400080914702082BC7E0D0E010E0FC2EC801CC
:101D50000C2E02C0959587950A94E2F780FD0CC081
:101D60002197A0F7F12C8F2DDF91CF911F910F912B
:101D7000FF90DF90CF900895B6018C2F0E946C0EDB
:101D80000E94140A019761F3EECFCF93DF93EC0129
:101D90000E94960EBE010E946C0E0E94140ADF91F2
:101DA000CF910895CF93DF93EC014B815C816981E2
:101DB00088810E94F706811110C08E819F81009753
:101DC00039F00E94140A0E94D50CDF91CF9108953A
:101DD000888199810E94C50EF6CF80E0F6CFA5E0FC
:101DE000B0E0E5EFFEE00C94AE3649835A8389817A
:101DF0009A81662399F0222389F00E94960E182F6B
:101E0000682F89819A810E94BA0C69817A81812F19
:101E10000E946C0E2596E3E00C94CA360E94720C68
:101E2000182FF3CFFC01262F86819781009739F474
:101E3000408151816281738184810E94EF0E0895F7
:101E400083E290E00E940C37803789F484E290E0CE
:101E50000E940C378C3C59F485E290E00E940C37CC
:101E600091E08E3209F090E0892F8170089580E032
:101E7000FCCFCF9384E090E00E940C37C82F82E221
:101E800090E00E940C37982F8C2FCF910895DB01A2
:101E9000FC013296259134914217530758F0FC010A
:101EA000349665917491A901CD010E94EC3690E0C1
:101EB00080E008958FEF9FEF08950F931F93CF93C6
:101EC000DF9306E114E0CFEAD1E0CE010E940C37A7
:101ED000F80161918F01681719F0CE010E941A373D
:101EE0002196C33DF1E0DF0781F7DF91CF911F918C
:101EF0000F910895DA019C012E5F3F4FF901459142
:101F00005491F90125913491A217B30758F0FC01BF
:101F10003496859194910E94EC360E945D0F90E07A
:101F200080E008958FEF9FEF0895CF93DF93C3EC88
:101F3000D2E060E0CE010E941A372196C11584E0FC
:101F4000D807B9F7DF91CF9108950F931F93CF93DF
:101F5000DF93142F022F8230F0F461111CC094E043
:101F6000899FE0011124C955DE4F82E090E04423AF
:101F700011F090E080E0632F8C0F9D1F0E941A37B4
:101F800083E090E0112311F081E090E0602F8C0F4E
:101F90009D1F0E941A37DF91CF911F910F910895D5
:101FA0001F93CF93DF93122F8230E0F46630D0F48A
:101FB0004031C0F490E2699FE001112450E0440FE9
:101FC000551FC40FD51F90EC899FC00DD11D112442
:101FD000632FCE0187960E941A37612FCE01889613
:101FE0000E941A37DF91CF911F910895CF93C82F88
:101FF0006FEF811160E783E290E00E941A376FEF84
:10200000C1116CEC84E290E00E941A376FEFC111AD
:102010006EE285E290E00E941A37CF910895CF9347
:10202000C92F682F84E090E00E941A376C2F82E25B
:1020300090E00E941A37CF9108959B01883070F488
:102040009AE0899FB00111246D527E4F4AE050E022
:10205000C9010E94FC3690E080E008958FEF9FEF69
:102060000895AAE0B0E0E7E3F0E10C94AF369C01FC
:1020700037552F3F310509F068F4BE016F5F7F4F80
:102080000E941D10892B31F489859A852A96E2E0F9
:102090000C94CB3680912E0490912F04F7CFAAE0B8
:1020A000B0E0E5E5F0E10C94A53607E713E085E63E
:1020B000C82E83E0D82E93E7E92E92E0F92E27E090
:1020C000922E34E6A32E33E0B32E88248394D601D7
:1020D0000D931D936D014AE050E0B701CE010196CA
:1020E0000E94FC36F8013896DF01892D1D928A95F1
:1020F000E9F789819A81D80111969C938E938F81FB
:1021000012968C9312978D8113968C9313978885D2
:1021100014968C931497898515968C9315978B81BB
:102120009C8117969C938E93169718961C921897DD
:102130008A8587FF3CC01E961C921E921D9780FFC9
:1021400003C0D80118968C9281FF04C0F8019085D5
:102150009260908782FF07C0D80118969C911897CB
:10216000946018969C9383FF04C0F8019085986052
:10217000908784FF07C0D80118969C9118979061AA
:1021800018969C9385FF04C0F80180858062808743
:10219000015F1F4FFAE0EF0EF11C83ECE81682E0BE
:1021A000F80609F094CF2A96ECE00C94C136F801B9
:1021B000B686A586C4CFAAE0B0E0E1EEF0E10C94CB
:1021C000A936E4E1F3E080E5DF011D928A95E9F7A5
:1021D000E2EAF4E088E3DF011D928A95E9F784E101
:1021E000C82E83E0D82E7F0103E212E0F701D182EE
:1021F000C0824AE050E0B801CE0101960E94FC3650
:1022000088E0FE013196D60101900D928A95E1F7A2
:1022100089859A85D70113969C938E931297BAE07D
:10222000CB0ED11CE7E0EE0EF11C065F1F4F03370B
:10223000F2E01F07D9F62A96E8E00C94C536ACE028
:10224000B0E0E5E2F1E10C94A5368E010F5F1F4F7F
:102250008CE0F80111928A95E9F793E5E92E91E077
:10226000F92E6801AA24A394B12CF70181917F0172
:102270008F3F09F446C0F894E82FE295EF70F0E044
:1022800021A18F70A50102C0440F551F8A95E2F766
:10229000CA01922F982B91A392A18095892382A3A2
:1022A000789400C0E9E5F1E021E030E0912C812C48
:1022B00041914F3F09F467C0A42FA295AF70B0E0E1
:1022C00090968C9190E04F7002C0959587954A95B5
:1022D000E2F780FD58C0C901882A992A220F331FCE
:1022E00051E0E936F50721F7F701319780818F3FFB
:1022F00011F00E94BA0980EA8A95F1F7F6019182FD
:102300008082F2E0CF0ED11C49E5E41641E0F406EC
:1023100009F0ABCF4CE050E0B8018BE492E00E94B2
:10232000DF36892B99F18CE0F801ABE4B2E0019043
:102330000D928A95E1F781E080934A020E940C0693
:1023400090934902809348028091480290914902FB
:102350000E94F1050597F0F04CE050E06BE472E06C
:1023600089E792E00E94DF36892BC9F08CE0EBE42C
:10237000F2E0A9E7B2E001900D928A95E1F781E0E1
:1023800010924A0208C090E080E0A6CF80914A02F5
:102390008111DACF80E02C96ECE00C94C13680E01D
:1023A000EFCFCF938091F50390913E05892B8093D9
:1023B0008A0180914602882329F180911804909126
:1023C0001904892B29F00E94DC0B81110E94A20BB9
:1023D00080918A0190914602892B80938A01809195
:1023E0001901882309F447C08091090587FF43C07C
:1023F0008EE1ECE8F1E090E0815008F03EC09111F0
:102400000E94A20BC091F204C09580918A01C8235A
:102410008091F304C82BC0938A0140E250E064E24B
:1024200072E08AE891E00E94DF36892B11F180E2A8
:10243000EAE8F1E0A4E2B2E001900D928A95E1F7BA
:10244000E0910005F0910105309799F08091190114
:10245000882349F08091090587FF05C0C0938B014F
:1024600086E080938A010280F381E02D8AE891E082
:102470000995CF91089586E0BCCF2191222309F4DC
:10248000BBCF9F5FB9CFCF93DF93EC01EA85FB858C
:10249000309719F06C857D8509958B810E94C10B61
:1024A0008C810E94C80B0E94D11186E0FE0111921E
:1024B0008A95E9F7DF91CF910895CF93DF93EC01EF
:1024C0008D8181FD15C082608D8380913E059B8149
:1024D000892B80933E058C810E94CF0B0E94D111E5
:1024E000E885F985309721F06C857D85CE010995C9
:1024F0001092FD041092FC048D8180FD03C0CE017A
:102500000E944312DF91CF91089580911701877F38
:102510008093170182E00E94C10B8091170184FF14
:1025200006C08F7E8093170182E00E94CF0B8091BE
:10253000170185FF06C08F7D8093170180E20E94FE
:10254000CF0B0E94D111089590E080E00E946306B5
:1025500090E080E00E944D0610923E050E94D1114D
:1025600086E0ECE8F2E0DF011D928A95E9F710922F
:10257000860210928502109287020E940E0808952A
:1025800080933D050E94A412089580913D05982FE7
:102590009670963021F488600E94C0120895877F5B
:1025A000FBCF21E030E001C0220F8A95EAF72095A9
:1025B00080913D0582230E94C012089590912302CC
:1025C0008095892380932302282F277091F4282F48
:1025D000082E000C330B9217130659F090910A0540
:1025E00092FF07C08595859585950E94D1120E941E
:1025F000D50B089590910A0592FB222720F9281700
:1026000069F080FB92F990930A05809109059091F9
:102610000A050E940F1082E00E94DE12089521E058
:1026200030E001C0220F8A95EAF780913D05822BA8
:102630000E94C012089590910A0592FF10C098E080
:10264000899F90011124622B609323020E940F1333
:102650000E940C06909322028093210208950E940A
:102660000F130895809347020E94A41208951092B8
:10267000F50380911901ECE8F1E0882361F0809185
:10268000090587FF08C08EE1DF011D928A95E9F7F1
:102690000E94A412089586E0F7CFAAE2B0E0E3E535
:1026A000F3E10C94AE3684E395E02091F100DC0177
:1026B0002D93CD01B5E08C339B07B9F7809135059B
:1026C000833009F472C0B8F4813009F449C0823013
:1026D00009F4B3C08091E80083FF96C2809134056D
:1026E000909135059A3008F08FC2E92FF0E0E85A52
:1026F000F84C0C9492368A3009F48EC08B3009F471
:1027000071C0893039F780913405813219F7809191
:10271000380590913905009711F00297D9F680910C
:10272000E800877F8093E8008091E80082FF38C04E
:102730009091F3008091F200029731F48091F100C2
:10274000813011F0863021F48091F10080931005E2
:102750008091E8008B778093E8000E94E304BACF71
:1027600080913405813A09F0B5CF8091E800877FE8
:102770008093E8008091380590913905892B61F4A8
:1027800060E281E195E070E00E948F058091E800B1
:102790008B778093E8009ECF60E090E080E0F3CFFD
:1027A00080913C058111C0CF95CF80913405813A4D
:1027B00009F090CF8091380590913905892B09F067
:1027C00089CF8091E800877F8093E8008091E800BE
:1027D00080FFFCCF809119018093F1008091E80087
:1027E0008E77B9CF80913405813209F073CF809113
:1027F000380590913905892B09F06CCF8091E8005C
:10280000877F8093E8000E94E304809136058093DF
:1028100019010E9437135ECF80913405813209F08F
:1028200059CF8091E800877F8093E8000E94E304FD
:102830008091370580930F054DCF80913405813A03
:1028400009F048CF8091E800877F8093E80080916D
:10285000E80080FFFCCF80910F05BECF803899F053
:10286000823809F0D1C1809138058F70873008F027
:10287000CBC18093E9008091EB0085FB882780F92C
:102880001092E90006C080913105909132059111B6
:1028900082609091E800977F9093E8008093F10028
:1028A0001092F1008091E8008E77AAC1882309F484
:1028B00098C1823009F0A8C18091360581119BC171
:1028C000809138058F702FEF280F263008F09CC1BB
:1028D0008093E9002091EB0020FF8DC1933031F40B
:1028E0008091EB0080628093EB0085C19091EB00BA
:1028F00090619093EB0021E030E001C0220F8A95B7
:10290000EAF72093EA001092EA008091EB008860D9
:10291000EACF811179C1109136051F778091E300CC
:102920008078812B8093E3008091E800877F8093FB
:10293000E8000E94E3048091E80080FFFCCF8091D2
:10294000E30080688093E30082E0111183E08093CC
:102950003C055AC18058823008F056C12091360596
:10296000309137052C3DE3E03E07A1F583E08A83F3
:102970008AE289834FB7F894DE01139620E03EE0A7
:1029800051E2E32FF0E050935700E49120FF03C0A1
:10299000E295EF703F5FEF708E2F90E0EA30C0F06D
:1029A000C7968D939D932F5F243159F74FBF809128
:1029B000E800877F8093E8006AE270E0CE0101962C
:1029C0000E948F058091E8008B778093E8001CC1FE
:1029D000C096E7CF8091380590913905432F552750
:1029E0004330510509F44AC078F54130510509F4E6
:1029F00085C08BE590E0EAEAF6E04230510509F047
:102A000003C12091E800277F2093E80020913A0538
:102A100030913B058217930708F49C0140E0211593
:102A2000310509F070C041116EC08091E80082FD4F
:102A3000C9CF80913C05882329F2853019F2809115
:102A4000E80083FFF2CFBECF4132510509F447C001
:102A50004232510509F0D8C08330910508F0D4C046
:102A6000FC01EE0FFF1FE458FE4F0190F081E02DB6
:102A700087589E4FDC018C9190E01DC03327213098
:102A80003105E9F02115310579F022303105F9F0F1
:102A90002330310509F0B8C0E7E1F7E0E4918E2F6B
:102AA00090E0E7E1F7E007C0E9E5F7E0E4918E2F79
:102AB00090E0E9E5F7E0009709F4A6C0A2CFE7E4CB
:102AC000F7E0E4918E2F90E0E7E4F7E0F4CFE5E360
:102AD000F7E0E4918E2F90E0E5E3F7E0ECCF833070
:102AE000910508F091C0880F991FFC01EE57FE4F29
:102AF0000190F081E02D89E090E083CF82E190E0C9
:102B0000E5E0F7E07ECF80913C05882309F45ACFB9
:102B1000853009F457CF8091E80083FD53CF809131
:102B2000E80082FD82CF8091E80080FF78CF90910D
:102B3000F3008091F2002115310519F088309105DC
:102B400050F041E0089709F040E08091E8008E776E
:102B50008093E80064CF44914093F1003196215076
:102B600031090196E8CF803809F04EC08091E80025
:102B7000877F8093E800809133058093F10092CEA7
:102B8000811142C0109136051230F0F58091E800B5
:102B9000877F8093E800109333050E94E30411239C
:102BA00011F084E005C08091E30087FDFACF81E059
:102BB00080933C0542E061EC81E00E94020542E224
:102BC00061EC84E00E94020542E261EC82E00E9436
:102BD000020542E260EC83E00E94020580913C0520
:102BE00013C080913605813079F481E0933009F08B
:102BF00080E0809332051092E9008091E800877FA1
:102C00008093E8000E94E3048091E80083FF0AC0FB
:102C10008091E800877F8093E8008091EB008062DC
:102C20008093EB00AA96E3E00C94CA36E6E1F4E068
:102C3000128E138E8FEA90E09183808325E0248F9B
:102C400088E893E1938382838AE090E0958384838C
:102C500044E150E05783468348E050E05187408785
:102C6000938782876EE170E0758764879787868790
:102C700080E590E0918B808B538B428B48E250E053
:102C8000558B448B42E350E0578B468B48EC50E029
:102C9000518F408F158E178E168E91A380A322A37D
:102CA0000E945D0F0E94371310920A0510920905C9
:102CB000EAE0F5E08081846080838091090590914D
:102CC0000A050E940F100E94E40D0895AEE1B0E0E5
:102CD000ECE6F6E10C94A0366090EF037090F00300
:102CE00081E090E09093F0038093EF0386E2C82E9A
:102CF00084E0D82E98E2A92E94E0B92E2EE2E22E9E
:102D000024E0F22E512C8701412C15C0F4012591AD
:102D10003491432D642D852D0E94D00F82E0880EC2
:102D2000911C3394E0E13E12F1CF005E1F4F4394BB
:102D3000F6E04F1619F04801312CE8CFF601259145
:102D4000349141E060E0852D0E94A50FF5012591A9
:102D5000349140E060E0852D0E94A50F84E0C80E0C
:102D6000D11CE4E0AE0EB11CF0ECEF0EF11C81E0E2
:102D7000581619F055245394C6CF0E9416161A827D
:102D800019821C821B821E821D8218861F8288EC7B
:102D900090E09A87898703ED11E04AE050E0B8019E
:102DA000CE0101960E943E37065F1F4F0332E2E0DC
:102DB0001E0799F77E01FBE0EF0EF11C8AE0F70198
:102DC00011928A95E9F74AE050E0B801C7010E94E4
:102DD0003E37065F1F4F0337F2E01F07A1F77E0162
:102DE00085E1E80EF11C8AE0F70111928A95E9F776
:102DF0008FEF9FEF9A8F898F87E08E8F4AE050E0A8
:102E0000B801C7010E943E37065F1F4F033CF2E046
:102E10001F07A1F77092F0036092EF036E96E1E155
:102E20000C94BC3680E00E94F60F60E086E290E0F1
:102E30000E941A370E9466160E94950F81E00E9438
:102E4000F60F0895CF92DF92EF92FF928FEF9FEFF0
:102E50004430510508F46AC0FB01C080D180E28093
:102E6000F3800E94371380910905C0FA80F9B701F9
:102E7000A601769567955795479540FB81F9B7016F
:102E8000A60122E076956795579547952A95D1F743
:102E900040FB82F9B701A60133E076956795579517
:102EA00047953A95D1F740FB83F9B701A601E4E0D5
:102EB0007695679557954795EA95D1F740FB84F944
:102EC000B701A601F5E07695679557954795FA9570
:102ED000D1F740FB85F9B701A601A6E07695679585
:102EE00057954795AA95D1F740FB86F9B701A601FA
:102EF000B7E07695679557954795BA95D1F740FB1A
:102F000087F98093090580910A05D0FA80F9D1FAF2
:102F1000CC24C0F8C0FA81F980930A058091090594
:102F200090910A050E940F1090E080E0FF90EF90D2
:102F3000DF90CF9008950E9437132FEF84E39CE039
:102F4000215080409040E1F700C0000088E19CE003
:102F50000FB6F894A895809360000FBE9093600020
:102F6000FFCF882321F00E94C10B0E94D111089548
:102F7000882339F090913E05982B90933E050E944E
:102F8000D1110895882321F00E94C80B0E94D1110D
:102F90000895882321F00E94CF0B0E94D11108953B
:102FA000882379F19CEF980F913A28F40E94F60B50
:102FB0000E94D111089590E2980F983050F48770D4
:102FC00091E001C0990F8A95EAF7892F0E94C80BFA
:102FD000EFCF9BE5980F933028F490E080E00E94BB
:102FE0006306089598E5980F973128F490E080E003
:102FF0000E944D060895803F20F00E9435080E94EF
:103000000E080895FF920F931F93CF93DF93F82E2E
:103010000091F7041091F8040115110509F449C055
:103020001092F6041092F5041092F2041092F30438
:10303000D8011696CD91DC919E013A9521153F411C
:1030400008F4D07ED1E0C11101C0D0E0D8011996BA
:10305000ED91FC911A97309731F01B966D917C9110
:1030600080E00995D823DD2339F08CEF8C0F813A6D
:1030700030F58C2F0E94F60BFF2099F0E091F704B9
:10308000F091F804808584FD0CC08091F4048823BD
:1030900041F0808191819C0121503109203B3D45C7
:1030A000A0F00E94D1111092F8041092F70410922F
:1030B000F404C801CDB7DEB7E5E00C94C8360E9431
:1030C000D1118C2F0E94D017D7CF0E948606E9CF4E
:1030D000CF93DF93EC010E94D017CE010E94F00C39
:1030E0009E01205E31092830310510F0CD2B29F4E6
:1030F0000E94C217DF91CF9108950E94B117FACFB5
:10310000CF93C82F8823C1F18CEF8C0F813AB0F593
:1031100080911901882301F18091090587FF1CC066
:10312000EC2FE695E695E695F0E0E657FE4F8281B6
:1031300090E04C2F477021E030E002C0220F331F97
:103140004A95E2F782239323892B79F08C2F0E94F2
:10315000F60B0E94D11109C0ECE8F1E08191C8178B
:10316000A9F381E0E239F807C9F76C2F8AE891E00A
:103170000E9418060E94D111CF91089580E28C0F11
:10318000883048F4C77081E001C0880FCA95EAF71B
:103190000E94CF0BEFCFEBE5EC0FE33040F4F0E013
:1031A000EE5DFE4F808190E00E946306E5CFE8E58A
:1031B000EC0FE73150F4F0E0EE0FFF1FEB5DFE4F38
:1031C000808191810E944D06D7CFC03FA8F28C2FFD
:1031D0000E9450090E940E08CFCF1F93CF93DF9318
:1031E000182FC0913604D0913704893321F0C09153
:1031F0003404D0913504812F0E948018209739F42F
:10320000812F0E94D017DF91CF911F9108958FE9F0
:103210009FE00197F1F700C000002197EFCFB0E0E9
:10322000A0E0E5E1F9E10C94A736EC018AE0A82ED4
:103230002881222309F48FC02130C9F599818A8120
:10324000913021F422960E94ED1805C0923029F4A5
:1032500022960E9480182196EBCF933021F422967B
:103260000E94D017F8CF943011F02196F4CF229617
:1032700030E020E0AE014F5F5F4F8053990B8A3002
:10328000910550F02150310930F38FE99FE001970B
:10329000F1F700C00000F6CFA29EB001A39E700D12
:1032A00011249C01260F371F8981EA01E3CFE22F09
:1032B000F0E0E357F84FB490822F86958695869577
:1032C00090E0FC01E358F84FE4902770F12C022EB7
:1032D00002C0F594E7940A94E2F731E0E322FF2478
:1032E000FC01E359F84FC490D12C022E02C0D594B2
:1032F000C7940A94E2F731E0C322DD24FC01E35ACB
:10330000F84F049110E002C0159507952A95E2F751
:1033100001701127E114F10419F081EE0E94801868
:10332000C114D10419F086EE0E9480188B2D0E94E2
:10333000ED18C114D10419F086EE0E94D017E114E3
:10334000F10419F081EE0E94D0170115110509F45E
:1033500082CF8CE278CFCDB7DEB7EAE00C94C336EB
:10336000B0E0A0E0E6EBF9E10C94A7367C015B014C
:10337000C42FD22FFC0182818823A9F04093FB0443
:103380000E940C069093FA048093F904C77081E0C0
:1033900001C0880FCA95EAF70E94C917CDB7DEB7FA
:1033A000EAE00C94C3361091FB04141338C08091EA
:1033B000F9049091FA040E94F1056C01B701C5016E
:1033C0000E943110C816D90650F5C0E2CD0F1D1766
:1033D000C1F080E2810F883048F4177081E0012E3F
:1033E00001C0880F0A94EAF70E94C217C83048F457
:1033F00081E09D2F977001C0880F9A95EAF70E948F
:10340000C917802F0E94ED18C83040F6D77081E0B0
:1034100001C0880FDA95EAF70E94C217BFCFC770C4
:1034200081E001C0880FCA95EAF7F6CFCF93DF930A
:10343000EC010E94F00C9E01205E3109283031051C
:1034400010F0209741F40E94C9178C2F0E94801819
:10345000DF91CF9108950E94B817F7CF662329F026
:1034600020913E05226020933E059C013056211597
:1034700040E2340720F0305E2115304108F49927EE
:103480000E94161A0895B0E0A0E0E9E4FAE10C9475
:10349000AA367C018B01D42E8091170182FF8CC04B
:1034A000C0913C04D0913D04CE15DF0521F0E1141C
:1034B000F10409F081C0809117018B7F809317017F
:1034C00081FD73C080913A0490913B04A801481B90
:1034D000590B81E0209115013091160142175307D5
:1034E00008F480E08170F82E80911701F0FA81F9DC
:1034F00080931701FE0183E0F695E7958A95E1F741
:10350000EE71FF27EA50FC4F20813181AE014F70F0
:10351000552781E090E002C0880F991F4A95E2F795
:10352000FF2009F444C0822B932B918380838091E8
:10353000F50381FF08C08091170180618093170116
:1035400082E00E94C80B8091F50385FF08C080913E
:10355000170180628093170180E20E94C80B6F2DD3
:10356000CE010E942E1ADD2031F08091310485FFBA
:1035700002C086FF3BC080913404909135040E94C4
:10358000DA0D80913C0490913D049C013056211548
:1035900040E2340720F0305E2115304108F49927CD
:1035A0000E9468180E9485121DC081E09BCF809503
:1035B000909582239323B9CFC7019927970130565D
:1035C000211540E2340728F0305E2115304108F023
:1035D000C7010E94681880913C0490913D048E15AB
:1035E0009F0501F310933B0400933A04CDB7DEB777
:1035F000E7E00C94C63668EE7EEF90E080E00E9433
:10360000383760E082E090E00E941A3760E083E0A3
:1036100090E00E941A371092470260E084E090E048
:103620000E941A3764E082E290E00E941A3760E05C
:1036300085E090E00E941A3760E086E090E00E940A
:103640001A376FEF87E090E00E941A3740E050E0B1
:10365000BA0188E090E00E942C3760E08DE090E0B5
:103660000E941A3740E050E0BA0188E190E00E94E1
:103670002C3760E087E190E00E941A3740E050E08C
:10368000BA018CE190E00E942C3770E060E080E2AB
:1036900090E00E94383740E050E0BA0188E190E0C5
:1036A0000E942C3780E00E94F60F0E94121740E023
:1036B00050E0BA018FE090E00E942C3740E050E0EB
:1036C000BA0183E190E00E942C370895A7E0B0E0B2
:1036D000ECE6FBE10C949F367C01DC0113964D91E6
:1036E0005C91149711966C9111978C910E94F7063A
:1036F0008111EEC061E0C7010E94120F8C01F70139
:1037000082818823E1F08091FC049091FD04009770
:10371000B1F00817190799F0FEE08F9FC00111243E
:10372000FC01E755FD4F2081246020838C559D4F7F
:10373000DC010D931C930E945D1210923E05F7016F
:103740008281882311F40C942624C80182519F455C
:10375000409710F00C941A248FEF93E00E940C37DE
:103760008111A6C07EEED72ED00E03EC12E0D11050
:1037700036C019821A821B821C8299249A9468018D
:103780002FEFC21AD20AC8010E940C3789831A820D
:10379000882309F48DC0813009F07FC0580132E0E0
:1037A000A30EB11CC6010E940C37C82E8A83882341
:1037B00009F47EC0C5010E940C37D82E8FEF8C0D06
:1037C0008330D8F4580143E0A40EB11CDB82DD2025
:1037D00021F0CE0101960E940F198501D0CF01156D
:1037E000F4E01F0709F464C0C8010E940C3781117E
:1037F00001C0DA940F5F1F4FBACF8BEF8C0D83306F
:1038000030F5C8010396DB825C01DD2031F35801FD
:1038100054E0A50EB11C0E940C378C838823E9F27A
:103820008B819C818130AFEF9A0710F0982F882709
:10383000B6E0CB1631F0E7E0CE1631F00E94952BC2
:10384000CCCF0E946F2BC9CF0E94F62AC6CFF4E0DE
:10385000CF12C3CF580124E0A20EB11CC8010396B9
:103860000E940C37DD2021F1882311F18150990B42
:10387000989E9001999E300D11244D2D4150550B6D
:10388000CA01820F931F019708F4A7CFAFE9BFE0E9
:103890001197F1F700C00000F6CFCE0101960E940B
:1038A0000F1956019ACF81E00E940F130E94C51292
:1038B00080912302877061F0D70112968C91882342
:1038C00039F080910A0582FF03C082E00E94DE1277
:1038D0002796E2E10C94BB3681E00E94D112E6CF3C
:1038E00082E0FBCF823011F00C94642480919E0220
:1038F00090919F02892B09F4E7C72EE02C9DC0010F
:103900002D9D900D1124FC01E755FD4F20812E7F48
:1039100020838C559D4F0E945D12D6C781E0809315
:103920000001C6CF80910001882309F4AFC6480189
:1039300020EE821A9108409046028091AD01482AFB
:103940008091F503482A38E08316910408F086C078
:1039500098012770332781E090E001C0880F2A95F5
:10396000EAF7552009F477C0482AD7018D919C9138
:103970000E94720C21E030E0F90102C0EE0FFF1F3F
:103980008A95E2F7FF83EE832090F7043090F804E5
:103990006090AA017090AB011D822D81E22FF0E0B2
:1039A000EE0FFF1FEB59FC4FC080D180C114D10432
:1039B00009F4D0C6411005C0D60112968C91811130
:1039C00089C0F601838190E02E813F818223932379
:1039D000892B09F47FC08085982F977009F487E0C0
:1039E00038E08316910408F053C0552009F44CC008
:1039F00086958170882309F46DC0D601AD90BC9086
:103A00000A151B0519F4552009F464C0C214D30427
:103A100009F460C0D6011D96ED91FC91309721F01C
:103A20008081882309F456C0642DC6010E94D70600
:103A3000882309F44FC00A151B0509F099C7011521
:103A4000110509F49AC751109AC7A614B70409F0D2
:103A500041C0512C94C78095482287CF552009F446
:103A600062C61093AB010093AA010E940006609306
:103A7000EE047093EF048093F0049093F10410929D
:103A8000F6041092F50471CF82FB882780F9B2CF3B
:103A9000552001F18170AECF0E94D0178EC70497D8
:103AA000813A910558F46A2D8AE891E00E9418063F
:103AB000552009F4EBC50E94D111FACE0E94D11114
:103AC0008FE39CE90197F1F700C000008A2D0E9466
:103AD0008018EECF9D819F5F9D835FCFFC01208189
:103AE00031810217130709F0CAC55110CAC51092D7
:103AF000F40480E00E940218C9C5902F812F0EC6E1
:103B0000F901858181FF3AC6C9010E94431236C678
:103B1000809117018160809317015EC68091170123
:103B20008E7F809317010E94851256C680911701DF
:103B30008F7E013E110531F0053E1105C9F48091DB
:103B400017018F7D809317018091170180FF53C665
:103B5000D70112968C910832110528F50E31110506
:103B600008F072C00430110580F5811140C643C6CB
:103B7000C8019056811540E2940720F0905E8115AF
:103B8000904110F78091170182FF35C68091330470
:103B900081FD31C628E632E040E0B60190E080E0E9
:103BA0000E94431A28C60933110558F40D32110535
:103BB00018F40B321105C9F69091310492FDD5CF5E
:103BC00008C004361105C1F3D0CF9091310494FDA3
:103BD000CCCF882309F4A8C0809146029091F503C8
:103BE000892B8D7FB1F110923D0410923C0480919D
:103BF000310481FD2EC0F80143E0F695E7954A9522
:103C0000E1F7EE71FF27EA50FC4F98012F70332740
:103C100081E090E002C0880F991F2A95E2F7809515
:103C2000909520813181822393239183808360E06A
:103C3000C8010E942E1A809146028D7F0E94AD0B12
:103C400082E00E94DE1234CE9091310493FD8DCF3C
:103C5000C0CF88E0F701A8E6B2E001900D928A9506
:103C6000E1F710926A0210926C0210926B0280913E
:103C70003C0490913D0408171907D1F520913104B7
:103C800025FF36C03091170131FF02C026FF30C03A
:103C900020913A0430913B045601A21AB30AB701AD
:103CA0000E943110A816B90618F58091F50381FF1E
:103CB00008C08091170180618093170182E00E9403
:103CC000C80B8091F50385FF08C0809117018062C1
:103CD0008093170180E20E94C80B609117016695DE
:103CE000617080913C0490913D040E942E1AE0CDB9
:103CF000809146029091F503982B2091170191FB3A
:103D000021F9209317018D7F0E94AD0B10933D0484
:103D100000933C04D0923B04C0923A048091170176
:103D20008460809317018CCF970140E0B601C801F1
:103D30000E94431ABDCD053F4CE5140709F463C04A
:103D400008F45BC0063F8CE5180709F462C0D70190
:103D500012963C91332309F4D8C51092FB0403302A
:103D6000BDE51B0708F061C00A3FECE51E0730F413
:103D7000C80182509C45449708F063C00E94390FE7
:103D800090930A058093090502315CE5150709F453
:103D90009EC108F0EEC009309CE5190709F475C111
:103DA00008F0B8C00530BCE51B0709F462C108F093
:103DB0009FC00330FCE51F0709F453C108F055C14B
:103DC00080910905816002303CE5130709F4CEC0FB
:103DD0008091090590910A050E940F100E943713E7
:103DE00067CD07E225EE45EE68ED7CE51FC506E2EE
:103DF00021EE40EE63EF7CE519C507E225EE44EEC7
:103E000064EF7CE513C506E221EE42EE65EF7CE54A
:103E10000DC507E225EE46EE66EF7CE507C508E234
:103E200021E045EE69ED7CE501C5053AFDE51F079A
:103E300009F4A4CF08F055C001364DE5140709F484
:103E40009DCF06318CE5180709F464C50A355DE598
:103E5000150709F495C108F06EC101159CE5190715
:103E600009F474C10E3D1C4509F47DC1F70186813A
:103E70009781009709F488C10E94140A182F092F0E
:103E8000F701D280C580C2943FE0C3228091230213
:103E90008770C1F0AD2CDD20B1F0892F807F803498
:103EA00021F080E2810F883068F080910A0582FF5E
:103EB00009C082E00E94DE12809123028770AA244A
:103EC000A3948111A12C902E92942FE09222FBE0DA
:103ED000F91508F4E6C1E92DF0E0EE59F84C0C9420
:103EE0009236C8018D5A9D45039708F0AACF46CF58
:103EF00080910905806207304CE51407B9F1809183
:103F00000905806108305CE5150780F1809109059D
:103F100080642CC00D308CE5180709F4C0C090F403
:103F2000809109058E7F0B30ACE51A07F9F080917E
:103F300009058C600C30BCE51B07C0F080910905B9
:103F40008D7F14C00F30ECE51E0709F4B8C008F4EB
:103F5000AAC000312CE5120709F4B5C0809109050B
:103F60008F7B01313CE5130709F032CF80930905BF
:103F70002FCF0F3F4CE5140709F4B3C0A8F50A3F53
:103F80008CE5180709F479C0C0F40431ACE51A07D0
:103F900009F4B5C008F4A1C00531ECE51E0709F02D
:103FA00017CF8091090582FB992790F921E092278C
:103FB00090FB82F990FB83F9D9CF0C3FFCE51F07FA
:103FC00009F475C008F45DC00D3F3CE5130709F422
:103FD00072C080910A0583600E3F4CE5140709F01A
:103FE000F7CE80930A05F4CE01365DE5150709F496
:103FF00091C090F401309DE5190709F489C008F4D7
:1040000074C060E00230BDE51B0709F0E1CE8EE030
:1040100090E00E941A37DCCE0D3AEDE51E07E9F07C
:1040200060F490910905892F8E7F90FF8160053A99
:104030002DE5120709F49ACFCBCE0E3A3DE51307D2
:1040400051F10F3A4DE5140709F0C2CE90910A05DF
:10405000892F877F93FF8860C4CF80910A0588608D
:10406000C0CF80910905826081CF8091090584606D
:104070007DCF80910905886079CF80910A058160A4
:10408000B0CF80910A058260ACCF0E943713809137
:10409000090580686BCF80910A05877FA2CF809148
:1040A00009058B7F63CF80910905877F5FCF809162
:1040B0000A058E7F96CF80910A058D7F92CF8091E1
:1040C00009058F7E53CF809109058F7D4FCF0E94C8
:1040D0003713809109058F7749CF80910905837F38
:1040E00045CF80910A058C7F7CCF80910A05982F5F
:1040F000909591708E7F892B90FB81F972CF0E94F1
:10410000371390910905892F97FB87F980582ECF97
:1041100061E07DCF90910905892F8F7E94FF8061AA
:1041200025CF8091AC01811104C089E20E94F60B79
:10413000C2CC85E3FBCF0C35BDE51B07B9F010F110
:10414000073A1D4509F092CE0E949B170E94371333
:104150002FEF34E34CE0215030404040E1F700C005
:1041600000000E94B60D0E94FB1AEECF80910A0556
:1041700082FB882780F991E089270E94FA1276CE87
:1041800081E0FBCF80E0F9CF82810081118188231B
:1041900069F0C8010E94960ED82E682FC8010E94AF
:1041A000BA0CB8018D2D0E946C0E66CEC8010E941B
:1041B000720CD82EF6CF202F2F70B22E802F807F3A
:1041C00019F0B29490EFB922DD20A9F0BB2059F08C
:1041D00080E2810F883010F0111107C08B2D0E94F2
:1041E000CF0B0E94D111812F5AC080913E05B82A71
:1041F000B0923E05F6CF812F0E94D017BB2009F464
:1042000050C080E2810F883010F0111104C08B2D56
:104210000E94C80B03C08B2D0E94C10B0E94D111BC
:1042200040C0302F3F70B32E802F807F803219F036
:10423000B29480EFB822112321F1113009F4AEC0FD
:10424000DD2009F4B7C0CC2009F47FC020E0D701FD
:104250004C9111965C91119712966C91129713964E
:104260007C91139714968C910E94EF0E80913304E9
:1042700081FDB9CFF701858180FFB5CF8F70858330
:1042800064C080910A0582FD40C0DD20C1F1BB20E1
:1042900029F08B2D0E94CF0B0E94D11180E00E944B
:1042A0008018A92DA850BB0B149710F40E94790612
:1042B000812F902F0E94D50C8111C2C11092AF01A5
:1042C0001092AE01AA20B1F08091230280FD12C0AD
:1042D000D70112961C928595859585950E940F139E
:1042E000C7010E94661B809123028595859585955F
:1042F0000E94D11260E0C7010E94120FE9CA80E05B
:104300000E94D017BB2069F282CFDD2011F1C110CD
:1043100004C0809146028B2919C041E0C41206C036
:10432000809146028B290E94AD0BBBCF8091320455
:10433000823078F3C812EDCF0E94A20B9091AD01AC
:104340008B2D892B89138093AD018B2D0E94C9176A
:10435000A8CFC11003C00E94A20B17C080913204E5
:1043600051E0C51216C0823008F49BCF8091F5034E
:104370008B2109F496CF0E94A20B9091AD018B2D59
:104380008095892389138093AD018B2D0E94C217DC
:1043900088CF823000F3C812DECF83CF80913804FB
:1043A000DD2021F08C1508F47CCFCFCFC81608F0A3
:1043B00078CFEBCFCC2049F380913604909137042D
:1043C000193321F080913404909135040E94DA0D64
:1043D000812F0E94D01765CF802F86958695837098
:1043E00069F0813009F05DCF812F902F9370D1104B
:1043F00002C090E080E00E944D0653CF812F902FA5
:104400009370D11002C090E080E00E94630649CF13
:10441000812FDD2029F00E9450090E940E0841CF13
:104420000E943508FACF802F837091F5D11039CFD3
:10443000412F429546954770440F440F812F8F704E
:10444000042E01C0880F0A94EAF7212F207114FF6F
:1044500007C02FE030E001C0220F4A95EAF720950F
:10446000302F369536953370323069F050F44091E4
:104470004702313029F0822B84230E94321311CF5E
:10448000842B822BFACF282B809147028227F5CFED
:104490008695DD2011F0802F8170882309F401CFEB
:1044A000412F429546954770440F440F812F8F70DE
:1044B000042E01C0880F0A94EAF7212F207114FFFF
:1044C00007C02FE030E001C0220F4A95EAF720959F
:1044D000302F369536953370323069F050F4409174
:1044E0003D05313029F0822B84230E94C012D9CEA1
:1044F000842B822BFACF282B80913D058227F5CF84
:10450000F02FFF70BF2EDD2029F08F2F0E940F1398
:10451000812F1CCF812F0E94C2178B2D0E94D11298
:10452000C0CE123F89F160F4103FB9F0113F81F025
:10453000DD2009F480C0C11056CE802F8F7128C0B5
:10454000133F49F1143FA1F780910A0582FD2FC066
:10455000802F8F71DD2011F31BC080913804DD2086
:1045600079F0C81608F09DCE202F2F7181E090E0E1
:1045700001C0880F2A95EAF790913D058927B5CFAC
:104580008C1508F48ECEF0CF802F8F71D110C6CF4E
:104590000E940F1386CE80E0DD2009F4A6CF81E0D3
:1045A000902F9F7101C0880F9A95EAF79ECF809156
:1045B0003204823040F1DD20D1F0909123029770D7
:1045C000943041F40E94D50B802F8F710E94D1123C
:1045D000A12C67CEC816E0F7202F2F71B22E822FA4
:1045E0000E940F1363E08B2D0E941B13F1CFC8169E
:1045F00030F00E94D50B64E0802F8F71F5CF81E001
:104600000E94DE12E5CFDD2059F0302F3F71B32E2E
:10461000832F0E940F1363E08B2D0E941B1341CE4A
:1046200081E00E94DE1241E04C1508F03ACE82E0B3
:104630000E94DE1236CEC110BFCE802F8F716ECF9A
:10464000DD2019F0C1103ACE3DCEC11037CE20E0AA
:10465000F701408151816281738184810E94EF0E54
:104660008091330483FF2ACE8091AE019091AF01F7
:10467000029709F023CE812F0E94ED181FCE5520FE
:1046800029F0DC0118968C9185FF33CAC801975533
:104690008F3F910511F008F071C05801BB24BEE0B6
:1046A0000B9FF00111249F012C553D4F6901D7014B
:1046B00012968C91E755FD4F908180FB90F9908385
:1046C000882309F41DCA0E940C0690936702809308
:1046D0006602F60182818F5F828380913E05909110
:1046E000F503892B83838091460284830680F781BA
:1046F000E02D309731F0D6011C966D917C91C6016A
:1047000009958EE08A9DF0018B9DF00D1124EC55EA
:10471000FD4F858181FFF1C990E080E09093FC041A
:104720008093FD042BC08091AA019091AB010817E2
:10473000190781F41092AB011092AA011092EE04B5
:104740001092EF041092F0041092F1041092F6040B
:104750001092F5048091F7049091F804009709F401
:1047600095CFA8E08A16910408F0B8C9642D0E947C
:10477000D706811103C081E00E94021880913104A4
:1047800080FF39C00E940C066C01D70112968C91F3
:10479000882309F4CBC98091170182FF08C028E65D
:1047A00032E040E0B60190E080E00E94431A0B3115
:1047B000BCE51B0709F4ACC90C31ECE51E0709F494
:1047C000ADC990911701892F8E7F90FF81600A31CA
:1047D000FCE51F0709F4A5C9C8019056811520E220
:1047E000920728F0905E8115904108F0ADC91092B3
:1047F0003D0410923C04033FBCE51B0709F4F7CAD3
:1048000008F099CA083DFCE51F0709F4EACA093D0A
:104810002CE5120709F403CB073D3CE5130709F02B
:1048200096CA06E221EE41EE67ED7CE5C7010E94E3
:10483000B0193EC80031FFE51F0709F434C8013143
:104840002FE5120709F040C082E02EC800313FE595
:10485000130709F441C801314FE5140709F440C8B2
:104860006801E7E5DE1AFFEFCF16D10409F060F525
:104870006AE972E08C2D0E941D10892B29F58EE0CB
:104880008C9DF0018D9DF00D1124EC55FD4F828122
:10489000813009F027C880919A0290919B02892B60
:1048A00099F080919C0290919D02892B69F08091F2
:1048B0009E0290919F022091A0023091A102822B32
:1048C000932B892B09F419C8D70112965C905520B7
:1048D00009F428C80F35BDE51B0709F41FC80036C9
:1048E000EDE51E0759F00E35FDE51F0709F01AC862
:1048F00080910001882311F40C948E1C1092000109
:1049000080E00E9402180C94581C06315CE51507E3
:1049100009F0ACCA8091F503982F9A7A209130045F
:1049200020FF04C0482F447409F090E021FF04C028
:10493000482F417109F090E022FF04C0482F4878C9
:1049400009F090E023FF03C0827209F090E0332366
:1049500009F4E7CB81E0911101C080E08093AC01C4
:1049600069E2911165E38AE891E00E941806A3C804
:10497000A114B10409F069C8512CB12CA12C80E01C
:104980000E940218D092F804C092F70481E080934C
:10499000F404F60185818093F20451100EC0AB2817
:1049A00061F0F601808191819C0124503109213A06
:1049B000310508F071C80E94F60BD6011696AD902D
:1049C000BC90C5019A9581159F4110F4E0EEBE227E
:1049D00077247394C5010197803B9D4508F0712CA5
:1049E000D6011996ED91FC911A97309731F01B96EC
:1049F0006D917C9181E009957822772079F0F6011C
:104A0000868197810E94F00C8093F304C501F8E041
:104A10008F16910408F043C80E9486060E94D111A7
:104A200047C8B0E0A0E0E7E1F5E20C94A936809138
:104A3000DC01807F31F48091D901C0912002811185
:104A400007C0CDB7DEB7E8E00C94C5362196C77035
:104A50008091DF018C17A9F3F090D701E090D80185
:104A6000C090DA01D090DB01A6016E2D8F2D0E943F
:104A7000F706D0E08111EACF8E0183E0000F111F0D
:104A80008A95E1F7F801E052FE4F81818E11DECF69
:104A900080818F11DBCF82818111D8CFE380F480B8
:104AA000EC18FD0860E087ED91E00E94120F67EDC1
:104AB00071E00E943110E816F90640F68091DC01A1
:104AC0008F7080618093DC01F801EB51FE4F808193
:104AD0008F708061808387ED91E00E94661B0E9449
:104AE000410CAFCFA5E1B0E0E8E7F5E20C94A236C7
:104AF0008C0185E0F801DE01519601900D928A95B6
:104B0000E1F7D8015C9011966C9011971296EC9099
:104B100012971396CD90DC9060E087ED91E00E94B3
:104B2000120F87EDA82E81E0B82E8090DA019090C8
:104B3000DB01A4016091D8018091D7010E94F706A2
:104B40008111A8C1F090D901F601E819F9094F01C6
:104B500060E0FF2009F44BC1C5010E94120FB501AE
:104B60000E9431107090DC018816990608F0F2C09E
:104B70004091DA015091DB01B090D701A090D801AB
:104B8000872D807F6A2D09F08CC08B2D0E94F7063F
:104B9000FE2C811127C0D80111968C9111978A1192
:104BA00021C08C918B111EC02091DD013091DE015E
:104BB00016968D919C9128173907A1F4E11012C027
:104BC000872D8F7080618093DC0187ED91E00E94DA
:104BD000661B8091DC01F80185838F2D6596EFE0DF
:104BE0000C94BE36A601662D852D0E94F706D82EA0
:104BF00081E08E25D11080E080FF18C04E2D662DFB
:104C0000852D0E94210C882389F08091330480FF38
:104C10000DC087ED91E00E94661B88E0E7EDF1E0B2
:104C2000DF011D928A95E9F7F12CD7CF81E08E251F
:104C3000D11080E0B82FB170CB2E80FF29C04E2D4F
:104C4000662D852D0E94210CD82E811121C0598AF4
:104C50006A8A89899A890E94C50E292F22952F7008
:104C6000223050F0243078F49F7051F0F801958193
:104C7000907F31F4FD2CB1CF9F7011F08823D1F3D8
:104C8000805E8830B8F3C8010E94661BDC2CF2CF2E
:104C9000EE2009F4A2CF8091DC0181608093DC01D9
:104CA000C3CF8B2D0E94F706811124C0D801119625
:104CB0008C9111978A111EC08C918B111BC0209171
:104CC000DD013091DE0116968D919C911797281782
:104CD000390781F4E1100EC015967C92C8010E943C
:104CE000661B88E0F801A7EDB1E001900D928A956E
:104CF000E1F773CFC8010E94D20E882339F1EE206C
:104D000029F18091DC018032A0F02091D70130910F
:104D1000D8013A8729871B86DD86CC868E878091CD
:104D2000DD019091DE01988B8F87CE0109960E945C
:104D3000661B88E0F801A7EDB1E001900D928A951D
:104D4000E1F70E941125FF24F39447CFC8010E9488
:104D5000661BF9CF872D807F09F45BCF9090D70138
:104D60008090D8014091DA015091DB01682D892DA6
:104D70000E94F70681111CC0F8018181881118C0BA
:104D80008081891115C02091DD013091DE0186817D
:104D900097812817390761F4E1100AC07582C801AC
:104DA0000E94661B88E0D5011D928A95E9F715CF10
:104DB000C8010E94D20E882349F2EE2039F2809178
:104DC000DC01803208F4B5CF2091D7013091D801B1
:104DD0003A8329831B82DD82CC828E838091DD0120
:104DE0009091DE0198878F83CE010196A0CF87ED49
:104DF00091E00E94120F67ED71E00E943110881659
:104E0000990680F6FE2CEE2009F4A0CFE090D701A1
:104E1000D090D8014091DA015091DB016D2D8E2D9B
:104E20000E94F706811128C0F80181818D1124C0EC
:104E300080818E1121C02091DD013091DE018681BB
:104E4000978128173907C1F48091330482FD49CF37
:104E50009091DC0190FD45CF907F09F442CF809185
:104E6000DC018583903F09F439CF982F907F905FC4
:104E70008F70892B858332CFC8010E94D20E811199
:104E800058CF8091DC0181608093DC01C8010E94D1
:104E9000661BA3CEEE2009F459CFC8010E94D20EA2
:104EA000F82E882309F452CF88E0F801A7EDB1E08D
:104EB00001900D928A95E1F78091D7019091D801E8
:104EC0000E94C50E0E94112588CEA0E1B0E0EBE65D
:104ED000F7E20C94AF3629873A874B875C876D875A
:104EE0007E878F87988BCE0109960E94722581114B
:104EF0002FC088E0FE013996DE01119601900D92D7
:104F00008A95E1F74C855D856A8589850E94F7065B
:104F100081111EC0A091DF01B0E0CD010196877024
:104F200099272091200228171906E1F093E0AA0F93
:104F3000BB1F9A95E1F7A052BE4F98E0FE01319653
:104F400001900D929A95E1F78093DF010E94410C48
:104F5000809120029091DF01891312C06096E2E0F7
:104F60000C94CB360E9437131092DF01109220026E
:104F700088E0E7EDF1E0DF011D928A95E9F7E8CFDF
:104F8000B8E08B9FC001112480529E4F0E94722571
:104F9000882321F38091200290E001968770992761
:104FA00080932002D5CFEF92FF920F931F93CF9360
:104FB000DF9380914104882361F0C09140048CE02C
:104FC000F82E80914104C81748F0109241041092C5
:104FD0004004CDB7DEB7E6E00C94C736EE24E39488
:104FE000EC0EE09240040C2F10E0CF9DE001112464
:104FF000CE5BDB4F4B815C81698188810E94F70623
:1050000081111DC08E819F81892B21F4888599850E
:10501000019651F4288139814A815B816C817D81BF
:105020008E819F810E946527F09EF001F19EF00D18
:105030001124EE5BFB4F1482138210923E05CE2D9D
:10504000C0CF1092E5041092E404109218018091F0
:10505000E3048093E2040E9430070E94D32708955E
:10506000B0E0A0E0E6E3F8E20C94A036C091E204E0
:1050700097E0892E01E010E02CE0322E3EEF932ED7
:10508000442443948091E3048C1309C00E94D327E5
:105090000E943007CDB7DEB7E1E10C94BC36D0E01A
:1050A000FE01EE0FFF1FE652FB4F80819181889E2B
:1050B000D001899EB00D1124AE55BB4F14962C9192
:1050C0001497211158C050904104E2E4F4E030E01C
:1050D00020E0712C5D01251508F04BC0E284F384BB
:1050E000D501CD90DC906FEF7FEF612C462D50E025
:1050F000DA01AA0FBB1FAC0DBD1D0D90BC91A02DF8
:10510000109731F0EA16FB0609F4BA016394EECF6A
:105110006F3F7607A9F1D80102C0AA0FBB1F6A959D
:10512000E2F77A2AB801062C02C0660F771F0A94AC
:10513000E2F7AB014150510974161506F9F4329E9D
:10514000F001339EF00D1124EE5BFB4F889ED001E1
:10515000899EB00D1124AE55BB4F12962D913C91F6
:105160001397378326839082918291878087159643
:105170004C920E9402072196C37084CF148213823E
:105180002F5F3F4F3C96A7CFA9E1B0E0EAECF8E2F1
:105190000C949F36942F498B252F5A8B6B8B7C8BCD
:1051A0008D8B4C895D89622F892F0E94F7068111B2
:1051B00009C08091AE019091AF0101969093AF012B
:1051C0008093AE018B89811110923E051D861E864B
:1051D0001F86188A85E0FE017196DE0119960190FE
:1051E0000D928A95E1F780910A0582FF1EC0809199
:1051F000180490911904892BC1F00E940C0620918B
:10520000210230912202821B930B209118043091CD
:1052100019048217930720F08091230282FFE2C1D4
:105220000E94DC0B81110E94A20B4C855D856A8572
:1052300089850E94F706811111C061E0CE010996AF
:105240000E94120F6C018B8527EFC2162CE5D20647
:1052500081F4882321F181E08093180129853A8522
:105260004B855C856D857E858F8598890E94652735
:10527000C6C038EFC3163CE5D30629F4882379F07D
:105280000E942128EBCF49EFC4164CE5D40639F42F
:10529000882329F0809118018111F2CFDCCF02EA36
:1052A00014E0512CB12CA12C22242394312C2EEF6C
:1052B000422EF8014081518188248A94982C20E064
:1052C000822F90E0FC01EE0FFF1FE40FF51F6081BD
:1052D00071816115710531F0C616D70609F44C01CC
:1052E0002F5FEECFF12CFFEF8F169F0609F449C018
:1052F000F8014481F09018018F2D411180E0F82FC2
:10530000F170FF2EF801E58086819B85992309F4D1
:10531000F8C0FF2009F4F5C060902C0470902D04B3
:10532000E11013C0A101082C01C0440F0A94EAF750
:10533000842B868380913E0490913F0486159705C7
:1053400020F470923F0460923E04C10102C0880FB5
:10535000991F2A95E2F70197F80126812817190667
:1053600081F48091E4049091E504009709F44BC026
:105370000E94F1056816790608F045C021E0F801A1
:1053800024835F28FFEFAF1ABF0A095F1F4F28E091
:10539000A216B10409F08DCF8B85882309F40DC1C5
:1053A000552009F40AC10E940C069093E5048093ED
:1053B000E40480914104883010F591E0980F9093B7
:1053C000410498E0FE013996DE01119601900D929C
:1053D0009A95E1F73CE0839FC00111248E5B9B4FBF
:1053E00028E0FE013196DC0101900D922A95E1F74B
:1053F0002FEF3FEFFC0131872087D386C286699665
:10540000E2E10C94BB368091E2045091E304982FC2
:10541000F0E0E0E0851314C09093E204E017F10798
:1054200009F4AFCF90E0FC01EE0FFF1FE652FB4FF7
:10543000B182A0820196837099278093E304A1CF63
:10544000682E712CF301EE0FFF1FE652FB4F2081F7
:10545000318147E0429FD001439FB00D1124AE55EA
:10546000BB4F6D917C911197798F688F40E020E060
:1054700030E0E32FF0E0EE0FFF1F688D798DE60F2F
:10548000F71F8080918081149104E1F0F801019070
:10549000F081E02DFF8BEE8B20E005C0861697068D
:1054A00009F44F2D2F5FE22FF0E0EE0FFF1F6E8902
:1054B0007F89E60FF71F608171816115710571F7B2
:1054C0003F5FD7CF4423D1F0F801231708F0FD0147
:1054D00021E024830E171F0721F49093E204F42E99
:1054E00050CF981305C0AE17BF0711F49F5F93709C
:1054F00093012F5F3F4F822F83708CCFF0E0E0E06D
:10550000F7CF90E0E11020C0B10102C0660F771F15
:105510002A95E2F79B01215031098217930731F454
:10552000442309F448C0C5010E940207C101082CA8
:1055300001C0880F0A94EAF7982F9095F8018681A8
:1055400089238683FE2C1DCF9C01082C02C0359533
:1055500027950A94E2F7A90141705527BC016150D3
:10556000710986239723892B11F5452B01F1F80149
:1055700082819381892BC1F01B821C821D821E8235
:1055800049824A820E940C068160582F9D838C8339
:10559000F801828193818F83988729813A814B8199
:1055A0006D817E810E946527F8011582BFCFF22FA1
:1055B000F170EF2EBBCFEF2CB9CF9091E204809128
:1055C000E304981731F00E943028552009F446CEA4
:1055D00016CF0E94D3271092E5041092E4040E9493
:1055E0003007F3CF82E00E94DE121ACEA5E0B0E0D1
:1055F000ECEFFAE20C94AF369093F2038093F10350
:10560000811520E2920730F40E9468182596E2E0A6
:105610000C94CB3680EF89838A831B820E940C0610
:105620008160782F9D838C8349815A816B818D8124
:105630000E94C428EBCF0F931F93CF93DF938C016D
:10564000EB016AE972E08C2F0E941D10892BA1F4F6
:1056500080913404909135040E94DA0DDD27CE56F6
:10566000DD4F8881F801128218828330F1F048F40E
:10567000813059F0823081F0DF91CF911F910F91ED
:1056800008958430B9F08530B9F780919A029091ED
:105690009B02009789F306C080919C0290919D0225
:1056A000009799F30E94F62AE7CF80919E0290918D
:1056B0009F02F6CF8091A0029091A102009791F7EE
:1056C00020919A0230919B0280919C0290919D02C0
:1056D00021153105F1F2009729F7C901E3CFA5E0C3
:1056E000B0E0E5E7FBE20C94AF369093F2038093D1
:1056F000F103811520E2920730F40E94161A2596D4
:10570000E2E00C94CB3680EF89838A8381E08B833F
:105710000E940C068160782F9D838C8349815A8179
:105720006B818D810E94C428EACFCF93DF93EC0177
:105730000E946F2B80913404909135040E94DA0D01
:10574000CE010E94F62ADF91CF9108950F931F9307
:10575000CF93DF938C01862F6AE972E00E941D10BF
:10576000892BB1F4C0919A02D0919B02209781F0CD
:10577000F8018281833051F4CE010E94952BCE0135
:105780000E94952BCE010E94952B02C08430D0F749
:10579000DF91CF911F910F9108950F931F93CF9396
:1057A000DF938C01EB016AE972E08C2F0E941D10DF
:1057B000892B09F05CC0FE01FF27D80112968C915D
:1057C0001297EE56FD4F8130B9F415969C9192FFD9
:1057D00002C080830AC090FFFCCF82E0808380916A
:1057E0009C0290919D020097B9F480919A02909149
:1057F0009B020097E1F110C08230B9F515968C91AB
:1058000082FD28C080FD0BC083E0808380919E02D2
:1058100090919F02009701F10E946F2B28C084E0B5
:1058200080838091A0029091A1020097A9F78091B6
:105830009A0290919B020097F9F00E94952B80911B
:105840009C0290919D02009739F780919A02909165
:105850009B02E2CF85E0808380919A0290919B0227
:10586000009729F00E94952BF0CF86E08083DF918E
:10587000CF911F910F91089580919C0290919D026C
:10588000B8CF1F920F920FB60F9211242F933F9310
:105890004F935F936F937F938F939F93AF93BF9338
:1058A000CF93DF93EF93FF93D091E900DF70809166
:1058B000EC00C82FC17080FDC0E81092E900809113
:1058C000F000877F8093F00078940E944D1310922F
:1058D000E9008091F00088608093F000CD2BCF70BC
:1058E000C093E900FF91EF91DF91CF91BF91AF910C
:1058F0009F918F917F916F915F914F913F912F91E8
:105900000F900FBE0F901F9018951F920F920FB619
:105910000F9211242F933F934F935F936F937F9335
:105920008F939F93AF93BF93EF93FF938091E10089
:1059300082FF09C08091E20082FF05C08091E100F2
:105940008B7F8093E1008091DA0080FF24C08091FA
:10595000D80080FF20C08091DA008E7F8093DA002B
:105960008091D90080FF9DC080E189BD82E189BD21
:1059700009B400FEFDCF81E080933C0580910E05C7
:10598000811109C00E9441040E9434058091E20007
:1059900084608093E2008091E10080FF17C08091D5
:1059A000E20080FF13C08091E2008E7F8093E200CE
:1059B0008091E20080618093E2008091D800806253
:1059C0008093D80019BC85E080933C058091E1006C
:1059D00084FF2BC08091E20084FF27C080E189BD55
:1059E00082E189BD89B5982F917080FFFBCF8091AE
:1059F000D8008F7D8093D8008091E1008F7E8093C6
:105A0000E1008091E2008F7E8093E2008091E200CD
:105A100081608093E20080913305882309F447C0B8
:105A200084E080933C0580913C058091E10083FFF8
:105A300027C08091E20083FF23C08091E100877F2F
:105A40008093E10082E080933C05109233058091C1
:105A5000E1008E7F8093E1008091E2008E7F809351
:105A6000E2008091E20080618093E20042E060E029
:105A700080E00E9402058091F00088608093F00031
:105A8000FF91EF91BF91AF919F918F917F916F9116
:105A90005F914F913F912F910F900FBE0F901F90EC
:105AA000189519BC10923C0510920E0574CF809188
:105AB000E30087FD93E090933C05B5CF78941F9267
:105AC0001FB61F9211248F939F93AF93BF93809122
:105AD000050590910605A0910705B091080501966E
